:020000040800F2
:1000000000C000206D730008497200085572000896
:100010005B7200086172000867720008000000004F
:100020000000000000000000000000006D720008E9
:1000300079720008000000008572000891720008C3
:10004000B5730008B5730008B5730008B5730008F0
:10005000B5730008B5730008B5730008B5730008E0
:10006000B5730008B5730008B5730008B5730008D0
:10007000B57300089D720008B5730008B5730008D9
:10008000B5730008B5730008B5730008B5730008B0
:10009000B5730008B5730008B5730008B5730008A0
:1000A000B5730008B5730008B5730008B573000890
:1000B000B5730008B5730008B5730008B573000880
:1000C000B5730008B5730008B5730008B573000870
:1000D000B5730008B5730008B5730008F919000876
:1000E000B5730008B5730008B5730008B573000850
:1000F000B5730008B5730008B5730008B573000840
:10010000B5730008B5730008B5730008B57300082F
:10011000A9210008B5730008B1720008B573000882
:10012000B5730008B5730008B5730008B57300080F
:1001300000000000000000000000000000000000BF
:1001400000000000000000000000000000000000AF
:10015000000000000000000000000000000000009F
:10016000000000000000000000000000000000008F
:10017000000000000000000000000000000000007F
:10018000000000000000000000000000000000006F
:10019000000000000000000000000000000000005F
:1001A000000000000000000000000000000000004F
:1001B000000000000000000000000000000000003F
:1001C000000000000000000000000000000000002F
:1001D000000000000000000000000000000000001F
:0401E0005FF8E0F1F3
:1001E80010B5054C237833B9044B13B10448AFF369
:1001F80000800123237010BDE001002000000000F2
:1002080080A0000808B5034B1BB103490348AFF3AE
:10021800008008BD00000000E401002080A0000864
:1002280081F0004102E000BF83F0004330B54FEA9F
:1002380041044FEA430594EA050F08BF90EA020F0C
:100248001FBF54EA000C55EA020C7FEA645C7FEA9F
:10025800655C00F0E2804FEA5454D4EB5555B8BFC2
:100268006D420CDD2C4480EA020281EA030382EA33
:10027800000083EA010180EA020281EA0303362DC5
:1002880088BF30BD11F0004F4FEA01314FF4801C98
:100298004CEA113102D0404261EB410113F0004FAA
:1002A8004FEA03334CEA133302D0524263EB430361
:1002B80094EA050F00F0A780A4F10104D5F1200EFF
:1002C8000DDB02FA0EFC22FA05F2801841F100015A
:1002D80003FA0EF2801843FA05F359410EE0A5F12E
:1002E80020050EF1200E012A03FA0EFC28BF4CF05F
:1002F800020C43FA05F3C01851EBE37101F0004515
:1003080007D54FF0000EDCF1000C7EEB00006EEB21
:100318000101B1F5801F1BD3B1F5001F0CD34908AB
:100328005FEA30004FEA3C0C04F101044FEA445202
:1003380012F5800F80F09A80BCF1004F08BF5FEA89
:10034800500C50F1000041EB045141EA050130BD69
:100358005FEA4C0C404141EB0101013C28BFB1F57B
:10036800801FE9D291F0000F04BF01460020B1FAC6
:1003780081F308BF2033A3F10B03B3F120020CDA99
:100388000C3208DD02F1140CC2F10C0201FA0CF077
:1003980021FA02F10CE002F11402D8BFC2F1200CDC
:1003A80001FA02F120FA0CFCDCBF41EA0C01904092
:1003B800E41AA2BF01EB0451294330BD6FEA0404DB
:1003C8001F3C1CDA0C340EDC04F11404C4F12002C6
:1003D80020FA04F001FA02F340EA030021FA04F3D8
:1003E80045EA030130BDC4F10C04C4F1200220FA2F
:1003F80002F001FA04F340EA0300294630BD21FA6D
:1004080004F0294630BD94F0000F83F4801306BF32
:1004180081F480110134013D4EE77FEA645C18BF26
:100428007FEA655C29D094EA050F08BF90EA020FBD
:1004380005D054EA000C04BF1946104630BD91EAB5
:10044800030F1EBF0021002030BD5FEA545C05D1B8
:100458004000494128BF41F0004130BD14F58004F7
:100468003CBF01F5801130BD01F0004545F0FE416B
:1004780041F470014FF0000030BD7FEA645C1ABFA0
:10048800194610467FEA655C1CBF0B46024650EAD7
:10049800013406BF52EA033591EA030F41F4002103
:1004A80030BD00BF90F0000F04BF0021704730B589
:1004B8004FF4806404F132044FF000054FF000015E
:1004C80050E700BF90F0000F04BF0021704730B51F
:1004D8004FF4806404F1320410F0004548BF4042F4
:1004E8004FF000013EE700BF42004FEAE2014FEA49
:1004F80031014FEA02701FBF12F07F4393F07F4F24
:1005080081F06051704732F07F4208BF704793F026
:100518007F4F04BF41F40021704730B54FF4607439
:1005280001F0004521F000411CE700BF50EA01023C
:1005380008BF704730B54FF000050AE050EA0102E5
:1005480008BF704730B511F0004502D5404261EB55
:1005580041014FF4806404F132045FEA915C3FF496
:10056800D8AE4FF003025FEADC0C18BF03325FEA33
:10057800DC0C18BF033202EBDC02C2F1200300FAE4
:1005880003FC20FA02F001FA03FE40EA0E0021FA09
:1005980002F11444BDE600BF70B54FF0FF0C4CF4F7
:1005A800E06C1CEA11541DBF1CEA135594EA0C0FA9
:1005B80095EA0C0F00F0DEF82C4481EA030621EAE4
:1005C8004C5123EA4C5350EA013518BF52EA03351F
:1005D80041F4801143F4801338D0A0FB02CE4FF0D1
:1005E8000005E1FB02E506F00042E0FB03E54FF001
:1005F8000006E1FB03569CF0000F18BF4EF0010EF9
:10060800A4F1FF04B6F5007F64F5407404D25FEAF4
:100618004E0E6D4146EB060642EAC62141EA5551A7
:100628004FEAC52040EA5E504FEACE2EB4F1FD0CE9
:1006380088BFBCF5E06F1ED8BEF1004F08BF5FEA67
:10064800500E50F1000041EB045170BD06F0004619
:1006580046EA010140EA020081EA0301B4EB5C04C6
:10066800C2BFD4EB0C0541EA045170BD41F48011BE
:100678004FF0000E013C00F3AB8014F1360FDEBFE3
:10068800002001F0004170BDC4F10004203C35DABF
:100698000C341BDC04F11404C4F1200500FA05F342
:1006A80020FA04F001FA05F240EA020001F00042E3
:1006B80021F0004110EBD37021FA04F642EB060159
:1006C8005EEA430E08BF20EAD37070BDC4F10C0483
:1006D800C4F1200500FA04F320FA05F001FA04F247
:1006E80040EA020001F0004110EBD37041F1000133
:1006F8005EEA430E08BF20EAD37070BDC4F120053E
:1007080000FA05F24EEA020E20FA04F301FA05F2A5
:1007180043EA020321FA04F001F0004121FA04F24D
:1007280020EA020000EBD3705EEA430E08BF20EA1D
:10073800D37070BD94F0000F0FD101F00046400057
:1007480041EB010111F4801F08BF013CF7D041EAD9
:10075800060195F0000F18BF704703F000465200DD
:1007680043EB030313F4801F08BF013DF7D043EAAE
:100778000603704794EA0C0F0CEA135518BF95EA64
:100788000C0F0CD050EA410618BF52EA4306D1D1EB
:1007980081EA030101F000414FF0000070BD50EA0A
:1007A800410606BF1046194652EA430619D094EA94
:1007B8000C0F02D150EA013613D195EA0C0F05D17E
:1007C80052EA03361CBF104619460AD181EA0301D2
:1007D80001F0004141F0FE4141F470014FF000008A
:1007E80070BD41F0FE4141F4780170BD70B54FF025
:1007F800FF0C4CF4E06C1CEA11541DBF1CEA1355A5
:1008080094EA0C0F95EA0C0F00F0A7F8A4EB050486
:1008180081EA030E52EA03354FEA013100F088807D
:100828004FEA03334FF0805545EA131343EA126346
:100838004FEA022245EA111545EA10654FEA0026FB
:100848000EF000419D4208BF964244F1FD0404F5B4
:10085800407402D25B084FEA3202B61A65EB030510
:100868005B084FEA32024FF480104FF4002CB6EBCD
:10087800020E75EB030E22BFB61A754640EA0C004D
:100888005B084FEA3202B6EB020E75EB030E22BF8D
:10089800B61A754640EA5C005B084FEA3202B6EBCE
:1008A800020E75EB030E22BFB61A754640EA9C008D
:1008B8005B084FEA3202B6EB020E75EB030E22BF5D
:1008C800B61A754640EADC0055EA060E18D04FEA1B
:1008D800051545EA16754FEA06164FEAC30343EABB
:1008E80052734FEAC2025FEA1C1CC0D111F4801F88
:1008F8000BD141EA00014FF000004FF0004CB6E781
:1009080011F4801F04BF01430020B4F1FD0C88BF1F
:10091800BCF5E06F3FF6AFAEB5EB030C04BFB6EB2A
:10092800020C5FEA500C50F1000041EB045170BD1D
:100938000EF0004E4EEA113114EB5C04C2BFD4EB4A
:100948000C0541EA045170BD41F480114FF0000ECE
:10095800013C90E645EA060E8DE60CEA135594EA4A
:100968000C0F08BF95EA0C0F3FF43BAF94EA0C0F4D
:100978000AD150EA01347FF434AF95EA0C0F7FF4C2
:1009880025AF104619462CE795EA0C0F06D152EA16
:1009980003353FF4FDAE1046194622E750EA4106FA
:1009A80018BF52EA43067FF4C5AE50EA41047FF40B
:1009B8000DAF52EA43057FF4EBAE12E74A0011D2BD
:1009C80012F5001211D20DD56FF47873B3EB6252A1
:1009D8000ED44FEAC12343F0004343EA505323FAAD
:1009E80002F070474FF00000704750EA013002D122
:1009F8004FF0FF3070474FF0000070474FEA410258
:100A0800B2F1E04324BFB3F5001CDCF1FE5C0DD964
:100A180001F0004C4FEAC0024CEA5070B2F1004FAE
:100A280040EB830008BF20F00100704711F0804FB1
:100A380021D113F13872BCBF01F00040704741F476
:100A480080114FEA5252C2F11802C2F1200C10FA7A
:100A58000CF320FA02F018BF40F001004FEAC1235E
:100A68004FEAD32303FA0CFC40EA0C0023FA02F302
:100A78004FEA4303CCE77FEA625307D150EA0133D8
:100A88001EBF4FF0FE4040F44000704701F00040A8
:100A980040F0FE4040F40000704700BF80F0004086
:100AA80002E000BF81F0004142001FBF5FEA41033E
:100AB80092EA030F7FEA226C7FEA236C6AD04FEA3E
:100AC8001262D2EB1363C1BFD21841404840414083
:100AD800B8BF5B42192B88BF704710F0004F40F435
:100AE800000020F07F4018BF404211F0004F41F451
:100AF800000121F07F4118BF494292EA030F3FD01D
:100B0800A2F1010241FA03FC10EB0C00C3F120032F
:100B180001FA03F100F0004302D5494260EB4000BE
:100B2800B0F5000F13D3B0F1807F06D340084FEA29
:100B3800310102F10102FE2A51D2B1F1004F40EB1E
:100B4800C25008BF20F0010040EA03007047490086
:100B580040EB0000013A28BFB0F5000FEDD2B0FA23
:100B680080FCACF1080CB2EB0C0200FA0CF0AABF46
:100B780000EBC25052421843BCBFD04018437047E4
:100B880092F0000F81F4000106BF80F400000132EA
:100B9800013BB5E74FEA41037FEA226C18BF7FEAC1
:100BA800236C21D092EA030F04D092F0000F08BF03
:100BB8000846704790EA010F1CBF0020704712F0EA
:100BC8007F4F04D1400028BF40F00040704712F129
:100BD80000723CBF00F50000704700F0004343F08E
:100BE800FE4040F4000070477FEA226216BF0846C4
:100BF8007FEA23630146420206BF5FEA412390EA87
:100C0800010F40F4800070474FF0000304E000BF7C
:100C180010F0004348BF40425FEA000C08BF70472D
:100C280043F0964301464FF000001CE050EA0102F1
:100C380008BF70474FF000030AE000BF50EA010206
:100C480008BF704711F0004302D5404261EB4101F3
:100C58005FEA010C02BF84460146002043F0B64318
:100C680008BFA3F18053A3F50003BCFA8CF2083A3D
:100C7800A3EBC25310DB01FA02FC634400FA02FC46
:100C8800C2F12002BCF1004F20FA02F243EB02004D
:100C980008BF20F00100704702F1200201FA02FCAF
:100CA800C2F1200250EA4C0021FA02F243EB0200A2
:100CB80008BF20EADC7070474FF0FF0C1CEAD052E6
:100CC8001EBF1CEAD15392EA0C0F93EA0C0F6FD0A7
:100CD8001A4480EA010C400218BF5FEA41211ED085
:100CE8004FF0006343EA501043EA5111A0FB013171
:100CF8000CF00040B1F5000F3EBF490041EAD37146
:100D08005B0040EA010062F17F02FD2A1DD8B3F1C1
:100D1800004F40EBC25008BF20F00100704790F030
:100D2800000F0CF0004C08BF49024CEA502040EA82
:100D380051207F3AC2BFD2F1FF0340EAC250704748
:100D480040F400004FF00003013A5DDC12F1190F86
:100D5800DCBF00F000407047C2F10002410021FAF8
:100D680002F1C2F1200200FA02FC5FEA310040F110
:100D7800000053EA4C0308BF20EADC70704792F089
:100D8800000F00F0004C02BF400010F4000F013AC1
:100D9800F9D040EA0C0093F0000F01F0004C02BFBC
:100DA800490011F4000F013BF9D041EA0C018FE72B
:100DB8000CEAD15392EA0C0F18BF93EA0C0F0AD031
:100DC80030F0004C18BF31F0004CD8D180EA010057
:100DD80000F00040704790F0000F17BF90F0004FF0
:100DE800084691F0000F91F0004F14D092EA0C0FD2
:100DF80001D142020FD193EA0C0F03D14B0218BF65
:100E0800084608D180EA010000F0004040F0FE40AA
:100E180040F40000704740F0FE4040F44000704746
:100E28004FF0FF0C1CEAD0521EBF1CEAD15392EAC5
:100E38000C0F93EA0C0F69D0A2EB030280EA010CB5
:100E480049024FEA402037D04FF0805343EA11114E
:100E580043EA10130CF000408B4238BF5B0042F1AC
:100E68007D024FF4000C8B4224BF5B1A40EA0C0051
:100E7800B3EB510F24BFA3EB510340EA5C00B3EB83
:100E8800910F24BFA3EB910340EA9C00B3EBD10F71
:100E980024BFA3EBD10340EADC001B0118BF5FEAC3
:100EA8001C1CE0D1FD2A3FF650AF8B4240EBC250EC
:100EB80008BF20F0010070470CF0004C4CEA5020AD
:100EC8007F32C2BFD2F1FF0340EAC250704740F4FC
:100ED80000004FF00003013A37E792F0000F00F0EE
:100EE800004C02BF400010F4000F013AF9D040EA6C
:100EF8000C0093F0000F01F0004C02BF490011F400
:100F0800000F013BF9D041EA0C0195E70CEAD153F7
:100F180092EA0C0F08D142027FF47DAF93EA0C0FDE
:100F28007FF470AF084676E793EA0C0F04D14B02C2
:100F38003FF44CAF08466EE730F0004C18BF31F074
:100F4800004CCAD130F000427FF45CAF31F000436E
:100F58007FF43CAF5FE700BF4FF0FF3C06E000BF07
:100F68004FF0010C02E000BF4FF0010C4DF804CD2A
:100F78004FEA40024FEA41037FEA226C18BF7FEA3A
:100F8800236C11D001B052EA530C18BF90EA010F3C
:100F980058BFB2EB030088BFC81738BF6FEAE170CB
:100FA80018BF40F0010070477FEA226C02D15FEA67
:100FB800402C05D17FEA236CE4D15FEA412CE1D0D3
:100FC8005DF8040B704700BF844608466146FFE79A
:100FD8000FB5FFF7C9FF002848BF10F1000F0FBD7C
:100FE8004DF808EDFFF7F4FF0CBF012000205DF875
:100FF80008FB00BF4DF808EDFFF7EAFF34BF0120FA
:1010080000205DF808FB00BF4DF808EDFFF7E0FF92
:1010180094BF012000205DF808FB00BF4DF808EDE3
:10102800FFF7D2FF94BF012000205DF808FB00BF46
:101038004DF808EDFFF7C8FF34BF012000205DF828
:1010480008FB00BF4FEA4002B2F1FE4F0FD34FF04A
:101058009E03B3EB12620DD94FEA002343F000431D
:1010680010F0004F23FA02F018BF404270474FF0CB
:101078000000704712F1610F01D1420205D110F052
:10108800004008BF6FF0004070474FF00000704705
:10109800034613F8012B002AFBD1181A01387047B0
:1010A8004FF0FF3C06E000BF4FF0010C02E000BF2C
:1010B8004FF0010C4DF804CD4FEA410C7FEA6C5C0F
:1010C8004FEA430C18BF7FEA6C5C1BD001B050EAB2
:1010D800410C0CBF52EA430C91EA030F02BF90EA9D
:1010E800020F0020704710F1000F91EA030F58BF5C
:1010F800994208BF90422CBFD8176FEAE37040F0BE
:10110800010070474FEA410C7FEA6C5C02D150EA5B
:10111800013C07D14FEA430C7FEA6C5CD6D152EA16
:10112800033CD3D05DF8040B704700BF84461046DB
:1011380062468C461946634600E000BF01B5FFF7DA
:10114800B7FF002848BF10F1000F01BD4DF808EDAA
:10115800FFF7F4FF0CBF012000205DF808FB00BF7B
:101168004DF808EDFFF7EAFF34BF012000205DF8D5
:1011780008FB00BF4DF808EDFFF7E0FF94BF012022
:1011880000205DF808FB00BF4DF808EDFFF7CEFF23
:1011980094BF012000205DF808FB00BF4DF808ED62
:1011A800FFF7C4FF34BF012000205DF808FB00BF33
:1011B8004FEA410C7FEA6C5C02D150EA013C0AD14B
:1011C8004FEA430C7FEA6C5C02D152EA033C02D13D
:1011D8004FF0000070474FF0010070474FEA41029E
:1011E80012F5001215D211D56FF47873B3EB625271
:1011F80012D94FEAC12343F0004343EA505311F098
:10120800004F23FA02F018BF404270474FF0000029
:10121800704750EA013005D111F0004008BF6FF067
:10122800004070474FF00000704700BF80B584B0A1
:1012380002AF00237B602CE0294A7B6804334FF01F
:10124800000142F83310264A7B680433DB0013445C
:1012580000225A60224B4FF000021A60204B4FF0D8
:1012680000025A601E4B4FF000029A601C4B4FF070
:101278000002DA601A4B4FF000021A61184B4FF067
:1012880000025A61164B4FF000029A617B680133E5
:101298007B607B68032BCFDD00233B6018E03A6856
:1012A8001346DB001344DB0040330D4A98183A68B4
:1012B80013465B0013449B000A4A1A444FF000038C
:1012C8000093094B012100F0E9FF3B6801333B60C3
:1012D8003B68032BE3DD00BF00BF0837BD4680BD78
:1012E800FC010020B0A0000800C0DA4580B485B039
:1012F80000AFF860B9607A60064AFB681360054A77
:10130800BB685360034A7B68936000BF1437BD46CF
:1013180080BC7047FC010020B0B584B000AF4FF02E
:101328000001BF4800F06FFA0246BE4B1B68194621
:101338001046FFF7B9FB03461A46BA4B1A604FF03E
:101348000001B94800F05FFA0246B64B5B681946DF
:101358001046FFF7A9FB03461A46B24B5A604FF0F6
:101368000001B24800F04FFA0246AE4B5B681946DE
:101378001046FFF799FB03461A46AA4B5A60A94B39
:10138800DB681946AA4800F0AFF90246A54B9B68EE
:1013980019461046FFF788FB03461A46A14B9A6088
:1013A800A04B1B681846FFF79FF895A3D3E90023C5
:1013B800FFF7F2F802460B4614461D46994B5B6848
:1013C8001846FFF791F890A3D3E90023FFF7E4F854
:1013D80002460B4620462946FEF726FF02460B46E4
:1013E80014461D468F4B9B681846FFF77DF888A367
:1013F800D3E90023FFF7D0F802460B4620462946DA
:10140800FEF714FF02460B4610461946FFF7F6FA98
:101418000346844A1362834B1B681846FFF764F837
:1014280079A3D3E90023FFF7B7F802460B46144621
:101438001D467C4B5B681846FFF756F872A3D3E944
:101448000023FFF7A9F802460B4620462946FEF777
:10145800EBFE02460B4614461D46724B9B68184627
:10146800FFF742F86AA3D3E90023FFF795F802468D
:101478000B4620462946FEF7D9FE02460B46104683
:101488001946FFF7BBFA0346664A9362654B1B6829
:101498001846FFF729F85CA3D3E90023FFF77CF887
:1014A80002460B4614461D465E4B5B681846FFF71E
:1014B8001BF855A3D3E90023FFF76EF802460B4645
:1014C80020462946FEF7B2FE02460B4614461D4644
:1014D800544B9B681846FFF707F84DA3D3E9002340
:1014E800FFF75AF802460B4620462946FEF79EFEAD
:1014F80002460B4610461946FFF780FA0346494A4A
:101508001363484B1B681846FEF7EEFF3CA3D3E96C
:101518000023FFF741F802460B4614461D46414B8F
:101528005B681846FEF7E0FF37A3D3E90023FFF70F
:1015380033F802460B4620462946FEF777FE024658
:101548000B4614461D46374B9B681846FEF7CCFFE2
:101558002FA3D3E90023FFF71FF802460B462046C6
:101568002946FEF763FE02460B4610461946FFF76A
:1015780045FA03462B4A9363022000F053FB0346C7
:10158800284A5362032000F04DFB0346254AD362E4
:10159800042000F047FB0346224A5363052000F06D
:1015A80041FB03461F4AD3631E4BDA6A1D4B5B6A35
:1015B800D31A1846FEF786FF17A3D3E90023FEF7D0
:1015C800EBFF02460B4610461946FFF717FA03468B
:1015D800BB60144BDA6B134B5B6BD31A1846FEF7E0
:1015E80071FF0DA3D3E90023FEF7D6FF02460B4691
:1015F80010461946FFF702FA03467B601AE000BF5F
:101608001B0DE02D90A0E6BF1B0DE02D90A0E63F3E
:10161800CDCCCCCCCCCCFC3F1B0DE02D90A0F63F24
:10162800E0040020FC01002034050020880500208B
:10163800780400202B4B1B7F002B14D0294B1B69EF
:10164800B9681846FFF730FA03461A46254B1A615F
:10165800244B5B6979681846FFF726FA03461A4651
:10166800204B5A6107E01F4B4FF000021A611D4BD7
:101678004FF000025A610023FB602BE0FA68134622
:10168800DB001344DB004033164A9C18154AFB68FC
:101698000433DB0013445B681846FFF7B9FA0146C8
:1016A800104AFB68043352F833301A46204600F0DB
:1016B80037FE03461846FFF7C5FC03463B60FB6848
:1016C800DBB20133DBB23968184600F023FAFB6855
:1016D8000133FB60FB68032BD0DD00BF00BF103770
:1016E800BD46B0BDFC01002080B582B000AF786077
:1016F80039607B681B7F002B08D07B681B683A68C1
:101708001946054800F00CFE034601E04FF00003BF
:1017180018460837BD4680BD5C03002080B500AF81
:10172800024802F037FE00BF80BD00BF5807002006
:1017380080B582B000AF78607B68144A934221D1AB
:10174800134B1B78132B17D9114B00221A70114B0E
:101758001B781946104801F0F3F80E4B1B7801333B
:10176800DAB20C4B1A700B4B1B78032B02D9094BBE
:1017780001221A70FFF7D0FD054B1B780133DAB24E
:10178800034B1A7000BF0837BD4680BD58070020BC
:10179800A403002000000020E807002080B582B0E4
:1017A80002AF0D4B00930D4B0D4A01210D4800F07F
:1017B80075FD094B0093094B094A01210A4800F0BD
:1017C8006DFD054B0093054B054A0121074800F0C4
:1017D80065FD00BFBD4680BD0000C8420000204234
:1017E800E0A00008EC04002040050020940500203B
:1017F80080B483B000AF78607B689B7A18460C375A
:10180800BD4680BC704780B582B000AF7860396053
:101818007868FFF7EDFF0346002B1FD07B681B7A23
:10182800002B0CBF01230023DAB27B681B7A062B3E
:101838008CBF01230023DBB21343DBB2002B02D0A1
:101848004FF000030CE07B6803F10C007B685B68D9
:101858003A68194600F064FD034601E04FF00003C2
:1018680018460837BD4680BD80B400AF0A4B1B68D8
:101878000A4AA2FB0323DB0CDAB2094B1A70064BA7
:101888001B68084AA2FB03239B09074A136000BF91
:10189800BD4680BC704700BF0C00002083DE1B43A0
:1018A800A5030020D34D6210A803002080B489B09E
:1018B80000AF0346FB8000237B610023FB6100230C
:1018C8003B610023BB610023FB60194B5B68FB6035
:1018D800FB88184A127802FB03F37B61144B9B6860
:1018E800FB61134B9B683B613A69FB699A42F8D0EC
:1018F8003A69FB699A4206D2FA693B69D31ABA690E
:101908001344BB6107E0FA683B69D21AFB691344C8
:10191800BA691344BB613B69FB61BA697B699A4246
:1019280000D2DEE700BF00BF2437BD4680BC704749
:1019380010E000E0A503002080B489B000AF0346A2
:10194800FB8000237B610023FB6100233B610023B4
:10195800BB610023FB60194B5B68FB60FB88184A7E
:10196800126802FB03F37B61144B9B68FB61134B0A
:101978009B683B613A69FB699A42F8D03A69FB690E
:101988009A4206D2FA693B69D31ABA691344BB6111
:1019980007E0FA683B69D21AFB691344BA69134431
:1019A800BB613B69FB61BA697B699A4200D2DEE799
:1019B80000BF00BF2437BD4680BC704710E000E080
:1019C800A803002080B500AF074B1B68DA68064BF8
:1019D8001B6842F01002DA60C8220449024804F089
:1019E80007F800BF80BD00BF68080020AC030020D6
:1019F80080B584B000AF0023FB60214B1B681B68D7
:101A080003F01003102B0CBF01230023DBB2FB6093
:101A1800FB68002B27D000237B60194B1B681B68D1
:101A28007B60174B1B685B687B607B68144804F01D
:101A38005FF8144B1B685B68BB60BB68DAB26FF079
:101A480037039B1ADAB2104B1A701049104800F08D
:101A5800B1FD0D4B00221A700B4B1B781A46002162
:101A68000B4805F0CFFCC8220949054803F0C0FF20
:101A7800034804F099F800BF1037BD4680BD00BF89
:101A880068080020A80800207404002078040020BA
:101A9800AC03002080B500AF0021184802F08AFD91
:101AA8000421164802F086FD0821144802F082FD40
:101AB8000C21124802F07EFD0021114802F07AFD47
:101AC80004210F4802F076FD08210D4802F072FD4E
:101AD8000C210B4802F06EFD3C210A4802F0C6FEBC
:101AE8003C21094802F0C2FE3C21084802F0BEFE33
:101AF8003C21074802F0BAFE00BF80BDF005002077
:101B0800A00700203806002080060020C806002014
:101B18001007002080B485B000AF03463960FB7120
:101B28000023FB603B68002B36DB3B6841F65832EC
:101B3800934203DD41F65833FB6001E03B68FB60EC
:101B4800FB79013B032B62D801A252F823F000BFB6
:101B5800691B0008771B0008851B0008931B0008F9
:101B68002D4B00229A632C4AFB6853634FE02A4BA3
:101B780000221A64284AFB68D36348E0274B0022F6
:101B88001A64264AFB68D36341E0244B00229A6317
:101B9800224AFB6853633AE03B68002B36DA3B681D
:101BA8001F4A934203DA41F65833FB6002E03B6870
:101BB8005B42FB60FB79013B032B28D801A252F85A
:101BC80023F000BFDD1B0008EB1B0008F91B000811
:101BD800071C0008104B00225A630F4AFB689363E6
:101BE80015E00D4B0022DA630B4AFB6813640EE024
:101BF8000A4B0022DA63094AFB68136407E0074BC3
:101C080000225A63054AFB68936300E000BF00BFE7
:101C18001437BD4680BC7047002C01400034014099
:101C2800A8E4FFFF80B485B000AF0346FB71FB79E1
:101C3800023B032B2CD801A252F823F0551C0008B4
:101C4800691C0008791C0008891C00084FF08043B3
:101C58005B6A1BB2FB604FF0804300225A6219E0B6
:101C68000F4B5B6A1BB2FB600D4B00225A6211E0FE
:101C78000C4B5B6A1BB2FB600A4B00225A6209E0FC
:101C8800094B5B6A1BB2FB60074B00225A6201E0FA
:101C98000023FB60FB6818461437BD4680BC7047BC
:101CA8000004004000080040000C004080B500AF70
:101CB800134B1B68124A23F00F031360104B1B6869
:101CC8000F4A43F003031360012201210C4801F07D
:101CD800DEFE012204210A4801F0D9FE0420FFF7A4
:101CE800E5FD00220121064801F0D1FE0420FFF79E
:101CF800DDFD00220421024801F0C9FE00BF80BDBD
:101D0800000C014080B500AF134B1B68124A23F04A
:101D18000F031360104B1B680F4A43F00303136053
:101D2800002204210C4801F0B2FE002201210A48D9
:101D380001F0ADFE0420FFF7B9FD01220421064899
:101D480001F0A5FE01220121034801F0A0FE0420B4
:101D5800FFF7ACFD00BF80BD000C014080B582B02C
:101D680000AF0023FB711C4B1B681B4A23F00F03B9
:101D78001360194B1B68184A43F0080313600122CB
:101D88000121154801F083FE0120FFF78FFD012294
:101D98000421114801F07BFE0120FFF787FD09E0CF
:101DA800FB790133FB71FB79FA2B03D9FFF7AAFF03
:101DB80001230CE00121084801F052FE0346002BE4
:101DC800EED100220421044801F061FE00231846E8
:101DD8000837BD4680BD00BF000C014080B500AF8C
:101DE80000220421124801F052FE114B1B68104AD0
:101DF80023F00F0313600E4B1B680D4A43F00303D7
:101E08001360002201210A4801F041FE0220FFF779
:101E18004DFD01220421064801F039FE0220FFF79A
:101E280045FD00220421024801F031FE00BF80BDBB
:101E3800000C014080B500AF00220421124801F0D7
:101E480026FE114B1B68104A23F00F0313600E4B3C
:101E58001B680D4A43F003031360012201210A485D
:101E680001F015FE0220FFF721FD0122042106489A
:101E780001F00DFE0220FFF719FD0022042102489F
:101E880001F005FE00BF80BD000C014080B584B0A4
:101E980000AF0346FB71204B1B681F4A23F00F035A
:101EA80013601D4B1B681C4A43F003031360002298
:101EB8000421194801F0EBFD0023FB7324E097F996
:101EC8000730DBB2DB09DBB2BB73BB7B1A460121EF
:101ED800114801F0DCFDFB795B00FB710220FFF784
:101EE800E5FC012204210C4801F0D1FD0220FFF796
:101EF800DDFC00220421084801F0C9FD0220FFF79B
:101F0800D5FCFB7B0133FB73FB7B072BD7D900BFC9
:101F180000BF1037BD4680BD000C014080B584B0BD
:101F280000AF0346FB710023BB731F4B1B681E4A9F
:101F380023F00F0313601C4B1B681B4A43F0080374
:101F480013600023FB731FE000220421164801F0F0
:101F58009EFD0220FFF7AAFC01220421124801F08D
:101F680096FDBB7B5B00BB7301210F4801F078FD38
:101F78000346002B02D0BB7B0133BB730120FFF764
:101F880095FCFB7B0133FB73FB7B072BDCD9FB79CF
:101F9800002B02D1FFF74EFF01E0FFF71FFFBB7BCD
:101FA80018461037BD4680BD000C014080B582B090
:101FB80000AF03460A46FB711346BB71FFF776FE76
:101FC800AA20FFF763FFFFF7C9FEFB791846FFF762
:101FD8005DFFFFF7C3FEBB791846FFF757FFFFF712
:101FE800BDFEFFF78FFE00BF0837BD4680BD80B538
:101FF80084B000AF0346FB71FFF758FEAA20FFF735
:1020080045FFFFF7ABFEFB791846FFF73FFFFFF7E9
:10201800A5FEFFF74BFEAB20FFF738FFFFF79EFE4C
:102028000020FFF77BFF0346FB73FFF76BFEFB7B8C
:1020380018461037BD4680BD80B586B000AF7860C1
:102048007868FEF751FA3CA3D3E90023FEF7A4FA17
:1020580002460B4610461946FEF7D0FC03467B6045
:1020680037A3D3E90023C7E904234FF00002364B16
:10207800D7E90401FEF7BAFB02460B46C7E9042379
:102088007868FEF731FA02460B46D7E90401FEF7F5
:10209800ADFB02460B46C7E904234FF000022B4B69
:1020A800D7E90401FEF7C0F802460B46C7E9042346
:1020B8004FF00002264BD7E90401FEF7B7F80246B5
:1020C8000B461046194607F05BFF02460B461046C2
:1020D8001946FEF773FC0346FB730020FFF787FFE2
:1020E8000346BB7397F90E3003F06F035BB243F0FE
:1020F80010035BB27B737B7B19460020FFF756FF0A
:10210800FB7B1946FE20FFF751FFBB7B19460020D9
:10211800FFF74CFF022000F05BFDBB7B63F05E0322
:10212800DBB219460020FFF741FF00BF1837BD4654
:1021380080BD00BFAFF30080713D0AD7A370ED3FAB
:102148000000000084D777410000B0400000F03F55
:102158000000E03F80B582B000AF78600B46FB70AE
:1021680000210020FFF722FF7868FFF765FF4FF492
:10217800FA70FFF7E1FB00BF0837BD4680BD0000DD
:1021880080B400AF054B1B68DA68044B1B6842F04B
:102198002002DA6000BFBD4680BC7047E807002017
:1021A80080B582B000AF334B1B6803F02003002BCF
:1021B8005BD0304B5B68FB712F4B1B78022B37D100
:1021C8002E4B1B7819462E4AFB7953542B4B1B7800
:1021D800052B26D92A4800F02DFB03461A46284B22
:1021E8009B799A421AD1264B1B78012B04D1254A98
:1021F8002549234800F03BFB214B1B78022B04D1D7
:10220800224A23491E4800F032FB1D4B1B78032B42
:1022180004D1204A20491A4800F029FB164B002215
:102228001A70164B1B780133DAB2144B1A701CE083
:10223800FB79FF2B07D1104B1B78002B03D10E4BDA
:1022480001221A7011E00C4B1B78012B09D1FB7984
:10225800FF2B06D1084B02221A70084B00221A7075
:1022680003E0054B00221A70FFE700BF0837BD46A0
:1022780080BD00BF004C0040E7050020E6050020B7
:10228800DC050020ECA00008E004002014A10008F0
:10229800340500203CA100088805002080B584B0E2
:1022A80000AFF8607A603B600B46FB72FB68002B5E
:1022B80032D07B68002B2FD0FB68FA7A1A707B68C3
:1022C8001A68FB685A607B685A68FB689A607B6882
:1022D8009A68FB68DA60FB684FF000025A62FB6894
:1022E8004FF000029A62FB684FF00002DA62FB6866
:1022F8003A681A61FB68BA695A61FB6830330C2284
:102308000021184605F07EF8FB683C330C220021BA
:10231800184605F077F800E000BF1037BD4680BDCD
:1023280090B585B000AFF860B9607A60FB68002BA3
:1023380002D14FF0000339E1FB681A6CFB685A645C
:10234800FB68DA6BFB681A64B9687868FEF7AAFB61
:1023580003461A46FB68DA63FB681B78002B40F0DB
:102368009B80FB685A68FB68DB6B19461046FEF7D2
:10237800A3FC03461A46FB685A62FB689C6AFB6822
:102388009A68FB68DB6B19461046FEF795FC034616
:1023980019462046FEF788FB03461A46FB689A62F0
:1023A800FB685A6BFB689A63FB681A6BFB685A6395
:1023B800FB68DA6BFB681B6C19461046FEF772FB6C
:1023C80003461A46FB681A63FB68DA68FB681B6BEE
:1023D80019461046FEF770FC03461A46FB68DA6297
:1023E800FB689A6AFB685B6919461046FEF720FE8F
:1023F8000346002B04D0FB685A69FB689A6212E016
:10240800FB689A6AFB685B6983F0004319461046CB
:10241800FEF7F0FD0346002B05D0FB685B6983F0EF
:102428000042FB689A62FB685A6AFB689B6A194615
:102438001046FEF739FB03461A46FB68DB6A194665
:102448001046FEF731FB03461A46FB681A62FB6822
:102458001A6AFB681B6919461046FEF7E9FD034630
:10246800002B04D0FB681A69FB681A629CE0FB68C1
:102478001A6AFB681B6983F0004319461046FEF789
:10248800B9FD0346002B00F08F80FB681B6983F0C1
:102498000042FB681A6287E0FB681B78012B40F05A
:1024A8008380FB685C68FB68DA6BFB681B6C194609
:1024B8001046FEF7F7FA034619462046FEF7FCFBDE
:1024C80003461A46FB685A62FB689A68FB68DB6B2E
:1024D80019461046FEF7F0FB03461A46FB689A6257
:1024E800FB685A6BFB689A63FB681A6BFB685A6354
:1024F800FB68DC6BFB681B6C19461846FEF7D4FAC0
:10250800034619462046FEF7CDFA03461A46FB68ED
:102518005B6C19461046FEF7C7FA03461A46FB6875
:102528001A63FB68DA68FB681B6B19461046FEF7EE
:10253800C3FB03461A46FB68DA62FB685A6AFB6803
:102548009B6A19461046FEF7AFFA03461A46FB681F
:10255800DB6A19461046FEF7A7FA03461A46FB68D7
:102568001A62FB681A6AFB681B6919461046FEF76F
:102578005FFD0346002B04D0FB681A69FB681A62EA
:1025880012E0FB681A6AFB681B6983F0004319466E
:102598001046FEF72FFD0346002B05D0FB681B698C
:1025A80083F00042FB681A62FB681B6A18461437FE
:1025B800BD4690BD80B586B000AF786039607B6855
:1025C8001B78552B40F02B810023FB7500233B61C2
:1025D80009E03B697A6813441A78FB7D1344FB755C
:1025E8003B6901333B613B69092BF2DD7B680A33A8
:1025F8001B78FA7D9A425BD17B6801331B78512B9B
:1026080056D17B6803331B781B021AB27B680233EE
:102618001B781BB213431BB21B011846FDF752FF70
:102628004FF00002804BFEF7E1F802460B461046D9
:102638001946FEF7E3F902463B68DA607B68053322
:102648001B781B021AB27B6804331B781BB2134336
:102658001BB21B011846FDF735FF4FF00002724B05
:10266800FEF7C4F802460B4610461946FEF7C6F9AF
:1026780002463B681A617B6807331B781B021AB253
:102688007B6806331B781BB213431BB21B01184629
:10269800FDF718FF4FF00002634BFEF7A7F802465C
:1026A8000B4610461946FEF7A9F902463B685A61DF
:1026B8000023FB751623FB6009E0FB687A68134466
:1026C8001A78FB7D1344FB75FB680133FB60FB68DC
:1026D8001F2BF2DD7B6820331B78FA7D9A4240F08D
:1026E8009E807B6817331B78532B40F098807B685B
:1026F80019331B781B021AB27B6818331B781BB27C
:1027080013431BB21846FDF7DDFE4FF00002474B9E
:10271800FDF742FF02460B46104619464FF00002ED
:10272800414BFEF763F802460B4610461946FEF782
:1027380065F902463B685A607B681B331B781B02AD
:102748001AB27B681A331B781BB213431BB21846A4
:10275800FDF7B8FE4FF00002344BFDF71DFF0246AF
:102768000B46104619464FF000022F4BFEF73EF875
:1027780002460B4610461946FEF740F902463B68EA
:102788009A607B681D331B781B021AB27B681C3366
:102798001B781BB213431BB21846FDF793FE4FF08C
:1027A8000002224BFDF7F8FE02460B46104619467A
:1027B8004FF000021C4BFEF719F802460B46104674
:1027C8001946FEF71BF902463B681A603B681B680E
:1027D80017491846FEF72CFC0346002B0AD03B6825
:1027E8001B6813491846FEF75DF903461A463B680D
:1027F8001A6014E03B681B684FF000011846FEF7AA
:10280800F9FB0346002B00D109E03B681B68084927
:102818001846FEF749F903461A463B681A6000BF96
:102828001837BD4680BD00BF0000E040008066400C
:102838000000B44390B484B000AF78600023FB7309
:1028480000240023FB7309E0FB7B7A6813441B78A0
:102858009BB223449CB2FB7B0133FB73FB7B052BB0
:10286800F2D9E3B218461037BD4690BC704780B520
:1028780088B000AFF860B9607A604FF00003BB61C0
:10288800FB6805331B781AB2FB6804331B781B01FD
:102898001BB213431AB2FB6803331B781B021BB22B
:1028A80013431BB29AB2BB681A80BB6800221A7223
:1028B8000023FB7726E0BB681B881A46FB7F42FA99
:1028C80003F3DBB203F00103FB75BB681A7AFB7DE7
:1028D8001344DAB2BB681A72FB7D1846FEF798F902
:1028E800FB7F9B007A6813441B681946FEF7E4F9DE
:1028F80003461946B869FEF7D7F80346BB61FB7F64
:102908000133FB77FB7F092BD5D9BB681B7A002BDA
:102918000ED0BB681B7A1846FEF77AF903461946AB
:10292800B869FEF77DFA03461A46BB685A6003E0A9
:10293800BB684FF000025A6000BF2037BD4680BD1B
:1029480080B584B000AF78600B46FB70FF233B7204
:10295800FF237B72FB78BB720223FB7208233B7355
:10296800FB780A33DBB27B7307F10801FF230622E9
:10297800786802F00BFF00BF1037BD4680BD00002D
:1029880080B582B000AF7860074A7B681360074B58
:102998001B68986800230222002105F0B3F900BFE4
:1029A8000837BD4680BD00BFE805002010000020A4
:1029B80080B582B000AF78607B68002B04DB7B6851
:1029C800022B01DC012305E004F0F2FC0346092296
:1029D8001A60002318460837BD4680BD80B586B00A
:1029E80000AFF860B9607A60FB68012B02D0FB6821
:1029F800022B11D10E4B18687B689AB24FF0FF3347
:102A0800B96802F0C3FE0346FB75FB7D002B01D1BC
:102A18007B6808E0052306E004F0CAFC03460922A7
:102A28001A604FF0FF3318461837BD4680BD00BF07
:102A3800E805002080B582B000AF78607B68002B85
:102A480004DB7B68022B01DC002306E004F0B0FC09
:102A5800034609221A604FF0FF3318460837BD466F
:102A680080BD80B584B000AFF860B9607A6004F0CA
:102A78009FFC034609221A604FF0FF3318461037AF
:102A8800BD4680BD80B586B000AFF860B9607A6099
:102A9800FB68002B10D10E4B18684FF0FF33012252
:102AA800B96802F005FF0346FB75FB7D002B01D1D9
:102AB800012308E0052306E004F07AFC0346092216
:102AC8001A604FF0FF3318461837BD4680BD00BF67
:102AD800E805002080B582B000AF786039607B6877
:102AE800002B08DB7B68022B05DC3B684FF40052A7
:102AF8005A60002305E004F05BFC034609221A60D3
:102B0800002318460837BD4680BD000080B500AFD9
:102B1800084B1B68074A43F010031360032000F0BA
:102B280047F9002000F008F804F0BEF80023184622
:102B380080BD00BF0020024080B582B000AF786041
:102B4800124B1A68124B1B7819464FF47A73B3FB71
:102B5800F1F3B2FBF3F3184600F05FF90346002BDC
:102B680001D001230EE07B680F2B0AD80022796878
:102B78004FF0FF3000F027F9064A7B681360002306
:102B880000E0012318460837BD4680BD0C00002030
:102B9800080000200400002080B400AF054B1B781B
:102BA8001A46054B1B681344034A136000BFBD4611
:102BB80080BC704708000020EC05002080B400AFFE
:102BC800024B1B681846BD4680BC7047EC050020C8
:102BD80080B584B000AF7860FFF7F0FFB8607B681D
:102BE800FB60FB68B3F1FF3F05D00A4B1B781A4620
:102BF800FB681344FB6000BFFFF7E0FF0246BB68B9
:102C0800D31AFA689A42F7D800BF00BF1037BD46FA
:102C180080BD00BF0800002080B485B000AF786098
:102C28007B6803F00703FB600C4BDB68BB60BA688A
:102C38004FF6FF031340BB60FB681A02BB681343DF
:102C480043F0BF6343F40033BB60044ABB68D360FE
:102C580000BF1437BD4680BC704700BF00ED00E0E0
:102C680080B400AF044BDB681B0A03F00703184667
:102C7800BD4680BC704700BF00ED00E080B483B063
:102C880000AF0346FB7197F90730002B0BDBFB798C
:102C980003F01F02064997F907305B09012000FA83
:102CA80002F241F8232000BF0C37BD4680BC7047B4
:102CB80000E100E080B483B000AF03463960FB71E7
:102CC80097F90730002B0ADB3B68DAB20C4997F911
:102CD80007301201D2B20B4483F800230AE03B68A4
:102CE800DAB20849FB7903F00F03043B1201D2B2B0
:102CF8000B441A7600BF0C37BD4680BC704700BF36
:102D080000E100E000ED00E080B489B000AFF860B9
:102D1800B9607A60FB6803F00703FB61FB69C3F1E4
:102D28000703042B28BF0423BB61FB690433062B6C
:102D380002D9FB69033B00E000237B614FF0FF32BF
:102D4800BB6902FA03F3DA43BB681A407B699A400D
:102D58004FF0FF317B6901FA03F3D9437B680B40DD
:102D6800134318462437BD4680BC704780B582B0EF
:102D780000AF78607B68013BB3F1807F01D301230A
:102D88000FE00A4A7B68013B53600F214FF0FF3088
:102D9800FFF790FF054B00229A60044B07221A6048
:102DA800002318460837BD4680BD00BF10E000E08C
:102DB80080B582B000AF78607868FFF72DFF00BF5C
:102DC8000837BD4680BD80B586B000AF0346B96000
:102DD8007A60FB7300237B61FFF742FF78617A68B2
:102DE800B9687869FFF790FF024697F90F301146E6
:102DF8001846FFF75FFF00BF1837BD4680BD80B596
:102E080082B000AF0346FB7197F907301846FFF709
:102E180035FF00BF0837BD4680BD80B582B000AF22
:102E280078607868FFF7A2FF034618460837BD4662
:102E380080BD000080B485B000AF78600023FB60DF
:102E48007B68002B01D1012359E07B681B681A4677
:102E58002D4B9A420FD87B681B681A462B4B13449C
:102E68002B4AA2FB03231B099A007B681A647B6820
:102E7800284ADA630EE07B681B681A46264B13441F
:102E8800234AA2FB03231B099A007B681A647B6808
:102E9800224ADA637B68022283F821207B681B6858
:102EA8001B68FB60FB6823F47F5323F03003FB604F
:102EB8007B685A687B689B681A437B68DB681A439F
:102EC8007B681B691A437B685B691A437B689B694B
:102ED8001A437B68DB691343FA681343FB607B681A
:102EE8001B68FA681A607B6800229A637B68012273
:102EF80083F821207B68002283F8202000231846CD
:102F08001437BD4680BC704707040240F8FFFDBF78
:102F1800CDCCCCCC00000240F8FBFDBF0004024041
:102F280080B586B000AFF860B9607A603B60002376
:102F3800FB75FB6893F82030012B01D102234AE08E
:102F4800FB68012283F82020FB6893F82130012BCD
:102F58003AD1FB68022283F82120FB6800229A6399
:102F6800FB681B681A68FB681B6822F001021A607C
:102F78003B687A68B968F86800F0B0FBFB68DB6A00
:102F8800002B08D0FB681B681A68FB681B6842F0B6
:102F98000E021A600FE0FB681B681A68FB681B6862
:102FA80022F004021A60FB681B681A68FB681B6839
:102FB80042F00A021A60FB681B681A68FB681B6803
:102FC80042F001021A6005E0FB68002283F8202025
:102FD8000223FB75FB7D18461837BD4680BD80B4BB
:102FE80085B000AF78600023FB737B6893F82130CD
:102FF800022B08D07B6804229A637B68002283F83E
:103008002020012320E07B681B681A687B681B6806
:1030180022F00E021A607B681B681A687B681B68BE
:1030280022F001021A607B681A6C7B68DB6B012155
:1030380001FA02F25A607B68012283F821207B683A
:10304800002283F82020FB7B18461437BD4680BC3D
:103058007047000080B584B000AF78600023FB7330
:103068007B6893F82130022B05D07B6804229A6391
:103078000123FB73D6E07B681B681A687B681B68B2
:1030880022F00E021A607B681B681A687B681B684E
:1030980022F001021A607B681B681A46644B9A4248
:1030A80058D97B681B68634A93424FD07B681B687A
:1030B800614A934248D07B681B68604A934240D07B
:1030C8007B681B685E4A934238D07B681B685D4A00
:1030D800934230D07B681B685B4A934228D07B6858
:1030E8001B68534A934220D07B681B68574A934217
:1030F80019D07B681B68564A934212D07B681B68BC
:10310800544A93420AD07B681B68534A934202D1BF
:103118004FF480531BE04FF4803318E04FF4807372
:1031280015E0102313E0012311E04FF080730EE047
:103138004FF480130BE04FF4803308E04FF48053D2
:1031480005E04FF4807302E0102300E00123434AB6
:10315800536057E07B681B68364A93424FD07B68C0
:103168001B68354A934248D07B681B68334A9342B0
:1031780040D07B681B68324A934238D07B681B6812
:10318800304A934230D07B681B682F4A934228D03C
:103198007B681B68264A934220D07B681B682B4AB1
:1031A800934219D07B681B68294A934212D07B68E6
:1031B8001B68284A93420AD07B681B68264A9342B8
:1031C80002D14FF480531BE04FF4803318E04FF4E2
:1031D800807315E0102313E0012311E04FF0807392
:1031E8000EE04FF480130BE04FF4803308E04FF407
:1031F800805305E04FF4807302E0102300E00123C0
:10320800174A53607B68012283F821207B680022DB
:1032180083F820207B685B6B002B03D07B685B6B9B
:1032280078689847FB7B18461037BD4680BD00BFBD
:1032380080000240080002401C00024030000240AA
:1032480044000240580002406C000240080402405A
:103258001C040240300402404404024000040240BE
:103268000000024080B584B000AF78607B68DB6BFB
:103278001B68FB607B681B681B68BB607B681B6CFA
:1032880004229A40FB681340002B00F0D680BB68EC
:1032980003F00403002B00F0D0807B681B681B68D8
:1032A80003F02003002B07D17B681B681A687B6832
:1032B8001B6822F004021A607B681B681A469B4B45
:1032C8009A4258D97B681B68994A93424FD07B68C9
:1032D8001B68984A934248D07B681B68964A934279
:1032E80040D07B681B68954A934238D07B681B683E
:1032F800934A934230D07B681B68924A934228D005
:103308007B681B68894A934220D07B681B688E4A79
:10331800934219D07B681B688C4A934212D07B6811
:103328001B688B4A93420AD07B681B68894A934280
:1033380002D14FF480431BE04FF4802318E04FF490
:10334800806315E0402313E0042311E04FF080630D
:103358000EE04FF480030BE04FF4802308E04FF4B5
:10336800804305E04FF4806302E0402300E004233B
:10337800794A536057E07B681B686D4A93424FD087
:103388007B681B686B4A934248D07B681B686A4A13
:10339800934240D07B681B68684A934238D07B6868
:1033A8001B68674A934230D07B681B68654A934222
:1033B80028D07B681B685D4A934220D07B681B68D5
:1033C800614A934219D07B681B68604A934212D0C5
:1033D8007B681B685E4A93420AD07B681B685D4A1B
:1033E800934202D14FF480431BE04FF4802318E04E
:1033F8004FF4806315E0402313E0042311E04FF0FD
:1034080080630EE04FF480030BE04FF4802308E064
:103418004FF4804305E04FF4806302E0402300E06E
:1034280004234E4A53607B68DB6A002B00F0368128
:103438007B68DB6A7868984730E17B681B6C0222FE
:103448009A40FB681340002B00F0F880BB6803F03B
:103458000203002B00F0F2807B681B681B6803F0F6
:103468002003002B0BD17B681B681A687B681B68DC
:1034780022F00A021A607B68012283F821207B6807
:103488001B681A46294B9A4273D97B681B68284ADD
:1034980093426AD07B681B68264A934263D07B6854
:1034A8001B68254A93425BD07B681B68234A93427A
:1034B80038D07B681B68224A934230D07B681B68EF
:1034C800204A934228D07B681B68184A934220D030
:1034D8007B681B681C4A934219D07B681B681B4A8F
:1034E800934212D07B681B68194A93420AD07B68C2
:1034F8001B68184A934202D14FF4005336E04FF448
:10350800003333E04FF4007330E020232EE0022331
:103518002CE04FF0007329E04FF4001326E04FF43D
:10352800003323E04FF4005320E000BF8000024046
:10353800080002401C0002403000024044000240E3
:10354800580002406C000240080402401C0402407B
:1035580030040240440402400004024000000240DB
:103568004FF4007302E0202300E002234E4A536028
:1035780057E07B681B684D4A93424FD07B681B68B5
:103588004B4A934248D07B681B684A4A934240D0D2
:103598007B681B68484A934238D07B681B68474A57
:1035A800934230D07B681B68454A934228D07B6899
:1035B8001B68444A934220D07B681B68424A934266
:1035C80019D07B681B68414A934212D07B681B68FC
:1035D8003F4A93420AD07B681B683E4A934202D115
:1035E8004FF400531BE04FF4003318E04FF400731E
:1035F80015E0202313E0022311E04FF000730EE0E2
:103608004FF400130BE04FF4003308E04FF400537D
:1036180005E04FF4007302E0202300E002232E4A65
:1036280053607B68002283F820207B689B6A002B0C
:1036380034D07B689B6A786898472FE07B681B6C5E
:1036480008229A40FB681340002B28D0BB6803F07F
:103658000803002B23D07B681B681A687B681B68EB
:1036680022F00E021A607B681A6C7B68DB6B012102
:1036780001FA02F25A607B6801229A637B68012290
:1036880083F821207B68002283F820207B681B6B4D
:10369800002B04D07B681B6B7868984700BF00BF7D
:1036A8001037BD4680BD00BF00040240080002403C
:1036B8001C00024030000240440002405800024012
:1036C8006C00024080000240080402401C040240D2
:1036D80030040240440402400000024080B485B037
:1036E80000AFF860B9607A603B60FB681A6CFB68F1
:1036F800DB6B012101FA02F25A60FB681B683A6829
:103708005A60FB685B68102B08D1FB681B687A68F5
:103718009A60FB681B68BA68DA6007E0FB681B6898
:10372800BA689A60FB681B687A68DA6000BF143769
:10373800BD4680BC7047000080B48BB000AF786095
:10374800396000237B6200233B6279E101227B6AB6
:1037580002FA03F3FB613B681B68FA691340BB611B
:10376800BA69FB699A4240F068813B685B68A04A85
:1037780093425ED09E4A934275D89E4A934258D04F
:103788009C4A93426FD89C4A934252D09A4A934299
:1037980069D89A4A93424CD0984A934263D8984A37
:1037A800934246D0964A93425DD8122B2AD8122BC0
:1037B80059D801A252F823F03B3800081538000800
:1037C80027380008693800086F3800086F38000883
:1037D8006F3800086F3800086F3800086F38000825
:1037E8006F3800086F3800086F3800086F38000815
:1037F8006F3800086F3800086F3800081D38000857
:10380800313800087F4A934213D02CE03B68DB68CC
:103818003B6229E03B68DB6804333B6224E03B6899
:10382800DB6808333B621FE03B68DB680C333B62B4
:103838001AE03B689B68002B02D104233B6213E02B
:103848003B689B68012B05D108233B627B68FA69BA
:103858001A6109E008233B627B68FA695A6103E050
:1038680000233B6200E000BFBB69FF2B01D87B68E7
:1038780001E07B6804337B61BB69FF2B02D87B6A5C
:103888009B0002E07B6A083B9B003B617B691A68EE
:103898000F213B6901FA03F3DB431A40396A3B699C
:1038A80001FA03F31A437B691A603B685B6803F00B
:1038B8008053002B00F0C180534B9B69524A43F060
:1038C80001039361504B9B6903F00103BB60BB6824
:1038D8004E4A7B6A9B08023352F82330FB607B6AAE
:1038E80003F003039B000F2202FA03F3DB43FA6899
:1038F8001340FB607B68464A93421FD07B68454A69
:10390800934219D07B68444A934213D07B68434A58
:1039180093420DD07B68424A934207D07B68414A64
:10392800934201D105230AE0062308E0042306E0B8
:10393800032304E0022302E0012300E000237A6A63
:1039480002F0030292009340FA681343FB602F4988
:103958007B6A9B080233FA6841F823203B685B685E
:1039680003F48033002B06D02F4B1A682E49BB690D
:1039780013430B6006E02C4B1A68BB69DB432A49EA
:1039880013400B603B685B6803F40033002B06D0E0
:10399800254B5A682449BB6913434B6006E0224B08
:1039A8005A68BB69DB43204913404B603B685B683E
:1039B80003F48013002B06D01B4B9A681A49BB6985
:1039C80013438B6006E0184B9A68BB69DB431649C2
:1039D80013408B603B685B6803F40013002B25D011
:1039E800114BDA681049BB691343CB6025E000BF6F
:1039F80000003210000031100000221000002110D9
:103A080000001210000011100010024000000140D8
:103A180000080140000C0140001001400014014062
:103A280000180140001C0140000401400B4BDA68FB
:103A3800BB69DB4309491340CB607B6A01337B6276
:103A48003B681A687B6A22FA03F3002B7FF47EAE88
:103A580000BF00BF2C37BD4680BC70470004014042
:103A680080B485B000AF78600B467B807B689A682D
:103A78007B881340002B02D00123FB7301E0002355
:103A8800FB73FB7B18461437BD4680BC704780B477
:103A980083B000AF78600B467B8013467B707B78E1
:103AA800002B03D07A887B681A6103E07B881A04AC
:103AB8007B681A6100BF0C37BD4680BC70470000A8
:103AC80080B586B000AF78607B68002B01D10123F8
:103AD8006CE27B681B6803F00103002B00F0878011
:103AE800924B5B6803F00C03042B0CD08F4B5B6884
:103AF80003F00C03082B12D18C4B5B6803F4803362
:103B0800B3F5803F0BD1894B1B6803F40033002BBE
:103B18006CD07B685B68002B68D1012346E27B6828
:103B28005B68B3F5803F06D1804B1B687F4A43F43E
:103B3800803313602EE07B685B68002B0CD17B4BD5
:103B48001B687A4A23F480331360784B1B68774AE2
:103B580023F4802313601DE07B685B68B3F5A02F16
:103B68000CD1724B1B68714A43F4802313606F4B6E
:103B78001B686E4A43F4803313600BE06B4B1B6881
:103B88006A4A23F480331360684B1B68674A23F43E
:103B9800802313607B685B68002B13D0FFF70EF857
:103BA800386108E0FFF70AF802463B69D31A642B2C
:103BB80001D90323FAE15D4B1B6803F40033002BA2
:103BC800F0D014E0FEF7FAFF386108E0FEF7F6FFE0
:103BD80002463B69D31A642B01D90323E6E1534B10
:103BE8001B6803F40033002BF0D100E000BF7B68B2
:103BF8001B6803F00203002B63D04C4B5B6803F097
:103C08000C03002B0BD0494B5B6803F00C03082B0B
:103C18001CD1464B5B6803F48033002B16D1434B11
:103C28001B6803F00203002B05D07B681B69012B7E
:103C380001D00123BAE13D4B1B6823F0F8027B68F1
:103C48005B69DB00394913430B603AE07B681B6909
:103C5800002B20D0364B01221A60FEF7AFFF3861E7
:103C680008E0FEF7ABFF02463B69D31A022B01D9E5
:103C780003239BE12D4B1B6803F00203002BF0D0BC
:103C88002A4B1B6823F0F8027B685B69DB00274935
:103C980013430B6015E0264B00221A60FEF78EFFD7
:103CA800386108E0FEF78AFF02463B69D31A022B07
:103CB80001D903237AE11D4B1B6803F00203002B93
:103CC800F0D17B681B6803F00803002B3AD07B68AF
:103CD8009B69002B19D0174B01221A60FEF76EFF63
:103CE800386108E0FEF76AFF02463B69D31A022BE7
:103CF80001D903235AE10D4B5B6A03F00203002B41
:103D0800F0D0012000F0D8FA1CE00A4B00221A601B
:103D1800FEF754FF38610FE0FEF750FF02463B699B
:103D2800D31A022B08D9032340E100BF0010024038
:103D380000004242800442429E4B5B6A03F0020349
:103D4800002BE9D17B681B6803F00403002B00F00B
:103D5800A6800023FB75974BDB6903F08053002B8B
:103D68000DD1944BDB69934A43F08053D361914B57
:103D7800DB6903F08053BB60BB680123FB758E4B86
:103D88001B6803F48073002B18D18B4B1B688A4A7D
:103D980043F480731360FEF711FF386108E0FEF703
:103DA8000DFF02463B69D31A642B01D90323FDE0BA
:103DB800814B1B6803F48073002BF0D07B68DB68B1
:103DC800012B06D17B4B1B6A7A4A43F0010313622D
:103DD8002DE07B68DB68002B0CD1764B1B6A754A9B
:103DE80023F001031362734B1B6A724A23F0040326
:103DF80013621CE07B68DB68052B0CD16D4B1B6ADA
:103E08006C4A43F0040313626A4B1B6A694A43F025
:103E1800010313620BE0674B1B6A664A23F0010338
:103E28001362644B1B6A634A23F0040313627B68C2
:103E3800DB68002B15D0FEF7C1FE38610AE0FEF7FB
:103E4800BDFE02463B69D31A41F28832934201D93A
:103E58000323ABE0574B1B6A03F00203002BEED0A1
:103E680014E0FEF7ABFE38610AE0FEF7A7FE024653
:103E78003B69D31A41F28832934201D9032395E072
:103E88004C4B1B6A03F00203002BEED1FB7D012B88
:103E980005D1484BDB69474A23F08053D3617B68DF
:103EA800DB69002B00F08180424B5B6803F00C0358
:103EB800082B61D07B68DB69022B46D13F4B00227F
:103EC8001A60FEF77BFE386108E0FEF777FE0246CF
:103ED8003B69D31A022B01D9032367E0354B1B68D2
:103EE80003F00073002BF0D17B681B6AB3F5803FA9
:103EF80008D1304B5B6823F400327B689B682D49FE
:103F080013434B602B4B5B6823F474127B68196A6C
:103F18007B685B6A0B43274913434B60274B01229D
:103F28001A60FEF74BFE386108E0FEF747FE0246CE
:103F38003B69D31A022B01D9032337E01D4B1B68B9
:103F480003F00073002BF0D02FE01C4B00221A6006
:103F5800FEF734FE386108E0FEF730FE02463B69A2
:103F6800D31A022B01D9032320E0124B1B6803F05C
:103F78000073002BF0D118E07B68DB69012B01D1BD
:103F8800012313E00B4B5B68FB60FB6803F4803292
:103F98007B681B6A9A4206D1FB6803F470127B683F
:103FA8005B6A9A4201D0012300E0002318461837C3
:103FB800BD4680BD001002400070004060004242D3
:103FC80080B584B000AF786039607B68002B01D180
:103FD8000123D0E06A4B1B6803F007033A689A4252
:103FE80010D9674B1B6823F0070265493B681343E8
:103FF8000B60634B1B6803F007033A689A4201D0D1
:104008000123B8E07B681B6803F00203002B20D073
:104018007B681B6803F00403002B05D0594B5B68D1
:10402800584A43F4E06353607B681B6803F0080355
:10403800002B05D0534B5B68524A43F460535360DE
:10404800504B5B6823F0F0027B689B684D49134333
:104058004B607B681B6803F00103002B40D07B6832
:104068005B68012B07D1474B1B6803F40033002B17
:1040780015D101237FE07B685B68022B07D1414B98
:104088001B6803F00073002B09D1012373E03D4B3B
:104098001B6803F00203002B01D101236BE0394BAD
:1040A8005B6823F003027B685B68364913434B6007
:1040B800FEF784FDF8600AE0FEF780FD0246FB6823
:1040C800D31A41F28832934201D9032353E02D4B8E
:1040D8005B6803F00C027B685B689B009A42EBD13B
:1040E800274B1B6803F007033A689A4210D2244B07
:1040F8001B6823F0070222493B6813430B60204BDF
:104108001B6803F007033A689A4201D0012332E0A2
:104118007B681B6803F00403002B08D0194B5B680D
:1041280023F4E0627B68DB68164913434B607B68C5
:104138001B6803F00803002B09D0124B5B6823F4BB
:1041480060527B681B69DB000E4913434B6000F02B
:1041580021F802460B4B5B681B0903F00F030A4961
:10416800CB5C22FA03F3094A1360094B1B68184613
:10417800FEF7E2FC002318461037BD4680BD00BF9D
:10418800002002400010024064A100080C0000203A
:104198000400002090B48AB000AF2A4B3C1D0FCB1E
:1041A80084E80F0040F201233B800023FB610023D9
:1041B800BB6100237B6200237B6100233B62224BAF
:1041C8005B68FB61FB6903F00C03042B02D0082B2E
:1041D80003D02DE01D4B3B622DE0FB699B0C03F0E7
:1041E8000F0307F12802134413F8243C7B61FB6991
:1041F80003F48033002B13D0134B5B685B0C03F084
:10420800010307F12802134413F8283CBB617B69BA
:104218000E4A02FB03F2BB69B2FBF3F37B6204E0D4
:104228007B690B4A02FB03F37B627B6A3B6202E019
:10423800064B3B6200BF3B6A18462837BD4690BC18
:10424800704700BF98A000080010024000127A00D2
:1042580000093D0080B400AF024B1B681846BD46FC
:1042680080BC70470C00002080B500AFFFF7F2FF5C
:104278000246054B5B681B0A03F007030349CB5C46
:1042880022FA03F3184680BD0010024074A100080A
:1042980080B500AFFFF7DEFF0246054B5B68DB0A1F
:1042A80003F007030349CB5C22FA03F3184680BDE9
:1042B8000010024074A1000880B485B000AF786097
:1042C8000A4B1B680A4AA2FB03235B0A7A6802FBB3
:1042D80003F3FB6000BFFB685A1EFA60002BF9D19C
:1042E80000BF00BF1437BD4680BC70470C000020DB
:1042F800D34D621080B582B000AF78607B68002B28
:1043080001D1012341E07B6893F83D30DBB2002BFB
:1043180006D17B68002283F83C20786802F0F6FC1E
:104328007B68022283F83D207B681A687B68043327
:104338001946104600F02EFE7B68012283F84620BD
:104348007B68012283F83E207B68012283F83F20A6
:104358007B68012283F840207B68012283F8412092
:104368007B68012283F842207B68012283F843207E
:104378007B68012283F844207B68012283F845206A
:104388007B68012283F83D20002318460837BD4684
:1043980080BD000080B485B000AF78607B6893F87A
:1043A8003D30DBB2012B01D0012344E07B680222BF
:1043B80083F83D207B681B68DA687B681B6842F0DD
:1043C8000102DA607B681B681D4A934218D07B683B
:1043D8001B681C4A934213D07B681B68B3F1804F5B
:1043E8000ED07B681B68184A934209D07B681B680B
:1043F800164A934204D07B681B68154A934211D130
:104408007B681B689B6803F00703FB60FB68062B4F
:1044180010D07B681B681A687B681B6842F0010231
:104428001A6007E07B681B681A687B681B6842F0A3
:1044380001021A60002318461437BD4680BC704735
:10444800002C0140003401400004004000080040F6
:10445800000C004080B582B000AF78607B68002B0C
:1044680001D1012341E07B6893F83D30DBB2002B9A
:1044780006D17B68002283F83C20786800F039F880
:104488007B68022283F83D207B681A687B680433C6
:104498001946104600F07EFD7B68012283F846200D
:1044A8007B68012283F83E207B68012283F83F2045
:1044B8007B68012283F840207B68012283F8412031
:1044C8007B68012283F842207B68012283F843201D
:1044D8007B68012283F844207B68012283F8452009
:1044E8007B68012283F83D20002318460837BD4623
:1044F80080BD80B483B000AF786000BF0C37BD4684
:1045080080BC704780B582B000AF78607B68002BB4
:1045180001D1012341E07B6893F83D30DBB2002BE9
:1045280006D17B68002283F83C20786800F039F8CF
:104538007B68022283F83D207B681A687B68043315
:104548001946104600F026FD7B68012283F84620B4
:104558007B68012283F83E207B68012283F83F2094
:104568007B68012283F840207B68012283F8412080
:104578007B68012283F842207B68012283F843206C
:104588007B68012283F844207B68012283F8452058
:104598007B68012283F83D20002318460837BD4672
:1045A80080BD80B483B000AF786000BF0C37BD46D3
:1045B80080BC704780B584B000AF786039603B68D4
:1045C800002B09D17B6893F83E30DBB2012B14BF76
:1045D80001230023DBB222E03B68042B09D17B686E
:1045E80093F83F30DBB2012B14BF01230023DBB269
:1045F80015E03B68082B09D17B6893F84030DBB2A3
:10460800012B14BF01230023DBB208E07B6893F879
:104618004130DBB2012B14BF01230023DBB2002B96
:1046280001D0012372E03B68002B04D17B68022291
:1046380083F83E2013E03B68042B04D17B680222F8
:1046480083F83F200BE03B68082B04D17B680222EB
:1046580083F8402003E07B68022283F841207B68CE
:104668001B6801223968184600F050FF7B681B68F8
:10467800284A934204D07B681B68274A934201D199
:10468800012300E00023002B07D07B681B685A6CCD
:104698007B681B6842F400425A647B681B681D4AA9
:1046A800934218D07B681B681B4A934213D07B68DF
:1046B8001B68B3F1804F0ED07B681B68174A934282
:1046C80009D07B681B68164A934204D07B681B6834
:1046D800144A934211D17B681B689B6803F0070357
:1046E800FB60FB68062B10D07B681B681A687B6828
:1046F8001B6842F001021A6007E07B681B681A68B1
:104708007B681B6842F001021A60002318461037C4
:10471800BD4680BD002C014000340140000400402B
:1047280000080040000C004080B586B000AF7860FB
:1047380039607B68002B01D1012393E07B6893F8F3
:104748003D30DBB2002B06D17B68002283F83C2089
:10475800786802F029FB7B68022283F83D207B6899
:104768001B689B687A68126823F4804323F0070368
:1047780093607B681A687B6804331946104600F01A
:1047880009FC7B681B689B687B617B681B689B696D
:104798003B617B681B681B6AFB603B681B687A6926
:1047A80013437B613B6923F4407323F003033B61AC
:1047B8003B689A683B689B691B0213433A69134339
:1047C8003B613B6923F4406323F00C033B613B6985
:1047D80023F4704323F0F0033B613B68DA683B68DD
:1047E800DB691B0213433A6913433B613B681B694E
:1047F8001A013B681B6A1B0313433A6913433B6165
:10480800FB6823F02203FB603B685A683B685B69DE
:104818001B011343FA681343FB607B681B687A69C2
:104828009A607B681B683A699A617B681B68FA68BA
:104838001A627B68012283F846207B68012283F88C
:104848003E207B68012283F83F207B68012283F8A1
:1048580042207B68012283F843207B68012283F889
:104868003D20002318461837BD4680BD80B584B06A
:1048780000AF786039607B6893F83E30FB737B68E3
:1048880093F83F30BB737B6893F842307B737B6847
:1048980093F843303B733B68002B10D1FB7B012B13
:1048A80002D17B7B012B01D0012369E07B680222C6
:1048B80083F83E207B68022283F8422031E03B687F
:1048C800042B10D1BB7B012B02D13B7B012B01D0E8
:1048D800012355E07B68022283F83F207B6802228F
:1048E80083F843201DE0FB7B012B08D1BB7B012B08
:1048F80005D17B7B012B02D13B7B012B01D001230E
:104908003EE07B68022283F83E207B68022283F81F
:104918003F207B68022283F842207B68022283F8CA
:1049280043203B68002B03D03B68042B08D00FE0E2
:104938007B681B6801220021184600F0E7FD16E09D
:104948007B681B6801220421184600F0DFFD0EE099
:104958007B681B6801220021184600F0D7FD7B68A0
:104968001B6801220421184600F0D0FD00BF7B68B7
:104978001B681A687B681B6842F001021A600023F2
:1049880018461037BD4680BD80B582B000AF78604C
:104998007B681B681B6903F00203022B22D17B682A
:1049A8001B68DB6803F00203022B1BD17B681B68C2
:1049B8006FF002021A617B6801221A777B681B6814
:1049C8009B6903F00303002B03D0786800F0C7FA53
:1049D80005E0786800F0BAFA786800F0C9FA7B68F0
:1049E80000221A777B681B681B6903F00403042BF9
:1049F80022D17B681B68DB6803F00403042B1BD1FE
:104A08007B681B686FF004021A617B6802221A77C0
:104A18007B681B689B6903F44073002B03D078689C
:104A280000F09DFA05E0786800F090FA786800F0E8
:104A38009FFA7B6800221A777B681B681B6903F062
:104A48000803082B22D17B681B68DB6803F0080386
:104A5800082B1BD17B681B686FF008021A617B6802
:104A680004221A777B681B68DB6903F00303002BB9
:104A780003D0786800F073FA05E0786800F066FA09
:104A8800786800F075FA7B6800221A777B681B68E3
:104A98001B6903F01003102B22D17B681B68DB68AD
:104AA80003F01003102B1BD17B681B686FF01002FA
:104AB8001A617B6808221A777B681B68DB6903F434
:104AC8004073002B03D0786800F049FA05E0786855
:104AD80000F03CFA786800F04BFA7B6800221A77FD
:104AE8007B681B681B6903F00103012B0ED17B68EF
:104AF8001B68DB6803F00103012B07D17B681B6887
:104B08006FF001021A617868FCF712FE7B681B6877
:104B18001B6903F08003802B0ED17B681B68DB6860
:104B280003F08003802B07D17B681B686FF080023D
:104B38001A61786800F0D4FD7B681B681B6903F074
:104B48004003402B0ED17B681B68DB6803F04003F1
:104B5800402B07D17B681B686FF040021A617868A8
:104B680000F00FFA7B681B681B6903F02003202BF9
:104B78000ED17B681B68DB6803F02003202B07D16C
:104B88007B681B686FF020021A61786800F09FFD4F
:104B980000BF0837BD4680BD80B584B000AFF8605F
:104BA800B9607A60FB6893F83C30012B01D102238D
:104BB80046E0FB68012283F83C207B680C2B39D83F
:104BC80001A252F823F000BF054C00083D4C000834
:104BD8003D4C00083D4C0008134C00083D4C0008B3
:104BE8003D4C00083D4C0008214C00083D4C000895
:104BF8003D4C00083D4C00082F4C0008FB681B6822
:104C0800B968184600F040FA15E0FB681B68B968F7
:104C1800184600F0A9FA0EE0FB681B68B968184648
:104C280000F016FB07E0FB681B68B968184600F03F
:104C380083FB00E000BFFB68002283F83C200023D0
:104C480018461037BD4680BD80B584B000AFF86007
:104C5800B9607A60FB6893F83C30012B01D10223DC
:104C6800ACE0FB68012283F83C207B680C2B00F247
:104C78009F8001A252F823F0B54C0008B94D0008F6
:104C8800B94D0008B94D0008F54C0008B94D0008A9
:104C9800B94D0008B94D0008374D0008B94D000856
:104CA800B94D0008B94D0008774D0008FB681B682E
:104CB800B968184600F0E8F9FB681B689A69FB6850
:104CC8001B6842F008029A61FB681B689A69FB68D6
:104CD8001B6822F004029A61FB681B689969BB682B
:104CE8001A69FB681B680A439A6162E0FB681B68E3
:104CF800B968184600F038FAFB681B689A69FB68BF
:104D08001B6842F400629A61FB681B689A69FB6839
:104D18001B6822F480629A61FB681B689969BB680A
:104D28001B691A02FB681B680A439A6141E0FB6829
:104D38001B68B968184600F08BFAFB681B68DA69CB
:104D4800FB681B6842F00802DA61FB681B68DA69D5
:104D5800FB681B6822F00402DA61FB681B68D969EA
:104D6800BB681A69FB681B680A43DA6121E0FB68C3
:104D78001B68B968184600F0DFFAFB681B68DA6937
:104D8800FB681B6842F40062DA61FB681B68DA6939
:104D9800FB681B6822F48062DA61FB681B68D969CA
:104DA800BB681B691A02FB681B680A43DA6100E0EA
:104DB80000BFFB68002283F83C2000231846103708
:104DC800BD4680BD80B584B000AF786039607B682F
:104DD80093F83C30012B01D10223B3E07B68012218
:104DE80083F83C207B68022283F83D207B681B689F
:104DF8009B68FB60FB6823F07703FB60FB6823F488
:104E08007F43FB607B681B68FA689A603B681B6895
:104E1800B3F5005F3ED0B3F5005F00F28780B3F5CD
:104E2800805F00F08580B3F5805F7FD8702B1AD043
:104E3800702B7BD8602B50D0602B77D8502B3CD070
:104E4800502B73D8402B58D0402B6FD8302B64D0C0
:104E5800302B6BD8202B60D0202B67D8002B5CD050
:104E6800102B5AD062E07B6818683B6899683B68E9
:104E78005A683B68DB6800F02AFB7B681B689B6804
:104E8800FB60FB6843F07703FB607B681B68FA688C
:104E98009A604EE07B6818683B6899683B685A6876
:104EA8003B68DB6800F013FB7B681B689A687B68CB
:104EB8001B6842F480429A603BE07B6818683B6854
:104EC80059683B68DB681A4600F08AFA7B681B68F9
:104ED8005021184600F0E1FA2BE07B6818683B681F
:104EE80059683B68DB681A4600F0A8FA7B681B68BB
:104EF8006021184600F0D1FA1BE07B6818683B680F
:104F080059683B68DB681A4600F06AFA7B681B68D8
:104F18004021184600F0C1FA0BE07B681A683B682C
:104F28001B681946104600F0B8FA02E000BF00E01E
:104F380000BF7B68012283F83D207B68002283F84C
:104F48003C20002318461037BD4680BD80B483B08E
:104F580000AF786000BF0C37BD4680BC704780B496
:104F680083B000AF786000BF0C37BD4680BC704787
:104F780080B483B000AF786000BF0C37BD4680BCFA
:104F8800704780B483B000AF786000BF0C37BD466F
:104F980080BC704780B485B000AF786039607B68AA
:104FA8001B68FB607B68334A934213D07B68324AA4
:104FB80093420FD07B68B3F1804F0BD07B682F4AA8
:104FC800934207D07B682E4A934203D07B682D4AD0
:104FD800934208D1FB6823F07003FB603B685B6871
:104FE800FA681343FB607B68224A934213D07B68BC
:104FF800214A93420FD07B68B3F1804F0BD07B6876
:105008001E4A934207D07B681D4A934203D07B68AF
:105018001C4A934208D1FB6823F44073FB603B6849
:10502800DB68FA681343FB60FB6823F080023B6887
:105038005B691343FB607B68FA681A603B689A688F
:105048007B68DA623B681A687B689A627B68094AFF
:10505800934203D07B68084A934203D13B681A699C
:105068007B681A637B6801225A6100BF1437BD460A
:1050780080BC7047002C014000340140000400400F
:1050880000080040000C004080B487B000AF786092
:1050980039607B681B6A23F001027B681A627B68AF
:1050A8001B6A7B617B685B683B617B689B69FB6013
:1050B800FB6823F07003FB60FB6823F00303FB60CD
:1050C8003B681B68FA681343FB607B6923F00203A3
:1050D8007B613B689B687A6913437B617B68204AE4
:1050E800934203D07B681F4A93420CD17B6923F01B
:1050F80008037B613B68DB687A6913437B617B69E2
:1051080023F004037B617B68154A934203D07B68D4
:10511800144A934211D13B6923F480733B613B6984
:1051280023F400733B613B685B693A6913433B6155
:105138003B689B693A6913433B617B683A695A60EB
:105148007B68FA689A613B685A687B685A637B682F
:105158007A691A6200BF1C37BD4680BC704700BF21
:10516800002C01400034014080B487B000AF786063
:1051780039607B681B6A23F010027B681A627B68BF
:105188001B6A7B617B685B683B617B689B69FB6032
:10519800FB6823F4E043FB60FB6823F44073FB6087
:1051A8003B681B681B02FA681343FB607B6923F0AA
:1051B80020037B613B689B681B017A6913437B6111
:1051C8007B68214A934203D07B68204A93420DD1E1
:1051D8007B6923F080037B613B68DB681B017A698C
:1051E80013437B617B6923F040037B617B68164A2C
:1051F800934203D07B68154A934213D13B6923F449
:1052080080633B613B6923F400633B613B685B69F6
:105218009B003A6913433B613B689B699B003A6971
:1052280013433B617B683A695A607B68FA689A6104
:105238003B685A687B689A637B687A691A6200BF20
:105248001C37BD4680BC7047002C0140003401402B
:1052580080B487B000AF786039607B681B6A23F43C
:1052680080727B681A627B681B6A7B617B685B68FB
:105278003B617B68DB69FB60FB6823F07003FB60C4
:10528800FB6823F00303FB603B681B68FA68134361
:10529800FB607B6923F400737B613B689B681B029E
:1052A8007A6913437B617B68214A934203D07B6808
:1052B800204A93420DD17B6923F400637B613B68EC
:1052C800DB681B027A6913437B617B6923F4806383
:1052D8007B617B68164A934203D07B68154A9342E8
:1052E80013D13B6923F480533B613B6923F400539A
:1052F8003B613B685B691B013A6913433B613B684F
:105308009B691B013A6913433B617B683A695A60A0
:105318007B68FA68DA613B685A687B68DA637B689D
:105328007A691A6200BF1C37BD4680BC704700BF4F
:10533800002C01400034014080B487B000AF786091
:1053480039607B681B6A23F480527B681A627B6829
:105358001B6A3B617B685B687B617B68DB69FB6020
:10536800FB6823F4E043FB60FB6823F44073FB60B5
:105378003B681B681B02FA681343FB603B6923F414
:1053880000533B613B689B681B033A6913433B61CD
:105398007B68114A934203D07B68104A934209D133
:1053A8007B6923F480437B613B685B699B017A6975
:1053B80013437B617B687A695A607B68FA68DA61B3
:1053C8003B685A687B681A647B683A691A6200BF4E
:1053D8001C37BD4680BC7047002C0140003401409A
:1053E80080B487B000AFF860B9607A60FB681B6A68
:1053F8007B61FB681B6A23F00102FB681A62FB6889
:105408009B693B613B6923F0F0033B617B681B01AF
:105418003A6913433B617B6923F00A037B617A692C
:10542800BB6813437B61FB683A699A61FB687A69D8
:105438001A6200BF1C37BD4680BC704780B487B075
:1054480000AFF860B9607A60FB681B6A23F010024D
:10545800FB681A62FB689B697B61FB681B6A3B619E
:105468007B6923F470437B617B681B037A69134370
:105478007B613B6923F0A0033B61BB681B013A6970
:1054880013433B61FB687A699A61FB683A691A625F
:1054980000BF1C37BD4680BC704780B485B000AFE4
:1054A800786039607B689B68FB60FB6823F0700359
:1054B800FB603A68FB68134343F00703FB607B68B3
:1054C800FA689A6000BF1437BD4680BC704780B444
:1054D80087B000AFF860B9607A603B60FB689B6892
:1054E8007B617B6923F47F437B613B681A027B689D
:1054F8001A43BB6813437A6913437B61FB687A6973
:105508009A6000BF1C37BD4680BC704780B487B026
:1055180000AFF860B9607A60BB6803F01F0301222E
:1055280002FA03F37B61FB681A6A7B69DB431A4062
:10553800FB681A62FB681A6ABB6803F01F03796884
:1055480001FA03F31A43FB681A6200BF1C37BD4611
:1055580080BC704780B485B000AF786039607B68E4
:1055680093F83C30012B01D1022350E07B680122E3
:1055780083F83C207B68022283F83D207B681B6807
:105588005B68FB607B681B689B68BB60FB6823F0FB
:105598007003FB603B681B68FA681343FB607B6819
:1055A8001B68FA685A607B681B681B4A934218D0CC
:1055B8007B681B68194A934213D07B681B68B3F158
:1055C800804F0ED07B681B68154A934209D07B68D0
:1055D8001B68144A934204D07B681B68124A9342A2
:1055E8000CD1BB6823F08003BB603B685B68BA687A
:1055F8001343BB607B681B68BA689A607B680122AA
:1056080083F83D207B68002283F83C20002318465D
:105618001437BD4680BC7047002C0140003401405F
:105628000004004000080040000C004080B485B031
:1056380000AF786039600023FB607B6893F83C30EA
:10564800012B01D102233DE07B68012283F83C2035
:10565800FB6823F0FF023B68DB681343FB60FB68D1
:1056680023F440723B689B681343FB60FB6823F498
:1056780080623B685B681343FB60FB6823F400624D
:105688003B681B681343FB60FB6823F480523B684C
:105698001B691343FB60FB6823F400523B685B699A
:1056A8001343FB60FB6823F480423B68DB691343C8
:1056B800FB607B681B68FA685A647B68002283F881
:1056C8003C20002318461437BD4680BC704780B480
:1056D80083B000AF786000BF0C37BD4680BC704710
:1056E80080B483B000AF786000BF0C37BD4680BC83
:1056F800704780B582B000AF78607B68002B01D11D
:1057080001233FE07B6893F83930DBB2002B06D1E8
:105718007B68002283F83820786801F08BFC7B686E
:10572800242283F839207B681B68DA687B681B6849
:1057380022F40052DA60786800F05EFD7B681B682E
:105748001A697B681B6822F490421A617B681B689F
:105758005A697B681B6822F02A025A617B681B68B9
:10576800DA687B681B6842F40052DA607B680022C2
:10577800DA637B68202283F839207B68202283F84B
:105788003A20002318460837BD4680BD80B58AB048
:1057980002AFF860B9603B601346FB8000237B6171
:1057A800FB6893F83930DBB2202B7CD1BB68002B27
:1057B80002D0FB88002B01D1012375E0FB6893F828
:1057C8003830012B01D102236EE0FB68012283F8F7
:1057D8003820FB680022DA63FB68212283F839202D
:1057E800FDF7ECF97861FB68FA889A84FB68FA8817
:1057F800DA84FB689B68B3F5805F08D1FB681B6996
:10580800002B04D10023FB61BB68BB6103E0BB68CC
:10581800FB610023BB61FB68002283F838202AE083
:105828003B6800937B6900228021F86800F06CFBDC
:105838000346002B01D0032336E0FB69002B0BD174
:10584800BB691B881A46FB681B68C2F308025A60CA
:10585800BB690233BB6107E0FB691A78FB681B6808
:105868005A60FB690133FB61FB68DB8C9BB2013B2F
:105878009AB2FB68DA84FB68DB8C9BB2002BCFD131
:105888003B6800937B6900224021F86800F03CFBEC
:105898000346002B01D0032306E0FB68202283F88F
:1058A8003920002300E0022318462037BD4680BD7A
:1058B80080B58AB002AFF860B9603B601346FB80E0
:1058C80000237B61FB6893F83A30DBB2202B40F071
:1058D8008980BB68002B02D0FB88002B01D10123F3
:1058E80081E0FB6893F83830012B01D102237AE07C
:1058F800FB68012283F83820FB680022DA63FB6822
:10590800222283F83A20FDF759F97861FB68FA8872
:105918009A85FB68FA88DA85FB689B68B3F5805F2F
:1059280008D1FB681B69002B04D10023FB61BB680D
:10593800BB6103E0BB68FB610023BB61FB6800221D
:1059480083F8382043E03B6800937B6900222021DC
:10595800F86800F0D9FA0346002B01D0032342E08F
:10596800FB69002B0CD1FB681B685B689BB2C3F317
:1059780008039AB2BB691A80BB690233BB611FE096
:10598800FB689B68B3F5805F07D0FB689B68002BBA
:105998000AD1FB681B69002B06D1FB681B685B6892
:1059A800DAB2FB691A7008E0FB681B685B68DBB257
:1059B80003F07F03DAB2FB691A70FB690133FB61FC
:1059C800FB68DB8D9BB2013B9AB2FB68DA85FB680A
:1059D800DB8D9BB2002BB6D1FB68202283F83A20DE
:1059E800002300E0022318462037BD4680BD000092
:1059F80080B586B000AFF860B9601346FB80FB68DD
:105A080093F83A30DBB2202B66D1BB68002B02D06A
:105A1800FB88002B01D101235FE0FB6893F8383045
:105A2800012B01D1022358E0FB68012283F83820BA
:105A3800BA68FB689A62FB68FA889A85FB68002254
:105A4800DA63FB68222283F83A20FB685B6B254AFD
:105A58009A62FB685B6B244ADA62FB685B6B234AD9
:105A68001A63FB685B6B00225A6307F108037B61CA
:105A7800FB68586BFB681B68043319467B691A6816
:105A8800FB88FDF74DFA00233B61FB681B681B6828
:105A98003B61FB681B685B683B613B69FB680022F4
:105AA80083F83820FB681B68DA68FB681B6842F4D7
:105AB8008072DA60FB681B685A69FB681B6842F0F1
:105AC80001025A61FB681B685A69FB681B6842F04F
