:020000040800F2
:10000000C8080020DD0100089B1F0008451D0008EE
:10001000991F000861090008D524000800000000AD
:100020000000000000000000000000004501000882
:10003000CB09000800000000890100089D1F00088E
:10004000F7010008F7010008F7010008F7010008B0
:10005000F7010008F7010008F7010008F7010008A0
:10006000F7010008F7010008F7010008F701000890
:10007000F701000865090008710900087D090008FA
:100080008909000895090008F7010008F701000830
:10009000F7010008F7010008F7010008F701000860
:1000A000F7010008F7010008F7010008F701000850
:1000B000F7010008F7010008F7010008F701000840
:1000C000F7010008F7010008F7010008F701000830
:1000D000F7010008F7010008F701000831230008C4
:1000E000F7010008F7010008F7010008F701000810
:1000F000F7010008F7010008F7010008F701000800
:10010000F7010008F7010008F7010008F7010008EF
:10011000F7010008F7010008F7010008F7010008DF
:10012000F7010008F7010008F7010008F7010008CF
:10013000DFF80CD000F002FC00480047D531000881
:10014000C8080020224B19680868B0E8F00F80F357
:100150000988BFF36F8F4FF0000080F311884EF0D5
:100160000D0E70470000000006480068006880F32C
:10017000088862B661B6BFF34F8FBFF36F8F00DFA1
:1001800000BF00BF08ED00E0EFF30980BFF36F8F01
:100190000F4B1A6820E9F00F106008B54FF05000BF
:1001A00080F31188BFF34F8FBFF36F8F03F0F4F824
:1001B0004FF0000080F31188BDE808401968086816
:1001C000B0E8F00F80F30988BFF36F8F704700BF6E
:1001D0001C000020EFF305807047000006488047B0
:1001E00006480047FEE7FEE7FEE7FEE7FEE7FEE71C
:1001F000FEE7FEE7FEE7FEE7052000083101000804
:10020000202A04DB203A21FA02F00021704721FA6B
:1002100002F3D040C2F120029140084319467047D2
:10022000D2B201E000F8012B491EFBD27047002238
:10023000F6E710B513460A4604461946FFF7F0FFE5
:10024000204610BDF0B480EA0102D40F4200B2EBA8
:10025000410F02D20246084611464A0042D0C30D61
:10026000DDB2C1F3C752AD1A202D35DAC1F3160144
:1002700041F4000204B15242C5F1200602FA06F12F
:100280002A411044B3EBD05F23D0C4B1012DA0EBC1
:10029000C35009DCF0BC4FF0004202EAC352DBB2AB
:1002A00000F5000000F08FBA400000F1807000EB14
:1002B000C350A0F1807040EAD170490009E04908BC
:1002C00041EAC071A0EBC35000F50000400800EB0C
:1002D000C350F0BC00F06EBA6142012202EB410152
:1002E000001BF6E7F0BC704781F00041AAE780F000
:1002F0000040A7E72DE9FE4F804681EA0300C00FCA
:100300000C46009021F0004123F00045B8EB0200BC
:10031000A94105D24046214690461C460B4602465E
:1003200023F00040104347D0270DC7F30A00C3F362
:100330000A510290401A019040286BDAC3F313006F
:1003400040F4801B0098924620B10023D2EB030AB0
:1003500063EB0B0B01985946C0F14002504600F088
:1003600008FA06460D4650465946019A00F010FA22
:1003700010EB08006141002487EA115284EAE77318
:100380001A4340D0009A62B3019A012A4FEA0752F9
:1003900015DC001B61EB02014FF0004202EA07523C
:1003A000CDE90042001C41F5801132462B4600F099
:1003B00047FA03B0BDE8F08F40462146F9E7001B3D
:1003C00061EB0201001C41F5801300185B4120180D
:1003D000A2F5001747EB030140EAD570B6196D414D
:1003E00011E06D084FEA360645EAC0754FEA07523C
:1003F000001B61EB0201001C41F5801149084FEA26
:1004000030000019514132462B4603B0BDE8F04F91
:1004100000F007BA0098012240000023D0EB02024E
:1004200063EBE073009821464FEAE074B8EB0000FC
:1004300061EB0401E9E783F000435BE781F00041F1
:1004400058E72DE9FE4F81EA030404F0004421F04F
:10045000004100944FF0000B23F0004350EA0104E8
:100460005ED052EA03045BD0C3F30A54C1F30A55C9
:100470002C44A4F2F3340194A0FB0254C1F3130101
:1004800041F48011C3F3130343F4801301FB0244CE
:1004900000FB034E840A970A44EA815447EA8357D3
:1004A000A4FB076802958D0A05FB07854FEA932C8C
:1004B00004FB0C542705029D4FEA065847EA1637FD
:1004C000B5EB08056EEB070C870E920E47EA811715
:1004D00042EA8312A7FB0201B6EB0B0164EB0004B6
:1004E0002B0D43EA0C335E1844EB1C50DA465146A0
:1004F000E7FB0201C5F313044FEA0B3343EA14533D
:100500004FEA0432019C43EA0603A4F10C0402946E
:10051000009CCDE900B400F093F903B0BDE8F08F82
:1005200000200146F9E72DE9F04D81EA030404F0CB
:10053000004B21F0004514464FF0000A23F0004123
:1005400050EA050220D054EA01021DD0C5F30A5733
:100550000246C5F31303C1F31300C1F30A5640F476
:10056000801543F48013A7EB0608101BD64608F24B
:10057000FD3873EB050002D308F1010801E0921881
:100580005B41B8F1000F03DA00200146BDE8F08DB1
:1005900000204FF48011064684460EE0171B73EBD3
:1005A000050705D3121B63EB050306434CEA010C58
:1005B00049084FEA300092185B4150EA0107EDD13B
:1005C00052EA030012D082EA040083EA05010843DC
:1005D00005D0101BAB4106D20122002306E0002209
:1005E0004FF0004302E06FF0010253101AEB0600D7
:1005F0004CEB085110EB0A0041EB0B01BDE8F04D4C
:1006000000F00FB970B521F0004303430CD0C1F3E3
:100610000A550024D5EB040564EB0403D617AD1A84
:10062000B34102DB0020014670BD201841EB0251AE
:1006300070BD0EB5C10F80EAE0700844CA07002102
:1006400040F233438DE80E000A460B4600F0F8F8FE
:1006500003B000BDC1F30A5210B5C1F3130140F25B
:10066000FF3341F480119A4201DA002010BD40F2BC
:1006700033439A42A2F2334203DC5242FFF7C0FDF9
:1006800010BD904010BD00F0004230F000400AD094
:10069000C10D01F56071C0F3160042EA0151C208B4
:1006A00040071143704700200146704701F00043A6
:1006B00030B421F0004150EA010206D00A0DA2F543
:1006C0006072C1F31301002A02DC30BC00207047C5
:1006D000440F44EAC104C100E01830BC00EBC25032
:1006E00000F068B830B50B460146002020220124F6
:1006F00009E021FA02F59D4205D303FA02F5491BF0
:1007000004FA02F52844151EA2F10102F1DC30BD05
:100710002DE9F05F0546002092469B468846064636
:10072000814640241BE02846414647462246FFF7C3
:1007300067FD53465A46C01A914110D311461846D8
:10074000224600F016F82D1A67EB01084F462246A4
:100750000120002100F00DF817EB00094E41201E8A
:10076000A4F10104DFDC484631462A464346BDE891
:10077000F09F202A04DB203A00FA02F100207047A3
:100780009140C2F1200320FA03F3194390407047CF
:10079000202A06DBCB17203A41FA02F043EAE07345
:1007A00006E041FA02F3D040C2F120029140084332
:1007B000194670470029A8BF7047401C490008BF70
:1007C00020F00100704710B4B0FA80FC00FA0CF081
:1007D00050EA010404BF10BC704749B1CCF12004B9
:1007E00021FA04F411FA0CF118BF01212143084346
:1007F000A3EB0C01CB1D4FEA00614FEA102042BF72
:10080000002010BC704700EBC35010440029A4BF67
:1008100010BC7047401C490008BF20F0010010BC0C
:10082000704710B5141E73F1000408DA401C41F142
:10083000000192185B411A4301D120F0010010BD64
:100840002DE9F04D92469B4611B1B1FA81F202E0DA
:10085000B0FA80F220329046FFF78BFF04460F4635
:1008600040EA0A0041EA0B0153465A46084313D0B6
:10087000114653EA010019D0C8F140025046FFF773
:10088000BFFC05460E46504659464246FFF771FFEB
:10089000084305D0012004E020463946BDE8F08D2C
:1008A0000020054346EAE0762C4337430A98630567
:1008B000E40AA0EB08000022FD0A44EA47540A308B
:1008C00002D500200146E9E7010510196941DDE97B
:1008D000084500196941BDE8F04DA2E7C1F30A528D
:1008E000C1F3130140F2FF3341F480119A4202DA5E
:1008F00000200146704740F233439A42A2F233424D
:1009000002DC5242FFF77CBCFFF733BF30B5041E58
:1009100071F1000404DB4FF00044404264EB01013C
:10092000141E73F1000405DB1C464FF000435242D5
:1009300063EB0403994208BF904230BD064C074D5B
:1009400006E0E06840F0010394E80700984710349F
:10095000AC42F6D3FFF7F0FB1C3500083C3500082D
:10096000FEE70000014800F0EDB80000AC020020F6
:10097000014800F0E7B80000E0010020014800F065
:10098000E1B800009C010020014800F0DBB8000045
:1009900024020020014800F0D5B8000068020020C1
:1009A00030B590F840500124AC40C56B6C600468D1
:1009B00063604368102B036803D099600068C260CD
:1009C00030BD9A600068C16030BD7047704710B597
:1009D00090F821100022022905D00421816380F8BB
:1009E0002020012010BD01680B6823F00E030B606E
:1009F00001680B6823F001030B6090F84030C46B72
:100A0000012101FA03F3636080F8211080F82020AF
:100A1000104610BD2DE9F05F90F821100024022946
:100A200003D004218163012485E001680A6822F073
:100A30000E020A6001680A6822F001020A603F4E55
:100A40003E4FB215DFF8F4C0DFF8F090DFF8ECA00D
:100A5000DFF8E8B0DFF8E4E00168783F1301150241
:100A6000ACF1640CA9F15009AAF13C0AABF1280BD6
:100A7000AEF1140E4FF48018B14227D9B9420ED00E
:100A8000614512D049451DD0514518D0594518D05F
:100A9000714501D1424615E0294EB14201D10122F2
:100AA00010E0274E1436B14201D110220AE0244E44
:100AB0002836B14206D0224A3C32914201D11A4630
:100AC00000E02A461E49091F0A602BE0B94213D0F4
:100AD000614517D0494522D051451DD059451DD0FB
:100AE000714501D142461AE0B14202D14FF0807205
:100AF00015E0134EB14201D1012210E0104E143620
:100B0000B14201D110220AE00D4E2836B14206D082
:100B10000B4A3C32914201D11A4600E02A4607496D
:100B200080394A60012180F82110002180F82010CE
:100B3000416B01B188472046BDE8F09F800002402C
:100B4000080402402DE9F05FC16B0A6801680B6878
:100B5000046C4FF0040808FA04F8844D844E854F65
:100B6000DFF814C2DFF81492DFF814A2DFF814B231
:100B7000DFF814E218EA020F65D05FEA437862D525
:100B80000A68920603D40A6822F004020A60DFF8B9
:100B9000F0814FF48062016808F114081301140217
:100BA000414524D9A9420DD0B1420FD0B9421AD043
:100BB000614515D0494515D0514501D1120312E0C8
:100BC000594501D104220EE0714501D140220AE0CD
:100BD0006D4D1435A94206D06B4A2832914201D19D
:100BE0001A4600E022466749091F0A6029E0A94227
:100BF00013D0B14215D0B94220D061451BD0494530
:100C00001BD0514502D14FF4800217E0414502D17B
:100C10004FF0806212E0594501D104220EE0714587
:100C200001D140220AE0584D1435A94206D0564A57
:100C30002832914201D11A4600E022464B49083938
:100C40004A60C16A71E04FF0020808FA04F818EA35
:100C5000020F70D05FEA83786DD50A68920606D4D9
:100C60000A6822F00A020A60012180F82110DFF8E8
:100C700010814FF40072016808F114081301140286
:100C8000414524D9A9420DD0B1420FD0B9421AD062
:100C9000614515D0494515D0514501D1120312E0E7
:100CA000594501D102220EE0714501D120220AE00E
:100CB000354D1435A94206D0334A2832914201D12C
:100CC0001A4600E022462F49091F0A6029E0A9427E
:100CD00013D0B14215D0B94220D061451BD049454F
:100CE0001BD0514502D14FF4001217E0414502D10B
:100CF0004FF0007212E0594501D102220EE0714519
:100D000001D120220AE0204D1435A94206D01E4A06
:100D10002832914201D11A4600E02246134908398F
:100D20004A60002180F82010816A00291CD0BDE8AB
:100D3000F05F0847FFE70825A540154214D01A07C1
:100D400012D50A6822F00E020A6090F84020C36BA8
:100D5000012101FA02F25A60816380F8211000211A
:100D600080F82010016BE0E7BDE8F09F080002402A
:100D70001C00024030000240440002405800024083
:100D80006C000240080402401C04024030B560B10F
:100D90001A4B026814219A4209D2194B1344B3FB2F
:100DA000F1F18900016417490AE0012030BD134BBD
:100DB0005B421344B3FBF1F1890001640F49083928
:100DC000C163022180F82110136843F6F0718B4350
:100DD000F0E901142143D0E902452C432143046981
:100DE000214344692143846921431943116000214F
:100DF0004163012242770177084630BD0804024072
:100E0000F8FFFDBF0000024070B5044690F82000D6
:100E1000002501280CD0012084F8200094F82160DE
:100E20000020012E06D084F820000225284670BD3F
:100E3000022070BD022684F82160A0632068066845
:100E400026F0010606602046FFF7AAFDE06A0028AA
:100E50002068016802D041F00E0106E021F0040193
:100E600001602068016841F00A01016020680168A2
:100E700041F001010160D9E770B5044600F014F9B2
:100E80000546601C02D004480078044400F00CF9C8
:100E9000401BA042FAD370BD000000202DE9F84F9E
:100EA000DFF8C891002409F1040A0AF1040B234673
:100EB0000F270BF1040ED1E00125A54006EA05023B
:100EC000AA4276D1DFF8A8C14E68A6EB0C086645A9
:100ED0002BD00DDC032E34D005DC36B3012E19D017
:100EE000022E2FD11BE0112E16D0122E2AD119E07E
:100EF000B8F5881F19D006DCB8F5803F15D0B8F5D5
:100F0000801F1FD111E0B8F5001F0ED0B8F5041FE7
:100F100018D10AE0CB6815E0CB681B1D12E0CB6846
:100F200008330FE0CB680C330CE08B682BB1012B3E
:100F30004FF0080303D0456104E0042302E005619B
:100F400000E00023FF2A01D8064601E000F1040674
:100F50004FEA840501D9A5F12005D6F8008007FAEB
:100F600005FC28EA0C0803FA05F548EA0508C6F866
:100F700000804D68ED0070D53E4DAE6946F001062B
:100F8000AE61AD6924F0030605F0010500953A4D08
:100F900006EB050CDCF80850A607360F07FA06F832
:100FA00025EA0805DFF8D480404503D14FF000085A
:100FB00025E052E0DFF8C880404502D14FF001083B
:100FC0001DE0DFF8C080404502D14FF0020816E076
:100FD000DFF8B480404502D14FF003080FE0DFF89E
:100FE000AC80404502D14FF0040808E0DFF8A08053
:100FF000404502D14FF0050801E04FF0060808FA1D
:1010000006F848EA0508CCF808804D68D9F8006071
:10101000ED034D4601D5164300E096432E604D6822
:10102000DAF80060AD03554601D5164300E096435B
:101030002E604D68DBF80060ED025D4601D5164379
:1010400000E096432E604D68DEF80060AD02754604
:1010500001D5164300E096432E60641C0A681646CC
:10106000E2407FF429AFBDE8F88F000000040140A2
:101070000000111000100240000001400008014073
:10108000000C014000100140001401400018014014
:10109000001C01408068084000D0012070470AB160
:1010A000016170470904FBE7014880687047000050
:1010B0000000002002488168027811448160704776
:1010C00000000020074810B5016841F010010160E0
:1010D000032000F07BF80F2000F006F800F024F861
:1010E000002010BD0020024070B50D4D04464FF4A5
:1010F0007A712878B1FBF0F00A490968B1FBF0F089
:1011000000F0F2FA48B9102C07D200222146501EF6
:1011100000F03CF800206C6070BD012070BD000044
:10112000000000200C0000200F4808B5816941F044
:1011300001018161816901F001010091C16941F002
:101140008051C161C069002200F0805000900F21E1
:10115000901E00F01BF80548416821F0E06141F065
:101160000071416008BD0000001002400000014015
:10117000002809DB00F01F02012191404009800096
:1011800000F1E020C0F8001170470000F0B40E4BF1
:101190001B680C46C3F30223C3F10705042D00D9D5
:1011A0000425191D072901D2002300E0DB1E0126BA
:1011B00006FA05F1491E214099409E40761E1640D0
:1011C0003143F0BC01F098B90CED00E0064900F0A5
:1011D000070208684FF6FF03184040EA0220034A5E
:1011E00010430860704700000CED00E00000FA05B5
:1011F0002DE9F0470F46050061D0434E306800F0FE
:101200000700B84209D2306820F007003843306048
:10121000306800F00700B84251D128683B4C810784
:1012200012D5400703D5606840F4E060606028781C
:10123000000703D5606840F4605060606068A9688A
:1012400020F0F000084360602878C00728D0686864
:10125000012810D02168022810D0890700292EDA31
:10126000616821F0030101436160FFF71DFF8046C3
:1012700041F288390DE021688903EFE78901EDE744
:10128000FFF712FFA0EB0801494502D90320BDE892
:10129000F0876068696800F00C00B0EB810FEFD157
:1012A000306800F00700B8420BD9306820F0070022
:1012B00038433060306800F00700B84201D00120A8
:1012C000E5E72878400705D56068E96820F4E06024
:1012D000084360602878000706D56068296920F413
:1012E000605040EAC100606000F038F86168084A68
:1012F000C1F30311515CC840064908600648006804
:10130000FFF7F2FE0020C2E700200240001002407A
:10131000043500080C0000200400002004480549A2
:1013200000684968044AC1F30221515CC840704713
:101330000C00002000100240143500080448054944
:1013400000684968044AC1F3C221515CC840704733
:101350000C000020001002401435000812A185B0D6
:101360000FC98DE80F0014A0144A0068049051685A
:10137000134801F00C03042B10D0082B0ED1C1F33D
:101380008343C9031DF803000AD5516804AAC1F3B9
:101390004041515C0A4A5043B0FBF1F005B0704740
:1013A00008494843FAE70000020304050607080954
:1013B0000A0B0C0D0E0F101001020000001002406D
:1013C00000127A0000093D002DE9F84F040070D0AA
:1013D0002078C04DC00749D06868C0F3810001285B
:1013E00007D06868C0F38100022809D16868C0038B
:1013F00006D52868800339D560680028E7D035E035
:101400006068B0F5803F0BD010B1B0F5A02F11D0BF
:10141000286820F480302860286820F4802002E0CA
:10142000286840F480302860606890B1FFF73CFE87
:1014300006460AE0286840F480202860F0E700BFF4
:10144000FFF732FE801B642873D828688003F7D525
:101450000CE0FFF729FE064605E000BFFFF724FE7B
:10146000801B6428F0D828688003F7D420789A4E2F
:1014700080074FF001094FF0000839D5686810F077
:101480000C0F07D06868C0F38100022809D1686892
:10149000C00306D42868800714D52069012808D124
:1014A00010E02069B0B1C6F80090FFF7FDFD0746D7
:1014B00005E00AE1FFF7F8FDC01B0228C4D8286840
:1014C0008007F7D52868616920F0F80040EAC1007C
:1014D00028600DE0C6F80080FFF7E6FD074604E04F
:1014E000FFF7E2FDC01B022823D828688007F7D445
:1014F000207800072CD57948A169D9B1C0F80090AF
:10150000FFF7D2FD074604E0FFF7CEFDC01B02281F
:101510000FD8686A8007F7D571484FF4FA51006810
:10152000B0FBF1F0009000BF0098411E0091FAD28C
:101530000EE080E0C0F80080FFF7B6FD074604E04B
:10154000FFF7B2FDC01B022875D8686A8007F7D480
:101550002078400760D5E8690027C00008D4E86912
:1015600040F08050E861E869012700F08050009069
:101570005C480168C90513D40168834641F4807151
:101580000160FFF791FD824606E000BFFFF78CFD8A
:10159000A0EB0A0064284ED8DBF80000C005F5D5A2
:1015A000E06801280AD008B1052813D0286A20F085
:1015B00001002862286A20F0040002E0286A40F056
:1015C00001002862E06841F2883B98B1FFF76CFDAA
:1015D00082460BE0286A40F004002862EEE700BF74
:1015E000FFF762FDA0EB0A0159455AD8286A800727
:1015F000F6D50CE0FFF758FD824605E0FFF754FDF5
:10160000A0EB0A0159454CD8286A8007F6D41FB1CF
:10161000E86920F08050E861E06988B36968C1F347
:101620008101022944D00228C6F8608004D0FFF767
:101630003BFD044638E034E0FFF736FD074604E0A2
:10164000FFF732FDC01B02282BD828688001F7D491
:10165000206AB0F5803F05D16868A16820F40030A9
:1016600008436860D4E908010843696821F47411EB
:1016700008436860C6F86090FFF716FD044606E070
:1016800025E000BFFFF710FD001B022809D82868DD
:101690008001F7D51BE000BFFFF706FD001B022805
:1016A00002D90320BDE8F88F28688001F4D40EE049
:1016B0000128F7D06868226A00F48031914204D191
:1016C000616A00F47010884201D00120EAE700202E
:1016D000E8E700000010024000004242800442425D
:1016E0000C0000200070004010B5401EB0F1807F5B
:1016F00001D3012010BD4FF0E02460610F2160177D
:1017000000F0FAFE0020A06107202061002010BD3B
:1017100010B504460068416994F83920C1F3C0113E
:10172000212A0BD151B1416921F080014161206B27
:1017300008B1FFF74CF9204600F0E6FC206841694B
:1017400094F83A20C1F38011222A0BD151B141699A
:1017500021F040014161606B08B1FFF738F9204684
:1017600000F0C4FC002010BD7047000070B5026896
:1017700004461068D168536910F00F0F50D003F081
:10178000010501F4907635435DD0C20705D0CA0546
:1017900003D5E26B42F00102E263420705D5DA07A6
:1017A00003D0E26B42F00202E263820705D5DA075A
:1017B00003D0E26B42F00402E263020705D5DA07C8
:1017C00003D0E26B42F00802E263E26B002A33D0FE
:1017D000800604D5880602D5204600F09EFC2068CD
:1017E0004069E16BC0F38010090700D428B320469C
:1017F00000F07CFC2068416949061AD5416921F056
:1018000040014161606BA0B11B494163606BFFF710
:1018100001F9002810D0606B416BBDE870400847AB
:10182000830610D58B060ED52046BDE8704000F02B
:1018300074BC2046FFF798FF70BD2046FFF794FF69
:101840000020E06370BD030606D50B0604D52046D4
:10185000BDE8704000F008BD4006F3D54806F1D55C
:10186000D168204621F04001D160202184F8391050
:1018700000F067FA70BD00004D20000870B504004C
:1018800004D094F83900002510B106E0012070BDA5
:1018900084F83850204600F023F8242084F83900DA
:1018A0002068C16821F40051C160204600F080FC2E
:1018B0002068016921F4904101612068416921F0AB
:1018C0002A0141612068C16841F40051C160E563AB
:1018D000202084F8390084F83A00002070BD000010
:1018E0002DE9F04F85B000240094019402940394F4
:1018F0000546B14ED0F800C0B04802210322B04BDB
:101900004FF480694FF4006AB4451DD1C56945F4B0
:101910000025C561C56905F400250495856945F074
:10192000100585618069CDE9009100F01000CDE9D6
:10193000032069461D461846FFF7B0FACDE900A41A
:1019400069462846029429E09E4F4FF0040BBE14CE
:10195000BC4528D1C56945F48015C561C56905F444
:1019600080150495856945F010058561856905F048
:1019700010050495856945F0200585618069CDE9EC
:10198000006100F02000CDE9032069461846FFF70A
:1019900085FACDE900B469468B480294FFF77EFAD8
:1019A00005B0BDE8F08FDFF82482894B8027C4455D
:1019B0005AD1D0F818C04CF4804CC0F818C0D0F8F8
:1019C00018C00CF4804CCDF810C0D0F818C04CF002
:1019D000040CC0F818C08069039200F00400049061
:1019E0005815CDE90001694698461846FFF756FAA2
:1019F000CDE90094694640460294FFF74FFADFF8BC
:101A0000D88174494046B946C0E90014C0E902478C
:101A1000C8F81040C8F81440C8E90646FFF7B6F900
:101A200008B1FEF7D3FF6C4F6A48C5F834804437DD
:101A30001438C8F8245001C71020A7E811026648DE
:101A400047F8104944307C61C7E90646FFF79EF924
:101A500008B1FEF7BBFF2F630022114625207D62EF
:101A6000FFF794FB252061E0DFF87081C44560D169
:101A7000D0F81CC04CF4003CC0F81CC0D0F81CC00E
:101A80000CF4003CCDF810C0D0F818C04CF0040C99
:101A9000C0F818C08069CDE900B100F00400CDE9BC
:101AA0000320694698461846FFF7F8F90820CDE963
:101AB0000004A146694640460294FFF7EFF9DFF8BB
:101AC0001881444908F1880840461431C0E90014DF
:101AD000C0E90247C8F81040C8F81440C8E90646F3
:101AE000FFF754F908B1FEF771FF3B4C3948C5F8D0
:101AF0003480CC342830C8F8245020601020606036
:101B0000C4E90297C4F81090C4F81490C4E906968A
:101B10002046FFF73BF908B1FEF758FF2C6300227F
:101B2000114626206562FFF731FB2620FFF720FBD8
:101B300036E72B4B9C45FBD1C36943F48023C3613B
:101B4000C36903F480230493836943F0080383612A
:101B50008069CDE9009100F00800CDE90320DFF8AD
:101B6000848069464046FFF799F9CDE900A46946AB
:101B700040460294FFF792F9DFF86C801549404621
:101B80002839C0E90014C0E90247C8F81040C8F875
:101B90001440C8E90646FFF7F9F808B1FEF716FF4A
:101BA000C5F83480002211462720C8F82450FFF7DA
:101BB000EDFA2720BAE70000004C00400010024078
:101BC0000010014000500040001401400038014066
:101BD00000080140580002409C01002000440040E1
:101BE00000480040000C0140AC020020F8B504465B
:101BF00090F83A0020283CD1C1B3BAB394F8380029
:101C0000012836D0012084F83800A162A285002581
:101C1000E563222084F83A00636B17489862636B8F
:101C20001648D862636B16481863606B13464563A9
:101C30000846666B216802463046091DFFF7E4F846
:101C4000206801684168009184F83850C16841F407
:101C50008071C1602068416941F0010141612068E3
:101C6000416941F0400141610020F8BDFFE70120DA
:101C7000FBE70220F9E70000A7200008E3200008A6
:101C80005D200008704770472DE9F843044690F83E
:101C900039001F4616460D46202850D1A5B19EB1E9
:101CA00094F8380001284AD0012084F838004FF019
:101CB0000008C4F83C80212084F83900FFF7F4F9CB
:101CC000A6848146E68426E00120BDE8F883E08C06
:101CD000401EE084A0684B46B0F5805F4FF00002E4
:101CE0004FF080012046009703D000F0EEFAE8B9EB
:101CF0000DE000F0EAFAC8B928882168C0F30800AE
:101D00004860206908B16D1C05E0AD1C03E0216846
:101D100015F8010B4860E08C0028D8D14B46002212
:101D200040212046009700F0D0FA08B10320CCE70C
:101D3000202084F8390084F838800020C5E702208C
:101D4000C3E77047FEE70000194808B5416941F054
:101D5000010141614069002200F00100009005216D
:101D60000D20FFF713FA0D20FFF702FA00220521DC
:101D70000E20FFF70BFA0E20FFF7FAF900220521DB
:101D80000F20FFF703FA0F20FFF7F2F900220521D9
:101D90001020FFF7FBF91020FFF7EAF900220521D8
:101DA0001120FFF7F3F9BDE808401120FFF7E0B973
:101DB000001002402DE9F04186B000242D48009427
:101DC000019402940394816941F010018161816959
:101DD00001F010010491816941F020018161816964
:101DE00001F020010491816941F004018161816960
:101DF00001F004010491816941F008018161806969
:101E00001D4F00F0080042F202050490002229460E
:101E10003846FFF744F9DFF86480012244F20501F7
:101E20004046FFF73CF900224FF400414046FFF7DF
:101E300036F90095022601250396CDE9015469463D
:101E40003846FFF72BF80520CDE900050320CDE942
:101E5000024069464046FFF721F84FF44040CDE983
:101E60000005CDE9024669464046FFF717F806B07F
:101E7000BDE8F0810010024000100140000C01405C
:101E80000C4810B50A4901604FF4E131416000216E
:101E900081600C22C160C0E904128161C161FFF759
:101EA000EDFC002803D0BDE81040FEF78FBD10BD4B
:101EB000004C00405C0000200C4810B50A4901604D
:101EC0004FF4E1314160002181600C22C160C0E922
:101ED00004128161C161FFF7D1FC002803D0BDE885
:101EE0001040FEF773BD10BD005000409C00002064
:101EF0000C4810B50A4901604FF4E13141600021FE
:101F000081600C22C160C0E904128161C161FFF7E8
:101F1000B5FC002803D0BDE81040FEF757BD10BD4A
:101F200000380140DC0000200C4810B50A4901606F
:101F30004FF4E1314160002181600C22C160C0E9B1
:101F400004128161C161FFF799FC002803D0BDE84C
:101F50001040FEF73BBD10BD004400401C010020B6
:101F60000C4810B50A4901604FF4E131416000218D
:101F700081600C22C160C0E904128161C161FFF778
:101F80007DFC002803D0BDE81040FEF71FBD10BD4A
:101F9000004800405C010020FEE7704710B5FFF7E5
:101FA00089F801F03DFA012803D0BDE8104001F0A6
:101FB00021BA10BD30B58FB028216846FEF737F939
:101FC00014210AA8FEF733F901210804CDE9001015
:101FD0000024029402250491CDE907504FF4E0104B
:101FE00009906846FFF7F0F90F20CDE90A0568026D
:101FF000CDE90C4002210AA80E94FFF7F9F80FB0C2
:1020000030BD00000D48016841F0010101604168E8
:102010000B4A1140416001680A4A114001600168A1
:1020200021F480210160416821F4FE0141604FF4F8
:102030001F0181600449C00308607047001002401E
:102040000000FFF8FFFFF6FE08ED00E010B5406A63
:102050000021C185C184FFF787FB10BD70B5446ABC
:102060002068406994F83910C0F3C0100025212978
:1020700004D118B1E584204600F046F82068406994
:1020800094F83A10C0F38010222904D118B1E585E4
:10209000204600F02BF8E06B40F01000E063204693
:1020A000FFF762FB70BD10B50146406A0968096818
:1020B000890613D40021C1850168CA6822F48072A0
:1020C000CA6001684A6922F001024A6101684A69EE
:1020D00022F040024A61202180F83A10FFF7D2FD39
:1020E00010BD10B5406AFFF7CEFD10BD0168CA688B
:1020F00022F49072CA6001684A6922F001024A61C2
:10210000202180F83A1070470168CA6822F0C002A6
:10211000CA60202180F83910704710B590F83A1045
:10212000222901D0022010BD8168B1F5805F11D055
:102130000169002901681FD0496801F07F03816AA5
:102140004A1C82620B70C18D491E0904090CC185AD
:1021500018D02BE00269816A002A0268526805D013
:10216000D2B20A80816A491C8162ECE7C2F308029C
:102170000A80816A891CF7E74A68816A4B1C83627E
:102180000A70E0E70168CA6822F02002CA600168AC
:10219000CA6822F48072CA6001684A6922F00102AA
:1021A0004A61202180F83A10FFF76CFD002010BD35
:1021B0002DE9F041044600680169E26821F44051CC
:1021C000114301612169A0680843616908432168DE
:1021D000CA6841F20C639A430243CA6020684169AD
:1021E000A26921F44071114341611E4920686425B0
:1021F0003226884202D1FFF7A1F801E0FFF78EF8FE
:1022000000EBC00101EB001160686FF0180780005F
:10221000B1FBF0F2B2FBF5F2B1FBF0F37A4303EB62
:102220008202B1FBF0F306EB0212B2FBF5F2B3FB54
:10223000F5F302F0F00202EB0312B1FBF0F3B1FB95
:10224000F0F0B0FBF5F0784303EB800006EB0010F4
:10225000B0FBF5F0216800F00F0010448860BDE885
:10226000F08100000038014090F83910212901D098
:10227000022070478168B1F5805F016A0BD04A1C6B
:102280000262026809785160C18C491E0904090C78
:10229000C1840ED017E009880268C1F308015160BB
:1022A00001690029016A02D0491C0162ECE7891C1E
:1022B000FBE70168CA6822F08002CA600068C16852
:1022C00041F04001C160002070472DE9F04198467F
:1022D00017460E460446069D1DE0681C1BD02DB116
:1022E000FEF7E2FEA0EB0800A84214D92068C168FE
:1022F00021F4D071C1602068416921F00101416180
:10230000202084F8390084F83A00002084F838004E
:102310000320BDE8F0812068006836EA000004D0A0
:102320000020B842D9D00020F3E70120F9E70000EF
:102330002DE9FF5F5C4800680168C1F300110029C6
:102340007ED001684FF00009406800905648FFF7C2
:10235000DFF9564800684068DFF85481554CC0F1F9
:10236000C80088F80000207855286AD10021084666
:10237000225C401C1144C9B20A28F9DB4D4DA07AF9
:10238000C8356FF00E06884223D16078512820D1DD
:10239000B4F902000001FEF74CF93246FEF732F9BB
:1023A000FEF784F9E860B4F904000001FEF741F992
:1023B0003246FEF727F9FEF779F92861B4F90600ED
:1023C0000001FEF736F93246FEF71CF9FEF76EF90A
:1023D000686100211620225C401C1144C9B22028EB
:1023E000F9DB94F82000884251D1E07D53284ED18A
:1023F000B4F91800FEF71DF92F4F00223B46FEF7F7
:1024000020F83246FEF7FEF8FEF750F98346686082
:10241000B4F91A00FEF70DF900223B46FEF711F859
:102420003246FEF7EFF8FEF741F98246A860B4F9AC
:102430001C00FEF7FEF800223B46FEF702F801E022
:1024400027E024E03246FEF7DDF8FEF72FF91B49BE
:102450002860884202DDFDF747FF04E010F1FF4FDE
:1024600002D3FDF7EFFE2860FEF70DF906460F4692
:102470005046FEF708F904460D465846FEF703F9A4
:102480008DE8F00002460B460DA000F025F888F814
:102490000090C82207490448FFF7A8FB04B002488F
:1024A000BDE8F05FFFF762B95C010020AC020020DC
:1024B00018000020F0020020008066400000B443B5
:1024C000696D75203A256620202566202025660D39
:1024D0000A000000FEE700000FB4054B10B503A989
:1024E000044A029800F0EAF810BC5DF814FB000002
:1024F000252F0008580000200907090E002804DBDA
:1025000000F1E02080F80014704700F00F0000F1A7
:10251000E02080F8141D704702E008C8121F08C1AF
:10252000002AFAD170477047002001E001C1121F54
:10253000002AFBD1704700002DE9FF5F82B0002127
:10254000DDE90430020DDDF840B0034318D044F655
:102550001050A2F2FF3242431514119801281FD0E7
:10256000A5EB0B00401C5FEA000A4FF000064E4F3F
:10257000DFF83891B046504615D5CAF1000413E093
:10258000119801244AA3012801D16FEA0B01029896
:10259000119AC0E90031C0E9024206B0BDE8F09FDF
:1025A000CBF10000DFE704460021404A491842EB26
:1025B0000450CDE9001012E0E00707D032463B4658
:1025C00040464946FDF73DFF8046894632463B4638
:1025D00010461946FDF735FF06460F466410002CDD
:1025E000EAD1DDE90401DDE90023BAF1000F06DAE2
:1025F000FDF727FF42464B46FDF723FF05E0FDF7B9
:1026000092FF42464B46FDF78EFF04460E460022DF
:10261000284BFEF77BF903D84FF0FF30014607E067
:102620000022254B20463146FDF764FEFEF756F9A1
:10263000102409E0002C0ADB0A220023FEF768F8C8
:10264000039B30321A55641E50EA0102F2D1641C19
:10265000039AC4F111031444119A012A03D00122F0
:1026600008430DD10AE0084304D000204FF0110BBD
:10267000119072E7A3EB0B056D1E0DE05B4504DDC9
:102680004FF0000205F1010504E003DA4FF000020B
:10269000A5F10105002AECD002981199C0E9023198
:1026A000C0E9004579E70000000014400000F03F59
:1026B000300000000000F0430000E03F2DE9FF4F34
:1026C00095B09B468946064600250FE2252877D11E
:1026D00000242746F84A0121059400E0044316F837
:1026E000013F203B01FA03F01042F7D130782A284D
:1026F00011D06FF02F033078A0F13002092A16D8DC
:10270000059A44F0020402EB820203EB42021044F9
:10271000761C0590EFE759F8042B0592002A03DA9E
:10272000504244F40054059044F00204761C307882
:102730002E2816D116F8010F44F004042A280DD0D3
:102740006FF02F023078A0F13003092B09D807EB86
:10275000870302EB4303C718761CF3E759F8047BA1
:10276000761C30786C280FD006DC4C2817D06828EF
:102770000DD06A2814D104E0742810D07A280FD123
:102780000DE044F400140AE044F4801401E044F441
:1027900040147278824202D104F58014761C761CB3
:1027A000307866280BD013DC582877D009DC002855
:1027B00075D04528F6D04628F4D047281AD19DE197
:1027C00018E0632835D0642879D0652812D195E1C6
:1027D000702873D008DC6728F1D069286FD06E2884
:1027E0000DD06F2806D1B5E073282CD0752875D090
:1027F000782874D05A46179990476D1C75E1C4F338
:102800000250022809D003280DD0D9F8001004285E
:102810000DD00D6009F1040967E1D9F80010EA173D
:10282000C1E90052F6E7D9F800100D80F2E70D700B
:10283000F0E719F8041B8DF8001000208DF8010056
:10284000EA46012003E059F804AB4FF0FF3061077E
:102850004FF0000102D40DE008F101018846B942B1
:102860000FDA8045F8DB1AF808100029F4D108E0E7
:1028700008F1010188468142FADB1AF808100029A4
:10288000F6D105985B46A0EB080721463846179A13
:1028900000F094FA284400EB080507E04DE029E138
:1028A0000DE01AF8010B5A4617999047B8F1010844
:1028B000F7D25B4621463846179A13E142E00A22D6
:1028C0000092C4F302524FF0000A022A08D059F8CD
:1028D00004CB032A4FEAEC710AD00DE029E02AE08C
:1028E00009F1070121F00702F2E802C1914609E06F
:1028F0000FFA8CFC4FEAEC71042A03D14FFA8CFCDE
:102900004FEAEC71002907DA0A460021DCF1000CDD
:1029100061EB02012D2202E0220504D52B228DF865
:102920000420012203E0E20701D02022F7E79046CD
:1029300059E00A2102E010220DE010214FF0000AB8
:1029400000910BE010224FF0000A44F00404082725
:10295000009203E008224FF0000A0092C4F30252F2
:10296000022A05D059F804CB0021032A08D009E037
:1029700009F1070121F00702F2E802C1914605E0E2
:102980001FFA8CFC042A01D10CF0FF0C4FF0000858
:10299000220728D5702806D0009B83F0100353EA45
:1029A0000A0305D00EE040228DF80420012208E041
:1029B0005CEA010206D030228DF804208DF8050073
:1029C00002229046009B83F0080353EA0A030AD1CF
:1029D0005CEA010201D1620705D530228DF804209E
:1029E0004FF001087F1E582804D034A003900EA891
:1029F00002900DE036A0F9E753466046009AFDF7D5
:102A000087FE84460398825C0298401E0290027002
:102A10005CEA0100F0D1029806A9081A00F1200A28
:102A2000600702D524F4803400E00127574502DD19
:102A3000A7EB0A0000E0002000EB0A0100900598D7
:102A40004144401A0590E00306D45B462146179A9C
:102A5000059800F0B3F90544002706E001A85A469E
:102A6000C05D179990476D1C7F1C4745F6DBE0035E
:102A70000CD55B462146179A059800F09FF905444E
:102A800004E030205A46179990476D1C0099481E63
:102A900000900029F5DC08E0029802995A46007877
:102AA000491C0291179990476D1CBAF10001AAF1D7
:102AB000010AF1DC65E10000092801003031323300
:102AC000343536373839616263646566000000006A
:102AD0003031323334353637383941424344454654
:102AE0000000000000F058F90544761C30780028FA
:102AF0007FF4ECAD19B02846BDE8F08F620700D432
:102B0000062709F1070222F0070CFCE80223E14640
:102B100003F000485FEA080C02D00FF2702C0DE0C1
:102B20005FEA045C02D50FF2682C07E05FEAC47C20
:102B300002D00FF2602C01E0AFF2700C4FF0FF38C2
:102B400023F00043CDF850C065280CD006DC4528A2
:102B500009D046281DD047283DD13DE0662818D031
:102B600067287ED138E00021112F01DB112000E021
:102B7000781CCDE9000106A90EA8FFF7DDFCDDE910
:102B80000F010E9A03910021009207F1010A0491AE
:102B90004DE04FF000400097CDE9011006A90EA8C6
:102BA000FFF7CAFCDDE90F0203920E9B1199002288
:102BB000DDF80CA00093049211B9791C00EB010A16
:102BC000B7EB0A0004D4C0F1FF3007F1010A04900A
:102BD000AAEB0700019044E0012F00DA0127002151
:102BE000112F01DD112000E03846CDE9000106A9D2
:102BF0000EA8FFF7A1FCDDE90F010E9A0391002159
:102C000004910092BA4621070CD40399514500DA89
:102C10008A46BAF1010F05DD009AAAF10101515C63
:102C2000302908D0B84202DA10F1040F06DA012187
:102C3000CDE9011015E0AAF10101E9E7002805DC62
:102C4000049901440491AAEB000102E0411C5145A2
:102C500000DD8A460499401A401C01904FF0004064
:102C60000290200704D40198504501DBCDF8048080
:102C700000208DF84F0002980DF14F07B0F1004F82
:102C800025D02B200E9002984FF0020800280CDA75
:102C9000404202902D200E9007E00A210298FDF795
:102CA00021FD3031029007F8011DB8F10001A8F1B3
:102CB0000108F2DC02980028EFD1791E0E98087006
:102CC000307800F0200040F0450007F8020D12A80F
:102CD000C01B00F107081498007800B1012000EB38
:102CE0000A01019801EBE07105984144401A401E29
:102CF0000590E00306D45B462146179A059800F03C
:102D00005DF805441498007818B15A461799904711
:102D10006D1CE00324D55B462146179A059800F008
:102D20004DF805441CE00498002807DBDDE90301A9
:102D3000884203DD0098405C179901E01799302024
:102D40005A469047049805F10105401C04900198EB
:102D5000401E019004D12E205A46179990476D1CB1
:102D6000BAF10001AAF1010ADDDC05E017F8010B58
:102D70005A46179990476D1CB8F10001A8F1010857
:102D8000F4DC5B462146179A0598ABE62D0000005F
:102D90002B000000200000002DE9F0410446002532
:102DA0001E461746880404D405E039462020B04763
:102DB0006D1C641EF9D52846BDE8F0812DE9F0416F
:102DC000044600251E469046C80301D5302700E082
:102DD0002027880404D505E041463846B0476D1CDD
:102DE000641EF9D52846BDE8F08100000648016858
:102DF0000648B1FBF0F2064802704FF47A72B1FB5C
:102E0000F2F14160704700000C00002080841E0039
:102E10001000002070B54FF0E024002265690949D8
:102E2000A36909784843A1699942FCD002D2A3EB77
:102E3000010302E0A5EB010633441A440B4682422B
:102E4000F1D370BD100000202DE9F041C1F30A520A
:102E5000A2F2FF362F4A304B0D460446142E2FDACD
:102E6000002E12DAFDF746FA00221346FDF74EFD5A
:102E70004CD2002DA4BF0024254647DA25F000409F
:102E8000204318BF254D41D018E0DFF894C02CFA3C
:102E900006F705EA070C5CEA040C08BFBDE8F08100
:102EA000FDF728FA00221346FDF730FD2ED2002D43
:102EB00003DA4FF48010F0400544BD43002425E0C0
:102EC000332EC8BFBDE8F081A6F1140C4FF0FF37D8
:102ED00027FA0CF73C4208BFBDE8F081FDF7AEFAD7
:102EE00000221346FDF712FD10D2002D0DDA142E2C
:102EF00008BF6D1C09D0C6F13400012101FA00F0B1
:102F00002044A04238BF6D1C0446BC4329462046DD
:102F1000BDE8F0819C7500883CE4377E0000F0BF7E
:102F2000FFFF0F0013B54FF6FF73012269460248F9
:102F3000FEF7AAFE00981CBDDC00002010B5124C64
:102F4000002204212046FEF7AAF8206820F00F0096
:102F50002060206840F0030020600022012120460C
:102F6000FEF79DF80220FFF755FF012204212046BD
:102F7000FEF795F80220FFF74DFF20460022BDE83E
:102F800010400421FEF78BB8000C014010B5124C24
:102F9000002204212046FEF782F8206820F00F006E
:102FA0002060206840F00300206001221146204686
:102FB000FEF775F80220FFF72DFF012204212046BD
:102FC000FEF76DF80220FFF725FF20460022BDE83E
:102FD00010400421FEF763B8000C01402DE9F041D8
:102FE000184C07460025206820F00F00206020685C
:102FF00040F0080020602E46002204212046FEF703
:103000004EF80220FFF706FF012204212046FEF7BA
:1030100046F86806050E01212046FEF73BF808B188
:103020006D1CEDB20120FFF7F5FE761CF6B2082EFE
:10303000E2D327B1FFF782FF2846BDE8F081FFF712
:10304000A5FFF9E7000C014070B5174E0546304664
:10305000316821F00F013160316841F003013160C6
:1030600000220421FEF71BF80024EA090121304662
:10307000FEF715F86806050E0220FFF7CBFE0122C9
:1030800004213046FEF70BF80220FFF7C3FE0022B2
:1030900004213046FEF703F80220FFF7BBFE641C54
:1030A000E4B2082CE1D370BD000C014010B5124C05
:1030B000206820F00F002060206840F003002060AE
:1030C000012211462046FDF7EAFF01220421204695
:1030D000FDF7E5FF0420FFF79DFE002201212046B9
:1030E000FDF7DDFF0420FFF795FE20460022BDE836
:1030F00010400421FDF7D3BF000C014010B5124C65
:10310000206820F00F002060206840F0030020605D
:10311000002204212046FDF7C2FF002201212046A3
:10312000FDF7BDFF0420FFF775FE012204212046B4
:10313000FDF7B5FF012211462046FDF7B0FFBDE8BF
:1031400010400420FFF766BE000C014070B5184C1B
:103150000025206820F00F002060206840F0080063
:103160002060012211462046FDF799FF0120FFF75C
:1031700051FE012204212046FDF791FF0120FFF7B7
:1031800049FE07E06D1CEDB2FA2D03D9FFF7B6FF3B
:10319000012070BD01212046FDF77CFF0028F1D100
:1031A000002204212046FDF77AFF002070BD0000B8
:1031B000000C014005480068C16841F01001C16081
:1031C000C82203490148FEF711BD00005C01002040
:1031D000F0020020FDF776FFFEF7ECFEFEF7EAFDB9
:1031E000FEF7B2FDFEF7A0FEFEF7BAFEFEF748FEC0
:1031F000FEF762FEFEF77CFEFFF7F8FD5A2103485A
:1032000000F006F8FFF7D6FFFEE700000000484296
:1032100010B504460021084600F076F8204600F07C
:1032200023F8BDE810404FF4FA70FDF725BE10B545
:103230000446FFF73BFF8020FFF706FFFFF786FFFE
:103240002046FFF701FFFFF781FFFFF72FFF8120E7
:10325000FFF7FAFEFFF77AFF0020FFF7BFFE0446F4
:10326000FFF74CFF204610BD70B5FDF70CFA214A60
:10327000214BFDF7E6F8FDF719FA06466FF00B0251
:1032800000201E49FDF7BEF904460D463046FDF705
:10329000FAF902460B4620462946FDF744F900227A
:1032A000174BFDF7C8F80022164BFDF723F8FFF780
:1032B000CBFDFDF7CFF9C5B20020FFF7B8FF0446FC
:1032C00000F07F0040F01001002000F01DF82946BA
:1032D000FE2000F019F82146002000F015F8022029
:1032E000FDF7CAFD44F0A101BDE87040002000F0E8
:1032F0000BB80000713D0AD7A370ED3F84D777412A
:103300000000F03F0000E03F70B50D460446FFF7B7
:10331000CDFE8020FFF798FEFFF718FF2046FFF74D
:1033200093FEFFF713FF2846FFF78EFEFFF70EFF11
:10333000BDE87040FFF7E2BE06484168096829B160
:103340004168C968C9684968016370474FF0FF3137
:10335000FAE700001C000020D0E9013201699A6000
:10336000D0E901235A604A68824201D182684A60EA
:10337000002202610868401E0860086870474268C1
:103380004A6093688B609368596091600861016836
:10339000491C0160704700001448816B11B1012184
:1033A00041627047002141628169B1FA81F1C1F146
:1033B0001F0101EB81020E4951F822306BB101EB84
:1033C000820101F108034A6852684A609A4201D1B9
:1033D00052684A60D16801607047502080F31188BC
:1033E000BFF34F8FBFF36F8FFEE700001C0000207C
:1033F000D403002010B5502080F31188BFF34F8F05
:10340000BFF36F8F00F01AF818B104494FF08050E5
:103410000860002080F3118810BD000004ED00E07A
:103420000548C16919B1806B18B1002070470120AF
:1034300070470220704700001C0000202DE9F04179
:103440002E4C0027A06B40B1206A401C2062606AAD
:1034500000B101273846BDE8F0816669761C6661D7
:1034600013D16068006838B1502080F31188BFF331
:103470004F8FBFF36F8FFEE76068A1686160A06047
:10348000A06A401CA062FFF757FF206BDFF8708036
:10349000864209D36068006880B16068C068C5680A
:1034A000686886420DD220632068C06A00EB800104
:1034B00058F821000128CAD90127C8E74FF0FF308A
:1034C000F1E7281DFFF748FFA86A18B105F11800B9
:1034D000FFF742FFE86A0121A26981401143A1611F
:1034E00000EB800108EB8100291DFFF748FFE86A27
:1034F0002168C96A8842CDD30127CBE71C00002090
:10350000D4030020000000000000000001020304BA
:103510000607080900000000010203043C3500080A
:10352000000000205C000000182500089835000805
:103530005C0000206C080000282500080100000045
:1035400010000000000000000024F4000000000053
:10355000000000000000000000000000000000006B
:10356000000000000000000000000000000000005B
:10357000000000000000000000000000000000004B
:10358000000000000000000000000000000000003B
:08359000000000000000000033
:0400000508000131BD
:00000001FF
