:020000040800F2
:100000005008002045010008A1240008B11E000886
:100010004D240008C90800085D2C000800000000FD
:100020000000000000000000000000005701000870
:10003000FB080008000000005B010008A324000882
:100040005F0100085F0100085F0100085F01000810
:100050005F0100085F0100085F0100085F01000800
:100060005F0100085F0100085F0100085F010008F0
:100070005F010008CB0800085F0100085F0100086D
:10008000CD080008CF0800085F0100085F010008E4
:100090005F0100085F0100085F0100085F010008C0
:1000A0005F0100085F0100085F0100085F010008B0
:1000B0005F0100085F0100085F0100085F010008A0
:1000C0005F0100085F0100085F0100085F01000890
:1000D0005F0100085F0100085F010008B92A0008FD
:1000E0005F0100085F0100085F0100085F01000870
:1000F0005F0100085F0100085F0100085F01000860
:100100005F0100085F0100085F0100085F0100084F
:100110005F0100085F0100085F0100085F0100083F
:100120005F0100085F0100085F0100085F0100082F
:10013000DFF80CD000F0B6FB004800475D3900083E
:10014000500800200648804706480047FEE7FEE7C3
:10015000FEE7FEE7FEE7FEE7FEE7FEE7FEE7FEE777
:10016000F524000831010008202A04DB203A21FA96
:1001700002F00021704721FA02F3D040C2F12002C0
:100180009140084319467047D2B201E000F8012BB4
:10019000491EFBD270470022F6E710B513460A4607
:1001A00004461946FFF7F0FF204610BDF0B480EA80
:1001B0000102D40F4200B2EB410F02D202460846C0
:1001C00011464A0042D0C30DDDB2C1F3C752AD1A89
:1001D000202D35DAC1F3160141F4000204B1524278
:1001E000C5F1200602FA06F12A411044B3EBD05FB4
:1001F00023D0C4B1012DA0EBC35009DCF0BC4FF0FB
:10020000004202EAC352DBB200F5000000F08FBAF0
:10021000400000F1807000EBC350A0F1807040EA14
:10022000D170490009E0490841EAC071A0EBC35010
:1002300000F50000400800EBC350F0BC00F06EBABF
:100240006142012202EB4101001BF6E7F0BC70475E
:1002500081F00041AAE780F00040A7E72DE9FE4FBA
:10026000804681EA0300C00F0C46009021F0004157
:1002700023F00045B8EB0200A94105D240462146D3
:1002800090461C460B46024623F00040104347D0E0
:10029000270DC7F30A00C3F30A510290401A0190D8
:1002A00040286BDAC3F3130040F4801B0098924699
:1002B00020B10023D2EB030A63EB0B0B01985946E4
:1002C000C0F14002504600F008FA06460D4650467E
:1002D0005946019A00F010FA10EB08006141002421
:1002E00087EA115284EAE7731A4340D0009A62B356
:1002F000019A012A4FEA075215DC001B61EB02014B
:100300004FF0004202EA0752CDE90042001C41F5DD
:10031000801132462B4600F047FA03B0BDE8F08F5B
:1003200040462146F9E7001B61EB0201001C41F544
:10033000801300185B412018A2F5001747EB03015A
:1003400040EAD570B6196D4111E06D084FEA3606E6
:1003500045EAC0754FEA0752001B61EB0201001C21
:1003600041F5801149084FEA3000001951413246E9
:100370002B4603B0BDE8F04F00F007BA0098012209
:1003800040000023D0EB020263EBE07300982146AB
:100390004FEAE074B8EB000061EB0401E9E783F099
:1003A00000435BE781F0004158E72DE9FE4F81EA09
:1003B000030404F0004421F0004100944FF0000BCE
:1003C00023F0004350EA01045ED052EA03045BD0FC
:1003D000C3F30A54C1F30A552C44A4F2F334019434
:1003E000A0FB0254C1F3130141F48011C3F31303C2
:1003F00043F4801301FB024400FB034E840A970A76
:1004000044EA815447EA8357A4FB076802958D0AA2
:1004100005FB07854FEA932C04FB0C542705029D2E
:100420004FEA065847EA1637B5EB08056EEB070C9E
:10043000870E920E47EA811742EA8312A7FB020158
:10044000B6EB0B0164EB00042B0D43EA0C335E1892
:1004500044EB1C50DA465146E7FB0201C5F3130496
:100460004FEA0B3343EA14534FEA0432019C43EA48
:100470000603A4F10C040294009CCDE900B400F042
:1004800093F903B0BDE8F08F00200146F9E72DE9AC
:10049000F04D81EA030404F0004B21F000451446BE
:1004A0004FF0000A23F0004150EA050220D054EA40
:1004B00001021DD0C5F30A570246C5F31303C1F369
:1004C0001300C1F30A5640F4801543F48013A7EBE0
:1004D0000608101BD64608F2FD3873EB050002D360
:1004E00008F1010801E092185B41B8F1000F03DA4E
:1004F00000200146BDE8F08D00204FF48011064633
:1005000084460EE0171B73EB050705D3121B63EB44
:10051000050306434CEA010C49084FEA30009218E3
:100520005B4150EA0107EDD152EA030012D082EAA2
:10053000040083EA0501084305D0101BAB4106D235
:100540000122002306E000224FF0004302E06FF09A
:10055000010253101AEB06004CEB085110EB0A0095
:1005600041EB0B01BDE8F04D00F00FB970B521F083
:10057000004303430CD0C1F30A550024D5EB040516
:1005800064EB0403D617AD1AB34102DB0020014629
:1005900070BD201841EB025170BD0EB5C10F80EA4D
:1005A000E0700844CA07002140F233438DE80E0092
:1005B0000A460B4600F0F8F803B000BDC1F30A523A
:1005C00010B5C1F3130140F2FF3341F480119A4298
:1005D00001DA002010BD40F233439A42A2F23342C6
:1005E00003DC5242FFF7C0FD10BD904010BD00F08B
:1005F000004230F000400AD0C10D01F56071C0F337
:10060000160042EA0151C20840071143704700201A
:100610000146704701F0004330B421F0004150EA38
:10062000010206D00A0DA2F56072C1F31301002A7F
:1006300002DC30BC00207047440F44EAC104C10012
:10064000E01830BC00EBC25000F068B830B50B4683
:10065000014600202022012409E021FA02F59D42F2
:1006600005D303FA02F5491B04FA02F52844151EC6
:10067000A2F10102F1DC30BD2DE9F05F054600205A
:1006800092469B4688460646814640241BE0284603
:10069000414647462246FFF767FD53465A46C01A71
:1006A000914110D311461846224600F016F82D1A33
:1006B00067EB01084F4622460120002100F00DF8AB
:1006C00017EB00094E41201EA4F10104DFDC48466F
:1006D00031462A464346BDE8F09F202A04DB203AF3
:1006E00000FA02F1002070479140C2F1200320FA85
:1006F00003F3194390407047202A06DBCB17203ABA
:1007000041FA02F043EAE07306E041FA02F3D04016
:10071000C2F1200291400843194670470029A8BF42
:100720007047401C490008BF20F00100704710B41A
:10073000B0FA80FC00FA0CF050EA010404BF10BCCF
:10074000704749B1CCF1200421FA04F411FA0CF1FC
:1007500018BF012121430843A3EB0C01CB1D4FEA35
:1007600000614FEA102042BF002010BC704700EB30
:10077000C35010440029A4BF10BC7047401C49005E
:1007800008BF20F0010010BC704710B5141E73F1B3
:10079000000408DA401C41F1000192185B411A4341
:1007A00001D120F0010010BD2DE9F04D92469B468D
:1007B00011B1B1FA81F202E0B0FA80F22032904633
:1007C000FFF78BFF04460F4640EA0A0041EA0B019F
:1007D00053465A46084313D0114653EA010019D034
:1007E000C8F140025046FFF7BFFC05460E46504692
:1007F00059464246FFF771FF084305D0012004E047
:1008000020463946BDE8F08D0020054346EAE076F3
:100810002C4337430A986305E40AA0EB0800002242
:10082000FD0A44EA47540A3002D500200146E9E7B0
:10083000010510196941DDE9084500196941BDE864
:10084000F04DA2E7C1F30A52C1F3130140F2FF33A6
:1008500041F480119A4202DA00200146704740F2CA
:1008600033439A42A2F2334202DC5242FFF77CBC8D
:10087000FFF733BF30B5041E71F1000404DB4FF005
:100880000044404264EB0101141E73F1000405DBD7
:100890001C464FF00043524263EB0403994208BFE9
:1008A000904230BD064C074D06E0E06840F0010381
:1008B00094E8070098471034AC42F6D3FFF73CFCAD
:1008C000083B0008283B0008FEE770477047704768
:1008D00030B590F840500124AC40C56B6C600468A2
:1008E00063604368102B036803D099600068C2609E
:1008F00030BD9A600068C16030BD7047704710B568
:1009000090F821100022022905D00421816380F88B
:100910002020012010BD01680B6823F00E030B603E
:1009200001680B6823F001030B6090F84030C46B42
:10093000012101FA03F3636080F8211080F8202080
:10094000104610BD2DE9F05F90F821100024022917
:1009500003D004218163012485E001680A6822F044
:100960000E020A6001680A6822F001020A603F4E26
:100970003E4FB215DFF8F4C0DFF8F090DFF8ECA0DE
:10098000DFF8E8B0DFF8E4E00168783F1301150212
:10099000ACF1640CA9F15009AAF13C0AABF1280BA7
:1009A000AEF1140E4FF48018B14227D9B9420ED0DF
:1009B000614512D049451DD0514518D0594518D030
:1009C000714501D1424615E0294EB14201D10122C3
:1009D00010E0274E1436B14201D110220AE0244E15
:1009E0002836B14206D0224A3C32914201D11A4601
:1009F00000E02A461E49091F0A602BE0B94213D0C5
:100A0000614517D0494522D051451DD059451DD0CB
:100A1000714501D142461AE0B14202D14FF08072D5
:100A200015E0134EB14201D1012210E0104E1436F0
:100A3000B14201D110220AE00D4E2836B14206D053
:100A40000B4A3C32914201D11A4600E02A4607493E
:100A500080394A60012180F82110002180F820109F
:100A6000416B01B188472046BDE8F09F80000240FD
:100A70000804024030B560B11A4B026814219A4252
:100A800009D2194B1344B3FBF1F1890001641749F2
:100A90000AE0012030BD134B5B421344B3FBF1F17C
:100AA000890001640F490839C163022180F82110CF
:100AB000136843F6F0718B43F0E901142143D0E948
:100AC00002452C432143046921434469214384693D
:100AD00021431943116000214163012242770177CC
:100AE000084630BD08040240F8FFFDBF0000024088
:100AF00070B5044690F82000002501280CD0012094
:100B000084F8200094F821600020012E06D084F89B
:100B100020000225284670BD022070BD022684F800
:100B20002160A0632068066826F001060660204662
:100B3000FFF7CEFEE06A00282068016802D041F08D
:100B40000E0106E021F0040101602068016841F017
:100B50000A0101602068016841F001010160D9E7E4
:100B600070B5044600F014F90546601C02D0044834
:100B70000078044400F00CF9401BA042FAD370BD89
:100B8000100000202DE9F84FDFF8C891002409F18A
:100B9000040A0AF1040B23460F270BF1040ED1E0DF
:100BA0000125A54006EA0502AA4276D1DFF8A8C1D0
:100BB0004E68A6EB0C0866452BD00DDC032E34D016
:100BC00005DC36B3012E19D0022E2FD11BE0112ED9
:100BD00016D0122E2AD119E0B8F5881F19D006DCDC
:100BE000B8F5803F15D0B8F5801F1FD111E0B8F5DA
:100BF000001F0ED0B8F5041F18D10AE0CB6815E02D
:100C0000CB681B1D12E0CB6808330FE0CB680C33B8
:100C10000CE08B682BB1012B4FF0080303D045612A
:100C200004E0042302E0056100E00023FF2A01D86C
:100C3000064601E000F104064FEA840501D9A5F15A
:100C40002005D6F8008007FA05FC28EA0C0803FA0C
:100C500005F548EA0508C6F800804D68ED0070D536
:100C60003E4DAE6946F00106AE61AD6924F0030663
:100C700005F0010500953A4D06EB050CDCF808502F
:100C8000A607360F07FA06F825EA0805DFF8D4802C
:100C9000404503D14FF0000825E052E0DFF8C8805E
:100CA000404502D14FF001081DE0DFF8C08040450B
:100CB00002D14FF0020816E0DFF8B480404502D1BF
:100CC0004FF003080FE0DFF8AC80404502D14FF051
:100CD000040808E0DFF8A080404502D14FF0050885
:100CE00001E04FF0060808FA06F848EA0508CCF8D3
:100CF00008804D68D9F80060ED034D4601D51643D4
:100D000000E096432E604D68DAF80060AD0355466A
:100D100001D5164300E096432E604D68DBF8006075
:100D2000ED025D4601D5164300E096432E604D6806
:100D3000DEF80060AD02754601D5164300E096432B
:100D40002E60641C0A681646E2407FF429AFBDE8B5
:100D5000F88F000000040140000011100010024054
:100D60000000014000080140000C0140001001405B
:100D70000014014000180140001C01408068084038
:100D800000D0012070470AB1016170470904FBE7F8
:100D90000148806870470000100000200248816808
:100DA000027811448160704710000020074810B598
:100DB000016841F010010160032000F07BF80F2072
:100DC00000F006F800F024F8002010BD00200240DA
:100DD00070B50D4D04464FF47A712878B1FBF0F0F0
:100DE0000A490968B1FBF0F000F0F2FA48B9102C9A
:100DF00007D200222146501E00F03CF800206C6013
:100E000070BD012070BD0000100000200000002017
:100E10000F4808B5816941F001018161816901F0E4
:100E200001010091C16941F08051C161C069002296
:100E300000F0805000900F21901E00F01BF8054834
:100E4000416821F0E06141F00071416008BD00009F
:100E50000010024000000140002809DB00F01F02E2
:100E6000012191404009800000F1E020C0F800110C
:100E700070470000F0B40E4B1B680C46C3F302230E
:100E8000C3F10705042D00D90425191D072901D236
:100E9000002300E0DB1E012606FA05F1491E214071
:100EA00099409E40761E16403143F0BC01F0E8BEEA
:100EB0000CED00E0064900F0070208684FF6FF035A
:100EC000184040EA0220034A1043086070470000BF
:100ED0000CED00E00000FA052DE9F0470F46050093
:100EE00061D0434E306800F00700B84209D2306844
:100EF00020F0070038433060306800F00700B84247
:100F000051D128683B4C810712D5400703D5606852
:100F100040F4E06060602878000703D5606840F422
:100F2000605060606068A96820F0F000084360606D
:100F30002878C00728D06868012810D021680228C6
:100F400010D0890700292EDA616821F003010143DE
:100F50006160FFF71DFF804641F288390DE021688E
:100F60008903EFE78901EDE7FFF712FFA0EB080126
:100F7000494502D90320BDE8F0876068696800F040
:100F80000C00B0EB810FEFD1306800F00700B842E1
:100F90000BD9306820F0070038433060306800F02B
:100FA0000700B84201D00120E5E72878400705D5C1
:100FB0006068E96820F4E060084360602878000712
:100FC00006D56068296920F4605040EAC10060607D
:100FD00000F038F86168084AC1F30311515CC84059
:100FE0000649086006480068FFF7F2FE0020C2E7E5
:100FF0000020024000100240F03A000800000020EB
:10100000140000200448054900684968044AC1F3F7
:101010000221515CC84070470000002000100240CF
:10102000003B00080448054900684968044AC1F3C8
:10103000C221515CC84070470000002000100240EF
:10104000003B000812A185B00FC98DE80F0014A065
:10105000144A006804905168134801F00C03042BF3
:1010600010D0082B0ED1C1F38343C9031DF8030030
:101070000AD5516804AAC1F34041515C0A4A504361
:10108000B0FBF1F005B0704708494843FAE70000AB
:1010900002030405060708090A0B0C0D0E0F1010B9
:1010A000010200000010024000127A0000093D0019
:1010B0002DE9F84F040070D02078C04DC00749D00A
:1010C0006868C0F38100012807D06868C0F3810018
:1010D000022809D16868C00306D52868800339D57D
:1010E00060680028E7D035E06068B0F5803F0BD03D
:1010F00010B1B0F5A02F11D0286820F480302860FE
:10110000286820F4802002E0286840F480302860BD
:10111000606890B1FFF73CFE06460AE0286840F49C
:1011200080202860F0E700BFFFF732FE801B6428B4
:1011300073D828688003F7D50CE0FFF729FE064630
:1011400005E000BFFFF724FE801B6428F0D8286864
:101150008003F7D420789A4E80074FF001094FF0B2
:10116000000839D5686810F00C0F07D06868C0F324
:101170008100022809D16868C00306D42868800766
:1011800014D52069012808D110E02069B0B1C6F853
:101190000090FFF7FDFD074605E00AE1FFF7F8FDC7
:1011A000C01B0228C4D828688007F7D52868616961
:1011B00020F0F80040EAC10028600DE0C6F8008089
:1011C000FFF7E6FD074604E0FFF7E2FDC01B02283B
:1011D00023D828688007F7D4207800072CD57948D1
:1011E000A169D9B1C0F80090FFF7D2FD074604E02D
:1011F000FFF7CEFDC01B02280FD8686A8007F7D51D
:1012000071484FF4FA510068B0FBF1F0009000BF54
:101210000098411E0091FAD20EE080E0C0F80080F4
:10122000FFF7B6FD074604E0FFF7B2FDC01B02283A
:1012300075D8686A8007F7D42078400760D5E869D8
:101240000027C00008D4E86940F08050E861E869F0
:10125000012700F0805000905C480168C90513D454
:101260000168834641F480710160FFF791FD824679
:1012700006E000BFFFF78CFDA0EB0A0064284ED803
:10128000DBF80000C005F5D5E06801280AD008B1F8
:10129000052813D0286A20F001002862286A20F06F
:1012A000040002E0286A40F001002862E06841F290
:1012B000883B98B1FFF76CFD82460BE0286A40F04E
:1012C00004002862EEE700BFFFF762FDA0EB0A0111
:1012D00059455AD8286A8007F6D50CE0FFF758FD23
:1012E000824605E0FFF754FDA0EB0A0159454CD8B2
:1012F000286A8007F6D41FB1E86920F08050E861C1
:10130000E06988B36968C1F38101022944D00228E9
:10131000C6F8608004D0FFF73BFD044638E034E0B7
:10132000FFF736FD074604E0FFF732FDC01B022839
:101330002BD828688001F7D4206AB0F5803F05D10A
:101340006868A16820F4003008436860D4E90801A7
:101350000843696821F4741108436860C6F8609016
:10136000FFF716FD044606E025E000BFFFF710FD7D
:10137000001B022809D828688001F7D51BE000BFB0
:10138000FFF706FD001B022802D90320BDE8F88FF5
:1013900028688001F4D40EE00128F7D06868226A3A
:1013A00000F48031914204D1616A00F470108842E7
:1013B00001D00120EAE70020E8E700000010024029
:1013C00000004242800442420000002000700040C1
:1013D00010B5401EB0F1807F01D3012010BD4FF049
:1013E000E02460610F21601701F04AFC0020A06139
:1013F00007202061002010BD10B590F83C20012A84
:1014000022D0012280F83C20CA688C6822F4407205
:1014100022434C6822F4806222430C6822F400626A
:1014200022430C6922F4805222434C6922F4005278
:101430002243C969002322F480420A4301684A64B6
:1014400080F83C30002010BD022010BD70B590F82F
:101450003C20012A19D0012400F83C4F022242709E
:1014600050F83C3C5A689D6822F070060A6849684A
:10147000324325F0800529435A6050F83C2C916096
:10148000447000210170084670BD022070BD10B587
:10149000040003D094F83D0010B107E0012010BD16
:1014A000002084F83C00204600F00CF8022084F86C
:1014B0003D00211D206801F041F8012084F83D0025
:1014C000002010BD08B50C4A01680C48914207D1B4
:1014D000816941F400618161806900F4006009E084
:1014E000074A914207D1816941F4005181618069C5
:1014F00000F40050009008BD002C01400010024094
:101500000034014070B5044690F83C00012817D023
:10151000012584F83C50022084F83D002068826850
:1015200022F0770222F47F4282600868502830D08F
:101530000DDC20284DD005DC98B310283BD148E0C5
:10154000022070BD302844D0402834D139E06028D2
:1015500028D0702806D0B0F5805F2CD0B0F5005FA1
:1015600029D10AE0CB68D1E90121206801F039F8DE
:101570002068816841F0770109E0CB68D1E9012159
:10158000206801F02EF82068816841F48041816074
:1015900011E0CA684968206801F0F8F85021206815
:1015A00007E016E0CA684968206801F000F9602188
:1015B000206801F020F884F83D50002084F83C00B9
:1015C00070BDCA684968206801F0E0F840212068D1
:1015D000EFE7226801461046EBE72DE9F0410D46A2
:1015E000040003D094F83D0018B108E00120BDE8E4
:1015F000F081002084F83C00204600F03BF80220F7
:1016000084F83D002068816844F2070291438160BC
:10161000211D206800F092FF226890689169166A87
:101620002B68AF69034340F20330814341EA07214D
:10163000A868EF6908434FF6FC418843E96840EA2F
:101640000720014328692F6A000140EA0730084358
:1016500069686D6926F0220646EA051529439360FC
:101660002268906120680162012084F83D0000201A
:10167000BDE7000070B586B0002500950195029584
:101680000395006841490124414A424EB0F1804F20
:1016900015D0414DC023A84244D1C86940F0020092
:1016A000C861C86900F002000490886940F0040035
:1016B00088618869009300F00400049062E0C869C2
:1016C00040F00100C861C86900F001000490886919
:1016D00040F004008861886900F004000490886983
:1016E00040F0080088618869694600F008000490AD
:1016F0004FF40040009002941046FFF743FA082090
:10170000CDE90005694602943046FFF73BFA2348CD
:10171000416821F4407141F0E06141F48071416021
:1017200006B070BD1E4DA84217D1C86940F0040034
:10173000C861C86900F004000490886940F008009E
:1017400088618869694600F008000490029400935B
:101750004FEA0600FFF716FAE2E7124B9842DFD194
:10176000C86940F00800C861C86900F0080004902A
:10177000886940F004008861886900F004000490E2
:1017800003200090694610460294E3E700100240EF
:1017900000080140000C014000040040000001402E
:1017A00000080040000C004000B585B00021009109
:1017B000019102910391164B0268164802219A4248
:1017C0000FD1826942F0040282618069039100F0C6
:1017D000040004904FF47060CDE9000169460E48A2
:1017E00011E00E4B9A4210D1826942F010028261E0
:1017F0008069039100F0100004904FF47070CDE9FF
:10180000000169460648FFF7BDF905B000BD0000BC
:10181000002C01400010024000080140003401404B
:101820000010014070B5044690F83C000D460128B8
:101830000DD0012684F83C60022084F83D0042B1BE
:10184000042A18D0082A2AD00C2A4DD139E00220C7
:1018500070BD206800F0D8FE2068816941F0080161
:1018600081612068816921F00401816120688169BA
:101870002A69114311E0206800F0F6FE20688169B2
:1018800041F4006181612068816921F48061816196
:10189000206881692A6941EA0221816124E0206887
:1018A00000F018FF2068C16941F00801C16120689B
:1018B000C16921F00401C1612068C1692A6911432D
:1018C00011E0206800F03AFF2068C16941F400612E
:1018D000C1612068C16921F48061C1612068C1696A
:1018E0002A6941EA0221C16184F83D60002084F840
:1018F0003C0070BD10B5040003D094F83D0010B159
:1019000007E0012010BD002084F83C00204600F0D4
:101910000CF8022084F83D00211D206800F00EFE26
:10192000012084F83D00002010BD704710B504462A
:101930000068012200F048FE0B492068884202D06E
:101940000A49884203D1416C41F400414164206856
:10195000816801F00701062903D0016841F0010107
:101960000160002010BD0000002C01400034014047
:1019700010B504460068416994F83920C1F3C011DC
:10198000212A0BD151B1416921F080014161206BC5
:1019900008B1FEF7B4FF204600F079FF20684169E6
:1019A00094F83A20C1F38011222A0BD151B1416938
:1019B00021F040014161606B08B1FEF7A0FF2046B5
:1019C00000F057FF002010BD7047000070B502689E
:1019D00004461068D168536910F00F0F50D003F01F
:1019E000010501F4907635435DD0C20705D0CA05E4
:1019F00003D5E26B42F00102E263420705D5DA0744
:101A000003D0E26B42F00202E263820705D5DA07F7
:101A100003D0E26B42F00402E263020705D5DA0765
:101A200003D0E26B42F00802E263E26B002A33D09B
:101A3000800604D5880602D5204600F031FF2068D4
:101A40004069E16BC0F38010090700D428B3204639
:101A500000F00FFF2068416949061AD5416921F05D
:101A600040014161606BA0B11B494163606BFEF7AF
:101A700069FF002810D0606B416BBDE870400847DB
:101A8000830610D58B060ED52046BDE8704000F0C9
:101A900007BF2046FFF798FF70BD2046FFF794FF71
:101AA0000020E06370BD030606D50B0604D5204672
:101AB000BDE8704000F09CBF4006F3D54806F1D564
:101AC000D168204621F04001D160202184F83910EE
:101AD00000F0EDF970BD0000D327000870B50400D8
:101AE00004D094F83900002510B106E0012070BD43
:101AF00084F83850204600F023F8242084F8390078
:101B00002068C16821F40051C160204600F014FF34
:101B10002068016921F4904101612068416921F048
:101B20002A0141612068C16841F40051C160E56348
:101B3000202084F8390084F83A00002070BD0000AD
:101B40002DE9F04786B00024009401940294039498
:101B50000646764F0368764802210322754D4FF4FE
:101B6000806C4FF4006ABB421CD1C36943F400236C
:101B7000C361C36903F400230493836943F0100332
:101B800083618069CDE900C100F01000CDE9032038
:101B900069462846FEF7F6FFCDE900A469462846C7
:101BA00002942BE0DFF890814FF004094FF4805746
:101BB000434528D1C36943F48013C361C36903F467
:101BC00080130493836943F010038361836903F0F6
:101BD00010030493836943F0200383618069CDE996
:101BE000007100F02000CDE9032069462846FEF789
:101BF000C9FFCDE90094694650480294FEF7C2FF40
:101C000006B0BDE8F0874E4D4FF08008AB424ED194
:101C1000C36943F40033C361C36903F4003304931D
:101C2000836943F0040383618069CDE9009100F08A
:101C30000400CDE90320434D69462846FEF7A2FF84
:101C40000820CDE90004694628460294FEF79AFF71
:101C50003E4D3D48C5E90004C5E902482C616C6170
:101C6000C5E906472846FEF705FF08B1FEF746FE20
:101C700075636E62354D34484435143001C510200B
:101C8000A5E81101314845F8104944306C61C5E9B7
:101C90000647FEF7EFFE08B1FEF730FE356300227F
:101CA000114626206E62FFF7E5F826203BE0284D1E
:101CB000AB42A5D1C36943F48023C361C36903F474
:101CC00080230493836943F0080383618069CDE92D
:101CD00000C100F00800CDE903201E4D69462846EA
:101CE000FEF750FFCDE900A4694628460294FEF7AE
:101CF00049FF164D144888353C38C5E90004C5E94C
:101D000002482C616C61C5E906472846FEF7B2FE21
:101D100008B1FEF7F3FD75630022114627206E62BD
:101D2000FFF7A8F82720FFF797F869E7004C004075
:101D3000001002400010014000500040001401401B
:101D400000440040000801406C000240A002002056
:101D500000480040000C0140F8B5044690F83A00F5
:101D600020283CD1C1B3BAB394F83800012836D04A
:101D7000012084F83800A162A2850025E5632220B5
:101D800084F83A00636B17489862636B1648D86210
:101D9000636B16481863606B134645630846666BB1
:101DA000216802463046091DFEF7A2FE2068016840
:101DB0004168009184F83850C16841F48071C16075
:101DC0002068416941F0010141612068416941F0A9
:101DD000400141610020F8BDFFE70120FBE7022040
:101DE000F9E700002D28000869280008E32700080B
:101DF000704770472DE9F843044690F839001F46B4
:101E000016460D46202850D1A5B19EB194F8380051
:101E100001284AD0012084F838004FF00008C4F8A7
:101E20003C80212084F83900FEF7B2FFA684814669
:101E3000E68426E00120BDE8F883E08C401EE084C3
:101E4000A0684B46B0F5805F4FF000024FF0800174
:101E50002046009703D000F0FCFDE8B90DE000F04B
:101E6000F8FDC8B928882168C0F3080048602069D7
:101E700008B16D1C05E0AD1C03E0216815F8010BED
:101E80004860E08C0028D8D14B46002240212046F3
:101E9000009700F0DEFD08B10320CCE7202084F895
:101EA000390084F838800020C5E70220C3E7704776
:101EB000FEE70000114808B5416941F001014161A8
:101EC0004069002200F00100009005210D20FEF77E
:101ED000D1FF0D20FEF7C0FF002205211020FEF7E4
:101EE000C9FF1020FEF7B8FF002205211120FEF7E0
:101EF000C1FFBDE808401120FEF7AEBF0010024050
:101F00002DE9F04186B000252E48009501950295F7
:101F10000395816941F010018161816901F010012F
:101F20000491816941F020018161816901F0200102
:101F30000491816941F004018161816901F004012A
:101F40000491816941F00801816180691E4F00F0B0
:101F5000080042F202040490002221463846FEF7AF
:101F600012FFDFF86880012239144046FEF70BFFAC
:101F7000002248F204014046FEF705FF009401AA42
:101F80000124022682E8700069463846FEF7FAFD11
:101F90000327CDE902470094694640460194FEF7C5
:101FA000F1FD04208DE8B10069464046FEF7EAFDE8
:101FB000B8038DE8710069464046FEF7E3FD06B0C0
:101FC000BDE8F0810010024000100140000C01400B
:101FD00010B596B000240F94109411941294139499
:101FE0001C2168461494FEF7D6F8202107A8FEF7B6
:101FF000D2F834483249C0E9001441F61F41C0E923
:102000000241046144618461FFF741FA08B1FEF7BF
:1020100075FC4FF480500F900FA92A48FFF772FA11
:1020200008B1FEF76BFC2748FFF764FC08B1FEF728
:1020300065FC139413A923481494FFF707FA08B119
:10204000FEF75CFC6020CDE9000402940394049444
:102050000594002269461B480694FFF7E3FB08B18C
:10206000FEF74CFC042269461648FFF7DBFB08B17B
:10207000FEF744FC082269461248FFF7D3FB08B17B
:10208000FEF73CFC0C2269460E48FFF7CBFB08B17B
:10209000FEF734FC0794089409944FF400500A9416
:1020A000CDE90B4007A907480E94FFF7A5F908B141
:1020B000FEF724FC0348FFF777FB16B010BD0000C5
:1020C000002C01402000002010B58CB0242168466F
:1020D000FEF761F80024154809944FF080410A94F6
:1020E000C0E900144FF6FF71C0E902410461846148
:1020F0000320CDE900040120CDE902040494CDE9D8
:1021000005400794694609480894FFF766FA08B144
:10211000FEF7F4FB099409A904480A94FFF796F91D
:10212000002801D0FEF7EAFB0CB010BD60000020D3
:1021300010B58CB024216846FEF72DF8002416480F
:10214000099414490A94C0E900144FF6FF71C0E9DC
:102150000241046184610320CDE900040120CDE93E
:1021600002040494CDE90540079469460A4808949E
:10217000FFF733FA08B1FEF7C1FB099409A9064835
:102180000A94FFF763F9002801D0FEF7B7FB0CB003
:1021900010BD000000040040A000002010B58CB06D
:1021A00024216846FDF7F7FF0024164809941449D6
:1021B0000A94C0E900144FF6FF71C0E902410461BE
:1021C00084610320CDE900040120CDE902040494D8
:1021D000CDE90540079469460A480894FFF7FDF9E0
:1021E00008B1FEF78BFB099409A906480A94FFF78A
:1021F0002DF9002801D0FEF781FB0CB010BD0000C6
:1022000000080040E000002010B58CB02421684692
:10221000FDF7C1FF00241648099414490A94C0E947
:1022200000144FF6FF71C0E902410461846103208C
:10223000CDE900040120CDE902040494CDE9054074
:10224000079469460A480894FFF7C7F908B1FEF7F2
:1022500055FB099409A906480A94FFF7F7F80028E6
:1022600001D0FEF74BFB0CB010BD0000000C00408D
:102270002001002010B596B000240F941094119402
:10228000129413941C2168461494FDF784FF2021B6
:1022900007A8FDF780FF34483249C0E9001441F631
:1022A0001F41C0E90241046144618461FFF7EFF816
:1022B00008B1FEF723FB4FF480500F900FA92A4876
:1022C000FFF720F908B1FEF719FB2748FFF712FBCB
:1022D00008B1FEF713FB139413A923481494FFF7D6
:1022E000B5F808B1FEF70AFB6020CDE900040294BE
:1022F000039404940594002269461B480694FFF752
:1023000091FA08B1FEF7FAFA042269461648FFF777
:1023100089FA08B1FEF7F2FA082269461248FFF777
:1023200081FA08B1FEF7EAFA0C2269460E48FFF777
:1023300079FA08B1FEF7E2FA0794089409944FF489
:1023400000500A94CDE90B4007A907480E94FFF707
:1023500053F808B1FEF7D2FA0348FFF725FA16B092
:1023600010BD000000340140600100200C4810B591
:102370000A4901604FF4E1314160002181600C2283
:10238000C160C0E904128161C161FFF7A7FB0028A9
:1023900003D0BDE81040FEF7B1BA10BD004C0040BC
:1023A000A00100200C4810B50A4901604FF4E1314A
:1023B0004160002181600C22C160C0E9041281618A
:1023C000C161FFF78BFB002803D0BDE81040FEF78A
:1023D00095BA10BD00500040E00100200C4810B537
:1023E0000A4901604FF4E1314160002181600C2213
:1023F000C160C0E904128161C161FFF76FFB002871
:1024000003D0BDE81040FEF779BA10BD004400408B
:10241000200200200C4810B50A4901604FF4E13158
:102420004160002181600C22C160C0E90412816119
:10243000C161FFF753FB002803D0BDE81040FEF751
:102440005DBA10BD0048004060020020FEE70000B9
:1024500010B500211048FFF769FA04210E48FFF774
:1024600065FA08210C48FFF761FA0C210A48FFF7CA
:102470005DFA00210948FFF759FA04210748FFF7E0
:1024800055FA08210548FFF751FABDE810400C2124
:102490000248FFF74BBA0000200000206001002036
:1024A0007047FEF77BBC30B58FB028216846FDF73A
:1024B00072FE14210AA8FDF76EFE01210804CDE981
:1024C00000100024029402250491CDE907504FF436
:1024D000E01009906846FEF7EBFD0F20CDE90A05F4
:1024E0006802CDE90C4002210AA80E94FEF7F4FC24
:1024F0000FB030BD0D48016841F001010160416835
:102500000B4A1140416001680A4A114001600168AC
:1025100021F480210160416821F4FE0141604FF403
:102520001F0181600449C003086070470010024029
:102530000000FFF8FFFFF6FE08ED00E0F0B50268CE
:102540001C4B1D4D1D4E1E4F1E4C4FF0804C984293
:1025500009D0A04207D0604505D0A84203D0B042C0
:1025600001D0B84204D122F0700E4A6842EA0E024D
:10257000984209D0A04207D0604505D0A84203D0B8
:10258000B04201D0B84203D122F44075CA682A4350
:102590004D6922F080022A4302608A68C2620A689A
:1025A0008262984201D0A04201D1096901630121F0
:1025B0004161F0BD002C01400004004000080040D3
:1025C000000C00400034014010B501F01F03012150
:1025D000046A99408C430462016A9A401143016283
:1025E00010BD10B5846842EA032224F47F440A43F4
:1025F0002243826010BD826822F070020A4342F0DA
:102600000701816070470000F0B5026A22F0010204
:102610000262036A42688469124E24F073050C68F2
:102620002C4323F002058B682B430D4DA84201D0AB
:10263000B04205D123F00807CB683B4323F00403E5
:10264000A84201D0B04205D14D6922F44072154331
:102650008A692A4342608461496841630362F0BD2C
:10266000002C014000340140F0B5026A22F0100253
:102670000262026A436884690D6824F4E64444EA0D
:1026800005248D6822F0200242EA05120F4D104EFB
:10269000A84201D0B04206D1CF6822F0800242EABF
:1026A000071222F04002A84201D0B04207D14D6982
:1026B00023F4406343EA85038D6943EA850343605D
:1026C0008461496881630262F0BD0000002C014012
:1026D00000340140F0B5026A22F480720262026A9C
:1026E0004368C46922F4007224F073050C68124E2A
:1026F0002C438D6842EA05220E4DA84201D0B0421B
:1027000006D1CF6822F4006242EA072222F48062F6
:10271000A84201D0B04207D14D6923F4405343EAA7
:1027200005138D6943EA05134360C4614968C163B9
:102730000262F0BD002C01400034014030B5026A55
:1027400022F480520262046A4268C3690D6823F46D
:10275000E64343EA05238D6824F4005444EA053433
:10276000084DA84202D0084DA84204D14D6922F478
:10277000804242EA85124260C36149680164046292
:1027800030BD0000002C01400034014010B5036A48
:10279000046A24F001040462846924F0F00444EA29
:1027A000021423F00A020A438461026210BD10B5CC
:1027B000036A23F0100303628369046A23F47043FD
:1027C00043EA023224F0A00343EA0111826101626C
:1027D00010BD10B5406A0021C185C184FFF7F4F82F
:1027E00010BD70B5446A2068406994F83910C0F390
:1027F000C0100025212904D118B1E584204600F03D
:1028000046F82068406994F83A10C0F380102229F5
:1028100004D118B1E585204600F02BF8E06B40F0BC
:102820001000E0632046FFF7CFF870BD10B50146F9
:10283000406A09680968890613D40021C1850168C6
:10284000CA6822F48072CA6001684A6922F00102F3
:102850004A6101684A6922F040024A61202180F8F9
:102860003A10FFF7C5FA10BD10B5406AFFF7C1FA7C
:1028700010BD0168CA6822F49072CA6001684A6992
:1028800022F001024A61202180F83A107047016865
:10289000CA6822F0C002CA60202180F8391070474F
:1028A00010B590F83A10222901D0022010BD81689D
:1028B000B1F5805F11D00169002901681FD0496816
:1028C00001F07F03816A4A1C82620B70C18D491E30
:1028D0000904090CC18518D02BE00269816A002A1D
:1028E0000268526805D0D2B20A80816A491C8162AE
:1028F000ECE7C2F308020A80816A891CF7E74A689C
:10290000816A4B1C83620A70E0E70168CA6822F0A2
:102910002002CA600168CA6822F48072CA60016835
:102920004A6922F001024A61202180F83A10FFF73B
:102930005FFA002010BD00002DE9F0410446006858
:102940000169E26821F44051114301612169A068E5
:102950000843616908432168CA6841F20C639A43DD
:102960000243CA6020684169A26921F440711143A1
:1029700041611E49206864253226884202D1FEF753
:1029800051FB01E0FEF73EFB00EBC00101EB001143
:1029900060686FF018078000B1FBF0F2B2FBF5F24F
:1029A000B1FBF0F37A4303EB8202B1FBF0F306EBE9
:1029B0000212B2FBF5F2B3FBF5F302F0F00202EB08
:1029C0000312B1FBF0F3B1FBF0F0B0FBF5F078438C
:1029D00003EB800006EB0010B0FBF5F0216800F07F
:1029E0000F0010448860BDE8F0810000003801400D
:1029F00090F83910212901D0022070478168B1F583
:102A0000805F016A0BD04A1C02620268097851603B
:102A1000C18C491E0904090CC1840ED017E0098835
:102A20000268C1F30801516001690029016A02D0FE
:102A3000491C0162ECE7891CFBE70168CA6822F0C7
:102A40008002CA600068C16841F04001C160002096
:102A500070472DE9F041984617460E460446069DFC
:102A60001DE0681C1BD02DB1FEF792F9A0EB080009
:102A7000A84214D92068C16821F4D071C1602068CF
:102A8000416921F001014161202084F8390084F876
:102A90003A00002084F838000320BDE8F081206867
:102AA000006836EA000004D00020B842D9D00020E7
:102AB000F3E70120F9E700002DE9FF5F5C480068BB
:102AC0000168C1F3001100297ED001684FF00009B0
:102AD000406800905648FEF74BFF56480068406833
:102AE000DFF85481554CC0F1C80088F80000207808
:102AF00055286AD100210846225C401C1144C9B205
:102B00000A28F9DB4D4DA07AC8356FF00E068842D1
:102B100023D16078512820D1B4F902000001FDF7DB
:102B20003CFD3246FDF722FDFDF774FDE860B4F987
:102B300004000001FDF731FD3246FDF717FDFDF7FA
:102B400069FD2861B4F906000001FDF726FD324653
:102B5000FDF70CFDFDF75EFD686100211620225C8B
:102B6000401C1144C9B22028F9DB94F820008842A7
:102B700051D1E07D53284ED1B4F91800FDF70DFD79
:102B80002F4F00223B46FDF710FC3246FDF7EEFCCE
:102B9000FDF740FD83466860B4F91A00FDF7FDFCBF
:102BA00000223B46FDF701FC3246FDF7DFFCFDF756
:102BB00031FD8246A860B4F91C00FDF7EEFC00224E
:102BC0003B46FDF7F2FB01E027E024E03246FDF74B
:102BD000CDFCFDF71FFD1B492860884202DDFDF793
:102BE00037FB04E010F1FF4F02D3FDF7DFFA286056
:102BF000FDF7FDFC06460F465046FDF7F8FC04467F
:102C00000D465846FDF7F3FC8DE8F00002460B46F2
:102C10000DA000F025F888F80090C8220749044864
:102C2000FFF79AF804B00248BDE8F05FFEF7CEBEA9
:102C300060020020280300200C0000206C0300200C
:102C4000008066400000B443696D75203A25662017
:102C5000202566202025660D0A000000FEE7000002
:102C60000FB4054B10B503A9044A029800F0EAF826
:102C700010BC5DF814FB0000AD3600081C000020FD
:102C80000907090E002804DB00F1E02080F8001499
:102C9000704700F00F0000F1E02080F8141D70472D
:102CA00002E008C8121F08C1002AFAD17047704715
:102CB000002001E001C1121F002AFBD17047000073
:102CC0002DE9FF5F82B00021DDE90430020DDDF85F
:102CD00040B0034318D044F61050A2F2FF324243F2
:102CE0001514119801281FD0A5EB0B00401C5FEABA
:102CF000000A4FF000064E4FDFF83891B0465046BC
:102D000015D5CAF1000413E0119801244AA3012843
:102D100001D16FEA0B010298119AC0E90031C0E9B4
:102D2000024206B0BDE8F09FCBF10000DFE70446A9
:102D30000021404A491842EB0450CDE9001012E04E
:102D4000E00707D032463B4640464946FDF72DFB9B
:102D50008046894632463B4610461946FDF725FB1C
:102D600006460F466410002CEAD1DDE90401DDE9D6
:102D70000023BAF1000F06DAFDF717FB42464B4677
:102D8000FDF713FB05E0FDF782FB42464B46FDF7DE
:102D90007EFB04460E460022284BFDF76BFD03D850
:102DA0004FF0FF30014607E00022254B2046314618
:102DB000FDF754FAFDF746FD102409E0002C0ADB6C
:102DC0000A220023FDF758FC039B30321A55641E7B
:102DD00050EA0102F2D1641C039AC4F111031444B5
:102DE000119A012A03D0012208430DD10AE00843B9
:102DF00004D000204FF0110B119072E7A3EB0B05EC
:102E00006D1E0DE05B4504DD4FF0000205F101058C
:102E100004E003DA4FF00002A5F10105002AECD02E
:102E200002981199C0E90231C0E9004579E7000034
:102E3000000014400000F03F300000000000F043AC
:102E40000000E03F2DE9FF4F95B09B4689460646BE
:102E500000250FE2252877D100242746F84A0121D2
:102E6000059400E0044316F8013F203B01FA03F00B
:102E70001042F7D130782A2811D06FF02F03307824
:102E8000A0F13002092A16D8059A44F0020402EB98
:102E9000820203EB42021044761C0590EFE759F8DA
:102EA000042B0592002A03DA504244F400540590A2
:102EB00044F00204761C30782E2816D116F8010F43
:102EC00044F004042A280DD06FF02F023078A0F1CE
:102ED0003003092B09D807EB870302EB4303C7181C
:102EE000761CF3E759F8047B761C30786C280FD0F9
:102EF00006DC4C2817D068280DD06A2814D104E0CD
:102F0000742810D07A280FD10DE044F400140AE0A0
:102F100044F4801401E044F440147278824202D1F7
:102F200004F58014761C761C307866280BD013DCF0
:102F3000582877D009DC002875D04528F6D04628D7
:102F4000F4D047281AD19DE118E0632835D06428D1
:102F500079D0652812D195E1702873D008DC6728F4
:102F6000F1D069286FD06E280DD06F2806D1B5E05A
:102F700073282CD0752875D0782874D05A461799A4
:102F800090476D1C75E1C4F30250022809D0032854
:102F90000DD0D9F8001004280DD00D6009F10409F6
:102FA00067E1D9F80010EA17C1E90052F6E7D9F84D
:102FB00000100D80F2E70D70F0E719F8041B8DF892
:102FC000001000208DF80100EA46012003E059F8C6
:102FD00004AB4FF0FF3061074FF0000102D40DE069
:102FE00008F101018846B9420FDA8045F8DB1AF88A
:102FF00008100029F4D108E008F101018846814257
:10300000FADB1AF808100029F6D105985B46A0EB08
:10301000080721463846179A00F094FA284400EB36
:10302000080507E04DE029E10DE01AF8010B5A46CA
:1030300017999047B8F10108F7D25B462146384608
:10304000179A13E142E00A220092C4F302524FF0B1
:10305000000A022A08D059F804CB032A4FEAEC717F
:103060000AD00DE029E02AE009F1070121F007026A
:10307000F2E802C1914609E00FFA8CFC4FEAEC71CC
:10308000042A03D14FFA8CFC4FEAEC71002907DACD
:103090000A460021DCF1000C61EB02012D2202E066
:1030A000220504D52B228DF80420012203E0E2073B
:1030B00001D02022F7E7904659E00A2102E01022D1
:1030C0000DE010214FF0000A00910BE010224FF0AC
:1030D000000A44F004040827009203E008224FF09D
:1030E000000A0092C4F30252022A05D059F804CB18
:1030F0000021032A08D009E009F1070121F00702A5
:10310000F2E802C1914605E01FFA8CFC042A01D1C5
:103110000CF0FF0C4FF00008220728D5702806D0CD
:10312000009B83F0100353EA0A0305D00EE040220F
:103130008DF80420012208E05CEA010206D030226A
:103140008DF804208DF8050002229046009B83F044
:10315000080353EA0A030AD15CEA010201D16207BB
:1031600005D530228DF804204FF001087F1E582825
:1031700004D034A003900EA802900DE036A0F9E729
:1031800053466046009AFDF777FA84460398825CBE
:103190000298401E029002705CEA0100F0D1029891
:1031A00006A9081A00F1200A600702D524F4803429
:1031B00000E00127574502DDA7EB0A0000E00020F0
:1031C00000EB0A01009005984144401A0590E00385
:1031D00006D45B462146179A059800F0B3F90544DA
:1031E000002706E001A85A46C05D179990476D1C5C
:1031F0007F1C4745F6DBE0030CD55B462146179A5A
:10320000059800F09FF9054404E030205A461799CC
:1032100090476D1C0099481E00900029F5DC08E0DD
:10322000029802995A460078491C029117999047D2
:103230006D1CBAF10001AAF1010AF1DC65E10000A0
:10324000092801003031323334353637383961627C
:103250006364656600000000303132333435363740
:1032600038394142434445460000000000F058F917
:103270000544761C307800287FF4ECAD19B0284660
:10328000BDE8F08F620700D4062709F1070222F09B
:10329000070CFCE80223E14603F000485FEA080C53
:1032A00002D00FF2702C0DE05FEA045C02D50FF241
:1032B000682C07E05FEAC47C02D00FF2602C01E0CA
:1032C000AFF2700C4FF0FF3823F00043CDF850C040
:1032D00065280CD006DC452809D046281DD0472893
:1032E0003DD13DE0662818D067287ED138E0002126
:1032F000112F01DB112000E0781CCDE9000106A9A7
:103300000EA8FFF7DDFCDDE90F010E9A0391002105
:10331000009207F1010A04914DE04FF00040009740
:10332000CDE9011006A90EA8FFF7CAFCDDE90F02DE
:1033300003920E9B11990022DDF80CA000930492D9
:1033400011B9791C00EB010AB7EB0A0004D4C0F1F3
:10335000FF3007F1010A0490AAEB0700019044E056
:10336000012F00DA01270021112F01DD112000E0DB
:103370003846CDE9000106A90EA8FFF7A1FCDDE95A
:103380000F010E9A0391002104910092BA46210781
:103390000CD40399514500DA8A46BAF1010F05DDD4
:1033A000009AAAF10101515C302908D0B84202DA32
:1033B00010F1040F06DA0121CDE9011015E0AAF1A0
:1033C0000101E9E7002805DC049901440491AAEB16
:1033D000000102E0411C514500DD8A460499401A73
:1033E000401C01904FF000400290200704D4019847
:1033F000504501DBCDF8048000208DF84F00029885
:103400000DF14F07B0F1004F25D02B200E90029800
:103410004FF0020800280CDA404202902D200E9056
:1034200007E00A210298FDF711F93031029007F800
:10343000011DB8F10001A8F10108F2DC0298002892
:10344000EFD1791E0E980870307800F0200040F01F
:10345000450007F8020D12A8C01B00F107081498D8
:10346000007800B1012000EB0A01019801EBE07146
:1034700005984144401A401E0590E00306D45B467F
:103480002146179A059800F05DF8054414980078D5
:1034900018B15A46179990476D1CE00324D55B4636
:1034A0002146179A059800F04DF805441CE0049851
:1034B000002807DBDDE90301884203DD0098405C5A
:1034C000179901E0179930205A469047049805F162
:1034D0000105401C04900198401E019004D12E204B
:1034E0005A46179990476D1CBAF10001AAF1010ADA
:1034F000DDDC05E017F8010B5A46179990476D1C63
:10350000B8F10001A8F10108F4DC5B462146179AE6
:103510000598ABE62D0000002B0000002000000005
:103520002DE9F041044600251E461746880404D4C0
:1035300005E039462020B0476D1C641EF9D52846A9
:10354000BDE8F0812DE9F041044600251E46904675
:10355000C80301D5302700E02027880404D505E002
:1035600041463846B0476D1C641EF9D52846BDE873
:10357000F0810000064801680648B1FBF0F20648F9
:1035800002704FF47A72B1FBF2F1416070470000B3
:103590000000002080841E000400002070B54FF061
:1035A000E024002265690949A36909784843A169B3
:1035B0009942FCD002D2A3EB010302E0A5EB010685
:1035C00033441A440B468242F1D370BD04000020FC
:1035D0002DE9F041C1F30A52A2F2FF362F4A304BD7
:1035E0000D460446142E2FDA002E12DAFCF736FEB2
:1035F00000221346FDF73EF94CD2002DA4BF002453
:10360000254647DA25F00040204318BF254D41D01C
:1036100018E0DFF894C02CFA06F705EA070C5CEA1C
:10362000040C08BFBDE8F081FCF718FE0022134629
:10363000FDF720F92ED2002D03DA4FF48010F04070
:103640000544BD43002425E0332EC8BFBDE8F0810A
:10365000A6F1140C4FF0FF3727FA0CF73C4208BFD5
:10366000BDE8F081FCF79EFE00221346FDF702F94B
:1036700010D2002D0DDA142E08BF6D1C09D0C6F132
:103680003400012101FA00F02044A04238BF6D1C33
:103690000446BC4329462046BDE8F0819C7500885D
:1036A0003CE4377E0000F0BFFFFF0F0013B54FF67C
:1036B000FF73012269460248FEF79CFB00981CBD7F
:1036C0002002002010B5124C002204212046FDF7F4
:1036D0005AFB206820F00F002060206840F00300B3
:1036E0002060002201212046FDF74DFB0220FFF75C
:1036F00055FF012204212046FDF745FB0220FFF77C
:103700004DFF20460022BDE810400421FDF73BBBE1
:10371000000C014010B5124C002204212046FDF798
:1037200032FB206820F00F002060206840F003008A
:103730002060012211462046FDF725FB0220FFF7FD
:103740002DFF012204212046FDF71DFB0220FFF77B
:1037500025FF20460022BDE810400421FDF713BBE1
:10376000000C01402DE9F041184C07460025206867
:1037700020F00F002060206840F0080020602E46F6
:10378000002204212046FDF7FEFA0220FFF706FF83
:10379000012204212046FDF7F6FA6806050E0121F4
:1037A0002046FDF7EBFA08B16D1CEDB20120FFF7E2
:1037B000F5FE761CF6B2082EE2D327B1FFF782FFA2
:1037C0002846BDE8F081FFF7A5FFF9E7000C0140AE
:1037D00070B5174E05463046316821F00F01316053
:1037E000316841F00301316000220421FDF7CBFA7A
:1037F0000024EA0901213046FDF7C5FA6806050EE6
:103800000220FFF7CBFE012204213046FDF7BBFA70
:103810000220FFF7C3FE002204213046FDF7B3FA71
:103820000220FFF7BBFE641CE4B2082CE1D370BD9C
:10383000000C014010B5124C206820F00F002060F1
:10384000206840F003002060012211462046FDF769
:103850009AFA012204212046FDF795FA0420FFF789
:103860009DFE002201212046FDF78DFA0420FFF77E
:1038700095FE20460022BDE810400421FDF783BAE2
:10388000000C014010B5124C206820F00F002060A1
:10389000206840F003002060002204212046FDF74C
:1038A00072FA002201212046FDF76DFA0420FFF78D
:1038B00075FE012204212046FDF765FA012211461A
:1038C0002046FDF760FABDE810400420FFF766BE11
:1038D000000C014070B5184C0025206820F00F0046
:1038E0002060206840F00800206001221146204638
:1038F000FDF749FA0120FFF751FE0122042120467D
:10390000FDF741FA0120FFF749FE07E06D1CEDB21B
:10391000FA2D03D9FFF7B6FF012070BD0121204623
:10392000FDF72CFA0028F1D1002204212046FDF7F2
:103930002AFA002070BD0000000C01400548006814
:10394000C16841F01001C160C82203490148FEF777
:1039500003BA0000600200206C030020FDF726FA85
:10396000FEF7A1FDFEF7CCFAFEF7A4FAFEF736FD4E
:10397000FEF750FDFEF7FAFCFEF714FDFEF728FBFC
:10398000FEF778FCFEF7A0FBFEF7D2FBFEF706FC85
:10399000FEF73AFCFFF7EEFD5A21044800F008F864
:1039A000FEF756FDFFF7CAFFFEE7000000004842A1
:1039B00070B50546012204210948FDF7E4F94FF4EA
:1039C000FA742046FDF7CCF80021084600F078F89C
:1039D000284600F025F82046BDE87040FDF7C0B845
:1039E000000C014010B50446FFF724FFAA20FFF7A2
:1039F000EFFEFFF76FFF2046FFF7EAFEFFF76AFFD3
:103A0000FFF718FFAB20FFF7E3FEFFF763FF00208F
:103A1000FFF7A8FE0446FFF735FF204610BD000063
:103A200070B5FCF7E4FD214A214BFCF7BEFCFCF726
:103A3000F1FD06466FF00B0200201E49FCF796FDD3
:103A400004460D463046FCF7D2FD02460B462046A2
:103A50002946FCF71CFD0022174BFCF7A0FC0022B6
:103A6000164BFCF7FBFBFFF7B3FDFCF7A7FDC5B258
:103A70000020FFF7B7FF044600F07F0040F0100180
:103A8000002000F01DF82946FE2000F019F821461C
:103A9000002000F015F80220FDF762F844F0A101C3
:103AA000BDE87040002000F00BB80000713D0AD75F
:103AB000A370ED3F84D777410000F03F0000E03F66
:103AC00070B50D460446FFF7B5FEAA20FFF780FE4D
:103AD000FFF700FF2046FFF77BFEFFF7FBFE2846BF
:103AE000FFF776FEFFF7F6FEBDE87040FFF7CABEAF
:103AF000000000000000000001020304060708099E
:103B00000000000001020304283B00080000002020
:103B100020000000A02C0008483B000820000020E6
:103B200030080000B02C00080024F4000000000061
:103B30000000000000000000010000001000000074
:083B400000000000000000007D
:0400000508000131BD
:00000001FF
