:020000040800F2
:10000000D8070020DD0100089B1B000845190008E7
:10001000991B0008ED070008511E000800000000B1
:100020000000000000000000000000004501000882
:100030002D08000800000000890100089D1B000831
:10004000F7010008F7010008F7010008F7010008B0
:10005000F7010008F7010008F7010008F7010008A0
:10006000F7010008F7010008F7010008F701000890
:10007000F7010008F1070008FD070008090800085B
:100080001508000821080008F7010008F70100081A
:10009000F7010008F7010008F7010008F701000860
:1000A000F7010008F7010008F7010008F701000850
:1000B000F7010008F7010008F7010008F701000840
:1000C000F7010008F7010008F7010008F701000830
:1000D000F70100082D1E0008391E0008451E000803
:1000E000F7010008F7010008F7010008F701000810
:1000F000F7010008F7010008F7010008F701000800
:10010000F7010008F7010008F7010008F7010008EF
:10011000F7010008F7010008F7010008F7010008DF
:10012000F7010008F7010008F7010008F7010008CF
:10013000DFF80CD000F048FB00480047AD22000873
:10014000D8070020224B19680868B0E8F00F80F348
:100150000988BFF36F8F4FF0000080F311884EF0D5
:100160000D0E70470000000006480068006880F32C
:10017000088862B661B6BFF34F8FBFF36F8F00DFA1
:1001800000BF00BF08ED00E0EFF30980BFF36F8F01
:100190000F4B1A6820E9F00F106008B54FF05000BF
:1001A00080F31188BFF34F8FBFF36F8F02F092F986
:1001B0004FF0000080F31188BDE808401968086816
:1001C000B0E8F00F80F30988BFF36F8F704700BF6E
:1001D00018000020EFF305807047000006488047B4
:1001E00006480047FEE7FEE7FEE7FEE7FEE7FEE71C
:1001F000FEE7FEE7FEE7FEE7051C00083101000808
:10020000202A04DB203A21FA02F00021704721FA6B
:1002100002F3D040C2F120029140084319467047D2
:10022000D2B201E000F8012B491EFBD27047002238
:10023000F6E710B513460A4604461946FFF7F0FFE5
:10024000204610BD2DE9FE4F804681EA0300C00F15
:100250000C46009021F0004123F00045B8EB02006D
:10026000A94105D24046214690461C460B4602460F
:1002700023F00040104347D0270DC7F30A00C3F313
:100280000A510290401A019040286BDAC3F3130020
:1002900040F4801B0098924620B10023D2EB030A61
:1002A00063EB0B0B01985946C0F14002504600F039
:1002B000BDF906460D4650465946019A00F0C5F96B
:1002C00010EB08006141002487EA115284EAE773C9
:1002D0001A4340D0009A62B3019A012A4FEA0752AA
:1002E00015DC001B61EB02014FF0004202EA0752ED
:1002F000CDE90042001C41F5801132462B4600F04A
:10030000FCF903B0BDE8F08F40462146F9E7001B39
:1003100061EB0201001C41F5801300185B412018BD
:10032000A2F5001747EB030140EAD570B6196D41FD
:1003300011E06D084FEA360645EAC0754FEA0752EC
:10034000001B61EB0201001C41F5801149084FEAD6
:1003500030000019514132462B4603B0BDE8F04F42
:1003600000F0BCB90098012240000023D0EB02024B
:1003700063EBE073009821464FEAE074B8EB0000AD
:1003800061EB0401E9E783F000435BE781F00041A2
:1003900058E72DE9FE4F81EA030404F0004421F000
:1003A000004100944FF0000B23F0004350EA010499
:1003B0005ED052EA03045BD0C3F30A54C1F30A557A
:1003C0002C44A4F2F3340194A0FB0254C1F31301B2
:1003D00041F48011C3F3130343F4801301FB02447F
:1003E00000FB034E840A970A44EA815447EA835784
:1003F000A4FB076802958D0A05FB07854FEA932C3D
:1004000004FB0C542705029D4FEA065847EA1637AD
:10041000B5EB08056EEB070C870E920E47EA8117C5
:1004200042EA8312A7FB0201B6EB0B0164EB000466
:100430002B0D43EA0C335E1844EB1C50DA46514650
:10044000E7FB0201C5F313044FEA0B3343EA1453ED
:100450004FEA0432019C43EA0603A4F10C0402941F
:10046000009CCDE900B400F048F903B0BDE8F08F7E
:1004700000200146F9E72DE9F04D81EA030404F07C
:10048000004B21F0004514464FF0000A23F00041D4
:1004900050EA050220D054EA01021DD0C5F30A57E4
:1004A0000246C5F31303C1F31300C1F30A5640F427
:1004B000801543F48013A7EB0608101BD64608F2FC
:1004C000FD3873EB050002D308F1010801E0921832
:1004D0005B41B8F1000F03DA00200146BDE8F08D62
:1004E00000204FF48011064684460EE0171B73EB84
:1004F000050705D3121B63EB050306434CEA010C09
:1005000049084FEA300092185B4150EA0107EDD1EB
:1005100052EA030012D082EA040083EA050108438C
:1005200005D0101BAB4106D20122002306E00022B9
:100530004FF0004302E06FF0010253101AEB060087
:100540004CEB085110EB0A0041EB0B01BDE8F04DFC
:1005500000F0C4B870B521F0004303430CD0C1F3E0
:100560000A550024D5EB040564EB0403D617AD1A35
:10057000B34102DB0020014670BD201841EB02515F
:1005800070BD0EB540F2334102910021CDE900115A
:100590000A460B4600F0B1F803B000BDC1F30A52A1
:1005A00010B5C1F3130140F2FF3341F480119A42B8
:1005B00001DA002010BD40F233439A42A2F23342E6
:1005C00003DC5242FFF71CFE10BD904010BD00F04E
:1005D000004230F000400AD0C10D01F56071C0F357
:1005E000160042EA0151C20840071143704700203B
:1005F0000146704701F0004330B421F0004150EA59
:10060000010206D00A0DA2F56072C1F31301002A9F
:1006100002DC30BC00207047440F44EAC104C10032
:10062000E01830BC00EBC25000F021B8202A04DBF7
:10063000203A00FA02F1002070479140C2F12003F5
:1006400020FA03F3194390407047202A06DBCB17AA
:10065000203A41FA02F043EAE07306E041FA02F37D
:10066000D040C2F12002914008431946704700294A
:10067000A8BF7047401C490008BF20F00100704728
:1006800010B4B0FA80FC00FA0CF050EA010404BF88
:1006900010BC704749B1CCF1200421FA04F411FADE
:1006A0000CF118BF012121430843A3EB0C01CB1D22
:1006B0004FEA00614FEA102042BF002010BC704793
:1006C00000EBC35010440029A4BF10BC7047401C6D
:1006D000490008BF20F0010010BC704710B5141E7F
:1006E00073F1000408DA401C41F1000192185B41EB
:1006F0001A4301D120F0010010BD2DE9F04D9246C2
:100700009B4611B1B1FA81F202E0B0FA80F22032D8
:100710009046FFF78BFF04460F4640EA0A0041EA85
:100720000B0153465A46084313D0114653EA0100C1
:1007300019D0C8F140025046FFF762FD05460E464B
:10074000504659464246FFF771FF084305D0012045
:1007500004E020463946BDE8F08D0020054346EA16
:10076000E0762C4337430A986305E40AA0EB0800BF
:100770000022FD0A44EA47540A3002D5002001460F
:10078000E9E7010510196941DDE9084500196941EA
:10079000BDE8F04DA2E7000030B5041E71F1000481
:1007A00004DB4FF00044404264EB0101141E73F17E
:1007B000000405DB1C464FF00043524263EB040388
:1007C000994208BF904230BD064C074D06E0E068F4
:1007D00040F0010394E8070098471034AC42F6D388
:1007E000FFF7AAFC5826000878260008FEE700005C
:1007F000014800F0B5B80000A4020020014800F054
:10080000AFB80000D8010020014800F0A9B80000EE
:1008100094010020014800F0A3B800001C02002051
:10082000014800F09DB8000060020020704770474A
:100830002DE9F05F90F821100024022903D0042153
:100840008163012485E001680A6822F00E020A60D3
:1008500001680A6822F001020A603F4E3E4FB2155D
:10086000DFF8F4C0DFF8F090DFF8ECA0DFF8E8B0D4
:10087000DFF8E4E00168783F13011502ACF1640C85
:10088000A9F15009AAF13C0AABF1280BAEF1140E04
:100890004FF48018B14227D9B9420ED0614512D029
:1008A00049451DD0514518D0594518D0714501D141
:1008B000424615E0294EB14201D1012210E0274EF7
:1008C0001436B14201D110220AE0244E2836B1423A
:1008D00006D0224A3C32914201D11A4600E02A4613
:1008E0001E49091F0A602BE0B94213D0614517D099
:1008F000494522D051451DD059451DD0714501D1E2
:1009000042461AE0B14202D14FF0807215E0134E18
:10091000B14201D1012210E0104E1436B14201D192
:1009200010220AE00D4E2836B14206D00B4A3C3266
:10093000914201D11A4600E02A46074980394A60AF
:10094000012180F82110002180F82010416B01B1B5
:1009500088472046BDE8F09F80000240080402401E
:100960002DE9F05FC16B0A6801680B68046C4FF0F9
:10097000040808FA04F8844D844E854FDFF814C249
:10098000DFF81492DFF814A2DFF814B2DFF814E2F3
:1009900018EA020F65D05FEA437862D50A689206CA
:1009A00003D40A6822F004020A60DFF8F0814FF4F1
:1009B0008062016808F1140813011402414524D92A
:1009C000A9420DD0B1420FD0B9421AD0614515D01D
:1009D000494515D0514501D1120312E0594501D1C5
:1009E00004220EE0714501D140220AE06D4D14351C
:1009F000A94206D06B4A2832914201D11A4600E042
:100A000022466749091F0A6029E0A94213D0B14272
:100A100015D0B94220D061451BD049451BD0514566
:100A200002D14FF4800217E0414502D14FF08062BD
:100A300012E0594501D104220EE0714501D1402256
:100A40000AE0584D1435A94206D0564A2832914240
:100A500001D11A4600E022464B4908394A60C16A72
:100A600071E04FF0020808FA04F818EA020F70D09B
:100A70005FEA83786DD50A68920606D40A6822F088
:100A80000A020A60012180F82110DFF810814FF47A
:100A90000072016808F1140813011402414524D9B9
:100AA000A9420DD0B1420FD0B9421AD0614515D03C
:100AB000494515D0514501D1120312E0594501D1E4
:100AC00002220EE0714501D120220AE0354D143595
:100AD000A94206D0334A2832914201D11A4600E099
:100AE00022462F49091F0A6029E0A94213D0B142CA
:100AF00015D0B94220D061451BD049451BD0514586
:100B000002D14FF4001217E0414502D14FF00072BC
:100B100012E0594501D102220EE0714501D1202297
:100B20000AE0204D1435A94206D01E4A28329142CF
:100B300001D11A4600E02246134908394A600021D3
:100B400080F82010816A00291CD0BDE8F05F0847BA
:100B5000FFE70825A540154214D01A0712D50A68E8
:100B600022F00E020A6090F84020C36B012101FAC6
:100B700002F25A60816380F82110002180F8201071
:100B8000016BE0E7BDE8F09F080002401C00024056
:100B90003000024044000240580002406C00024015
:100BA000080402401C04024030B560B11A4B0268D0
:100BB00014219A4209D2194B1344B3FBF1F1890075
:100BC000016417490AE0012030BD134B5B42134416
:100BD000B3FBF1F1890001640F490839C1630221B7
:100BE00080F82110136843F6F0718B43F0E901148B
:100BF0002143D0E902452C43214304692143446940
:100C0000214384692143194311600021416301227A
:100C100042770177084630BD08040240F8FFFDBF67
:100C20000000024070B5044600F014F90546601C4F
:100C300002D004480078044400F00CF9401BA042A4
:100C4000FAD370BD000000202DE9F84FDFF8C891FD
:100C5000002409F1040A0AF1040B23460F270BF1C3
:100C6000040ED1E00125A54006EA0502AA4276D18C
:100C7000DFF8A8C14E68A6EB0C0866452BD00DDC4A
:100C8000032E34D005DC36B3012E19D0022E2FD11D
:100C90001BE0112E16D0122E2AD119E0B8F5881FAC
:100CA00019D006DCB8F5803F15D0B8F5801F1FD1EC
:100CB00011E0B8F5001F0ED0B8F5041F18D10AE0F6
:100CC000CB6815E0CB681B1D12E0CB6808330FE042
:100CD000CB680C330CE08B682BB1012B4FF0080371
:100CE00003D0456104E0042302E0056100E0002335
:100CF000FF2A01D8064601E000F104064FEA840508
:100D000001D9A5F12005D6F8008007FA05FC28EAEC
:100D10000C0803FA05F548EA0508C6F800804D6896
:100D2000ED0070D53E4DAE6946F00106AE61AD698D
:100D300024F0030605F0010500953A4D06EB050C7D
:100D4000DCF80850A607360F07FA06F825EA08056A
:100D5000DFF8D480404503D14FF0000825E052E091
:100D6000DFF8C880404502D14FF001081DE0DFF8F0
:100D7000C080404502D14FF0020816E0DFF8B48091
:100D8000404502D14FF003080FE0DFF8AC8040454A
:100D900002D14FF0040808E0DFF8A080404502D1FE
:100DA0004FF0050801E04FF0060808FA06F848EA97
:100DB0000508CCF808804D68D9F80060ED034D4671
:100DC00001D5164300E096432E604D68DAF80060C6
:100DD000AD03554601D5164300E096432E604D689D
:100DE000DBF80060ED025D4601D5164300E0964356
:100DF0002E604D68DEF80060AD02754601D51643E1
:100E000000E096432E60641C0A681646E2407FF4B8
:100E100029AFBDE8F88F0000000401400000111068
:100E2000001002400000014000080140000C014099
:100E3000001001400014014000180140001C014056
:100E40008068084000D0012070470AB101617047F6
:100E50000904FBE70148806870470000000000209B
:100E600002488168027811448160704700000020C8
:100E7000074810B5016841F010010160032000F03F
:100E80007BF80F2000F006F800F024F8002010BDD9
:100E90000020024070B50D4D04464FF47A71287859
:100EA000B1FBF0F00A490968B1FBF0F000F0F2FA8A
:100EB00048B9102C07D200222146501E00F03CF801
:100EC00000206C6070BD012070BD0000000000209B
:100ED0000C0000200F4808B5816941F001018161D3
:100EE000816901F001010091C16941F08051C16146
:100EF000C069002200F0805000900F21901E00F089
:100F00001BF80548416821F0E06141F00071416043
:100F100008BD00000010024000000140002809DB6D
:100F200000F01F02012191404009800000F1E02003
:100F3000C0F8001170470000F0B40E4B1B680C465F
:100F4000C3F30223C3F10705042D00D90425191D9D
:100F5000072901D2002300E0DB1E012606FA05F175
:100F6000491E214099409E40761E16403143F0BCF8
:100F700000F06FBF0CED00E0064900F007020868C2
:100F80004FF6FF03184040EA0220034A104308606E
:100F9000704700000CED00E00000FA052DE9F04775
:100FA0000F46050061D0434E306800F00700B8429C
:100FB00009D2306820F0070038433060306800F014
:100FC0000700B84251D128683B4C810712D5400731
:100FD00003D5606840F4E06060602878000703D5BE
:100FE000606840F4605060606068A96820F0F000BC
:100FF000084360602878C00728D06868012810D0AE
:101000002168022810D0890700292EDA616821F0B2
:10101000030101436160FFF71DFF804641F28839FB
:101020000DE021688903EFE78901EDE7FFF712FF83
:10103000A0EB0801494502D90320BDE8F0876068AC
:10104000696800F00C00B0EB810FEFD1306800F060
:101050000700B8420BD9306820F0070038433060F1
:10106000306800F00700B84201D00120E5E7287899
:10107000400705D56068E96820F4E06008436060D7
:101080002878000706D56068296920F4605040EA96
:10109000C100606000F038F86168084AC1F30311CC
:1010A000515CC8400649086006480068FFF7F2FE38
:1010B0000020C2E700200240001002404026000845
:1010C0000C0000200400002004480549006849681D
:1010D000044AC1F30221515CC84070470C00002053
:1010E000001002405026000804480549006849687D
:1010F000044AC1F3C221515CC84070470C00002073
:10110000001002405026000812A185B00FC98DE8DA
:101110000F0014A0144A006804905168134801F0AD
:101120000C03042B10D0082B0ED1C1F38343C90349
:101130001DF803000AD5516804AAC1F34041515C6F
:101140000A4A5043B0FBF1F005B0704708494843E4
:10115000FAE7000002030405060708090A0B0C0D54
:101160000E0F1010010200000010024000127A0061
:1011700000093D002DE9F84F040070D02078C04DE3
:10118000C00749D06868C0F38100012807D06868AB
:10119000C0F38100022809D16868C00306D5286819
:1011A000800339D560680028E7D035E06068B0F585
:1011B000803F0BD010B1B0F5A02F11D0286820F4DB
:1011C00080302860286820F4802002E0286840F4FD
:1011D00080302860606890B1FFF73CFE06460AE068
:1011E000286840F480202860F0E700BFFFF732FE57
:1011F000801B642873D828688003F7D50CE0FFF7BC
:1012000029FE064605E000BFFFF724FE801B642888
:10121000F0D828688003F7D420789A4E80074FF0E2
:1012200001094FF0000839D5686810F00C0F07D09D
:101230006868C0F38100022809D16868C00306D439
:101240002868800714D52069012808D110E020699A
:10125000B0B1C6F80090FFF7FDFD074605E00AE1D2
:10126000FFF7F8FDC01B0228C4D828688007F7D50F
:101270002868616920F0F80040EAC10028600DE0AC
:10128000C6F80080FFF7E6FD074604E0FFF7E2FD41
:10129000C01B022823D828688007F7D420780007CD
:1012A0002CD57948A169D9B1C0F80090FFF7D2FDDB
:1012B000074604E0FFF7CEFDC01B02280FD8686A7E
:1012C0008007F7D571484FF4FA510068B0FBF1F090
:1012D000009000BF0098411E0091FAD20EE080E01D
:1012E000C0F80080FFF7B6FD074604E0FFF7B2FD47
:1012F000C01B022875D8686A8007F7D42078400799
:1013000060D5E8690027C00008D4E86940F0805043
:10131000E861E869012700F0805000905C480168AE
:10132000C90513D40168834641F480710160FFF759
:1013300091FD824606E000BFFFF78CFDA0EB0A009E
:1013400064284ED8DBF80000C005F5D5E068012818
:101350000AD008B1052813D0286A20F001002862BD
:10136000286A20F0040002E0286A40F001002862A8
:10137000E06841F2883B98B1FFF76CFD82460BE0D4
:10138000286A40F004002862EEE700BFFFF762FD24
:10139000A0EB0A0159455AD8286A8007F6D50CE017
:1013A000FFF758FD824605E0FFF754FDA0EB0A0168
:1013B00059454CD8286A8007F6D41FB1E86920F057
:1013C0008050E861E06988B36968C1F3810102294E
:1013D00044D00228C6F8608004D0FFF73BFD0446E5
:1013E00038E034E0FFF736FD074604E0FFF732FD52
:1013F000C01B02282BD828688001F7D4206AB0F5DA
:10140000803F05D16868A16820F400300843686017
:10141000D4E908010843696821F47411084368603D
:10142000C6F86090FFF716FD044606E025E000BF11
:10143000FFF710FD001B022809D828688001F7D5A6
:101440001BE000BFFFF706FD001B022802D90320A6
:10145000BDE8F88F28688001F4D40EE00128F7D0A9
:101460006868226A00F48031914204D1616A00F414
:101470007010884201D00120EAE70020E8E7000070
:101480000010024000004242800442420C00002052
:101490000070004010B5401EB0F1807F01D30120E4
:1014A00010BD4FF0E02460610F21601700F0D1FC07
:1014B0000020A06107202061002010BD70470000BF
:1014C00070B5026804461068D168536910F00F0FB8
:1014D00050D003F0010501F4907635435DD0C2078A
:1014E00005D0CA0503D5E26B42F00102E263420770
:1014F00005D5DA0703D0E26B42F00202E26382070D
:1015000005D5DA0703D0E26B42F00402E26302077A
:1015100005D5DA0703D0E26B42F00802E263E26B22
:10152000002A33D0800604D5880602D5204600F074
:10153000A3FB20684069E16BC0F38010090700D469
:1015400028B3204600F08AFB2068416949061AD575
:10155000416921F040014161606BA0B11B494163C9
:10156000606BFFF765F9002810D0606B416BBDE838
:1015700070400847830610D58B060ED52046BDE87F
:10158000704000F079BB2046FFF798FF70BD204601
:10159000FFF794FF0020E06370BD030606D50B063D
:1015A00004D52046BDE8704000F00EBC4006F3D5DF
:1015B0004806F1D5D168204621F04001D1602021B4
:1015C00084F8391000F0BDF970BD00004D1C000812
:1015D00070B5040004D094F83900002510B106E07D
:1015E000012070BD84F83850204600F023F82420F4
:1015F00084F839002068C16821F40051C160204698
:1016000000F086FB2068016921F4904101612068A7
:10161000416921F02A0141612068C16841F400510B
:10162000C160E563202084F8390084F83A00002086
:1016300070BD00002DE9F04F85B0002400940194A6
:10164000029403940546B14ED0F800C0B048022180
:101650000322B04B4FF480694FF4006AB4451DD1AA
:10166000C56945F40025C561C56905F400250495E3
:10167000856945F0100585618069CDE9009100F02C
:101680001000CDE9032069461D461846FFF7DCFA35
:10169000CDE900A469462846029429E09E4F4FF008
:1016A000040BBE14BC4528D1C56945F48015C5613D
:1016B000C56905F480150495856945F010058561B7
:1016C000856905F010050495856945F0200585615B
:1016D0008069CDE9006100F02000CDE90320694672
:1016E0001846FFF7B1FACDE900B469468B48029479
:1016F000FFF7AAFA05B0BDE8F08FDFF82482894B26
:101700008027C4455AD1D0F818C04CF4804CC0F89A
:1017100018C0D0F818C00CF4804CCDF810C0D0F828
:1017200018C04CF0040CC0F818C08069039200F097
:10173000040004905815CDE9000169469846184602
:10174000FFF782FACDE90094694640460294FFF71C
:101750007BFADFF8D88174494046B946C0E90014E5
:10176000C0E90247C8F81040C8F81440C8E9064666
:10177000FFF71AFA08B1FFF75AF86C4F6A48C5F834
:10178000348044371438C8F8245001C71020A7E823
:101790001102664847F8104944307C61C7E90646A3
:1017A000FFF702FA08B1FFF742F82F630022052184
:1017B00025207D62FFF7C0FB252061E0DFF8708106
:1017C000C44560D1D0F81CC04CF4003CC0F81CC02B
:1017D000D0F81CC00CF4003CCDF810C0D0F818C0F4
:1017E0004CF0040CC0F818C08069CDE900B100F0DD
:1017F0000400CDE90320694698461846FFF724FA0D
:101800000820CDE90004A146694640460294FFF74E
:101810001BFADFF81881444908F188084046143162
:10182000C0E90014C0E90247C8F81040C8F81440E5
:10183000C8E90646FFF7B8F908B1FEF7F8FF3B4CD8
:101840003948C5F83480CC342830C8F8245020609A
:1018500010206060C4E90297C4F81090C4F8149096
:10186000C4E906962046FFF79FF908B1FEF7DFFFAF
:101870002C630022052126206562FFF75DFB2620F0
:10188000FFF74CFB36E72B4B9C45FBD1C36943F478
:101890008023C361C36903F480230493836943F005
:1018A000080383618069CDE9009100F00800CDE96B
:1018B0000320DFF8848069464046FFF7C5F9CDE98B
:1018C00000A4694640460294FFF7BEF9DFF86C8039
:1018D000154940462839C0E90014C0E90247C8F854
:1018E0001040C8F81440C8E90646FFF75DF908B192
:1018F000FEF79DFFC5F83480002205212720C8F897
:101900002450FFF719FB2720BAE70000004C0040E5
:10191000001002400010014000500040001401403F
:1019200000380140000801405800024094010020A6
:101930000044004000480040000C0140A402002088
:1019400070477047FEE70000194808B5416941F04B
:10195000010141614069002200F001000090052171
:101960000D20FFF7E9FA0D20FFF7D8FA0022052134
:101970000E20FFF7E1FA0E20FFF7D0FA0022052132
:101980000F20FFF7D9FA0F20FFF7C8FA0022052130
:101990001020FFF7D1FA1020FFF7C0FA002205212E
:1019A0001120FFF7C9FABDE808401120FFF7B6BAC9
:1019B000001002402DE9F04186B000242D4800942B
:1019C000019402940394816941F01001816181695D
:1019D00001F010010491816941F020018161816968
:1019E00001F020010491816941F004018161816964
:1019F00001F004010491816941F00801816180696D
:101A00001D4F00F0080042F2020504900022294612
:101A10003846FFF71AFADFF86480012244F2050124
:101A20004046FFF712FA00224FF400414046FFF70C
:101A30000CFA0095022601250396CDE9015469466A
:101A40003846FFF701F90520CDE900050320CDE96F
:101A5000024069464046FFF7F7F84FF44040CDE9B1
:101A60000005CDE9024669464046FFF7EDF806B0AD
:101A7000BDE8F0810010024000100140000C014060
:101A80000C4810B50A4901604FF4E1314160002172
:101A900081600C22C160C0E904128161C161FFF75D
:101AA00097FD002803D0BDE81040FEF7C0BE10BD72
:101AB000004C0040540000200C4810B50A49016059
:101AC0004FF4E1314160002181600C22C160C0E926
:101AD00004128161C161FFF77BFD002803D0BDE8DE
:101AE0001040FEF7A4BE10BD00500040940000203E
:101AF0000C4810B50A4901604FF4E1314160002102
:101B000081600C22C160C0E904128161C161FFF7EC
:101B10005FFD002803D0BDE81040FEF788BE10BD71
:101B200000380140D40000200C4810B50A4901607B
:101B30004FF4E1314160002181600C22C160C0E9B5
:101B400004128161C161FFF743FD002803D0BDE8A5
:101B50001040FEF76CBE10BD004400401401002090
:101B60000C4810B50A4901604FF4E1314160002191
:101B700081600C22C160C0E904128161C161FFF77C
:101B800027FD002803D0BDE81040FEF750BE10BD71
:101B90000048004054010020FEE7704710B5FFF7F1
:101BA0005FF900F0DBFC012803D0BDE8104000F035
:101BB000BFBC10BD30B58FB028216846FEF737FB9B
:101BC00014210AA8FEF733FB01210804CDE9001017
:101BD0000024029402250491CDE907504FF4E0104F
:101BE00009906846FFF7C6FA0F20CDE90A0568029A
:101BF000CDE90C4002210AA80E94FFF7CFF90FB0EF
:101C000030BD00000D48016841F0010101604168EC
:101C10000B4A1140416001680A4A114001600168A5
:101C200021F480210160416821F4FE0141604FF4FC
:101C30001F0181600449C003086070470010024022
:101C40000000FFF8FFFFF6FE08ED00E010B5406A67
:101C50000021C185C184FFF731FC10BD0168CA684D
:101C600022F49072CA6001684A6922F001024A6156
:101C7000202180F83A10704710B590F83A102229C8
:101C800001D0022010BD8168B1F5805F11D00169DB
:101C9000002901681FD0496801F07F03816A4A1C4E
:101CA00082620B70C18D491E0904090CC18518D0D0
:101CB0002BE00269816A002A0268526805D0D2B21C
:101CC0000A80816A491C8162ECE7C2F308020A803B
:101CD000816A891CF7E74A68816A4B1C83620A7033
:101CE000E0E70168CA6822F02002CA600168CA6899
:101CF00022F48072CA6001684A6922F001024A61D6
:101D0000202180F83A10FFF71BFE002010BD0000D4
:101D10002DE9F041044600680169E26821F4405170
:101D2000114301612169A068084361690843216882
:101D3000CA6841F20C639A430243CA602068416951
:101D4000A26921F44071114341611E492068642554
:101D50003226884202D1FFF7C7F901E0FFF7B4F954
:101D600000EBC00101EB001160686FF01807800004
:101D7000B1FBF0F2B2FBF5F2B1FBF0F37A4303EB07
:101D80008202B1FBF0F306EB0212B2FBF5F2B3FBF9
:101D9000F5F302F0F00202EB0312B1FBF0F3B1FB3A
:101DA000F0F0B0FBF5F0784303EB800006EB001099
:101DB000B0FBF5F0216800F00F0010448860BDE82A
:101DC000F08100000038014090F83910212901D03D
:101DD000022070478168B1F5805F016A0BD04A1C10
:101DE0000262026809785160C18C491E0904090C1D
:101DF000C1840ED017E009880268C1F30801516060
:101E000001690029016A02D0491C0162ECE7891CC2
:101E1000FBE70168CA6822F08002CA600068C168F6
:101E200041F04001C1600020704700000148FFF709
:101E300047BB0000D40000200148FFF741BB000071
:101E4000140100200148FFF73BBB000054010020B3
:101E5000FEE70907090E002804DB00F1E02080F806
:101E60000014704700F00F0000F1E02080F8141D0E
:101E7000704702E008C8121F08C1002AFAD1704753
:101E80007047002001E001C1121F002AFBD17047FA
:101E900010B504460846FEF774FB084A084BFEF7E7
:101EA00078FA0022074BFEF7CDF9FEF777FB0246E2
:101EB0002046BDE81040012100F0A0BA9A999999F6
:101EC0009999014000C06340064801680648B1FB8B
:101ED000F0F2064802704FF47A72B1FBF2F1416001
:101EE000704700000C00002080841E0010000020BD
:101EF00070B54FF0E024002265690949A36949687B
:101F00004843A1699942FCD002D2A3EB010302E04D
:101F1000A5EB010633441A440B468242F1D370BD4F
:101F20001000002070B54FF0E024002265690949D7
:101F3000A36909784843A1699942FCD002D2A3EB76
:101F4000010302E0A5EB010633441A440B4682422A
:101F5000F1D370BD100000202DE9F041C1F30A5209
:101F6000A2F2FF362F4A304B0D460446142E2FDACC
:101F7000002E12DAFEF766F900221346FEF70CFC7B
:101F80004CD2002DA4BF0024254647DA25F000409E
:101F9000204318BF254D41D018E0DFF894C02CFA3B
:101FA00006F705EA070C5CEA040C08BFBDE8F081FF
:101FB000FEF748F900221346FEF7EEFB2ED2002D65
:101FC00003DA4FF48010F0400544BD43002425E0BF
:101FD000332EC8BFBDE8F081A6F1140C4FF0FF37D7
:101FE00027FA0CF73C4208BFBDE8F081FEF7CEF9B6
:101FF00000221346FEF7D0FB10D2002D0DDA142E6E
:1020000008BF6D1C09D0C6F13400012101FA00F0AF
:102010002044A04238BF6D1C0446BC4329462046DC
:10202000BDE8F0819C7500883CE4377E0000F0BF7D
:10203000FFFF0F0010B5124C002204212046FEF7CE
:1020400004FF206820F00F002060206840F00300AB
:102050002060002201212046FEF7F7FE0220FFF754
:1020600061FF012204212046FEF7EFFE0220FFF768
:1020700059FF20460022BDE810400421FEF7E5BECE
:10208000000C014010B5124C002204212046FEF73E
:10209000DCFE206820F00F002060206840F0030084
:1020A0002060012211462046FEF7CFFE0220FFF7F6
:1020B00039FF012204212046FEF7C7FE0220FFF768
:1020C00031FF20460022BDE810400421FEF7BDBECE
:1020D000000C01402DE9F041184C0746002520680E
:1020E00020F00F002060206840F0080020602E469D
:1020F000002204212046FEF7A8FE0220FFF712FF6F
:10210000012204212046FEF7A0FE6806050E0121EB
:102110002046FEF795FE08B16D1CEDB20120FFF7D9
:1021200001FF761CF6B2082EE2D327B1FFF782FF3B
:102130002846BDE8F081FFF7A5FFF9E7000C014054
:1021400070B5174E05463046316821F00F013160F9
:10215000316841F00301316000220421FEF775FE71
:102160000024EA0901213046FEF76FFE6806050EDD
:102170000220FFF7D7FE012204213046FEF765FE5C
:102180000220FFF7CFFE002204213046FEF75DFE5D
:102190000220FFF7C7FE641CE4B2082CE1D370BD37
:1021A000000C014010B5124C206820F00F00206098
:1021B000206840F003002060012211462046FEF70F
:1021C00044FE012204212046FEF73FFE0420FFF7D3
:1021D000A9FE002201212046FEF737FE0420FFF76A
:1021E000A1FE20460022BDE810400421FEF72DBECE
:1021F000000C014010B5124C206820F00F00206048
:10220000206840F003002060002204212046FEF7F1
:102210001CFE002201212046FEF717FE0420FFF7D6
:1022200081FE012204212046FEF70FFE0122114605
:102230002046FEF70AFEBDE810400420FFF772BEFC
:10224000000C014070B5184C0025206820F00F00EC
:102250002060206840F008002060012211462046DE
:10226000FEF7F3FD0120FFF75DFE01220421204669
:10227000FEF7EBFD0120FFF755FE07E06D1CEDB208
:10228000FA2D03D9FFF7B6FF012070BD01212046CA
:10229000FEF7D6FD0028F1D1002204212046FEF7EA
:1022A000D4FD002070BD0000000C0140FEF7E0FDF1
:1022B000FFF780FCFFF77EFBFFF746FBFFF734FCE0
:1022C000FFF74EFCFFF7DCFBFFF7F6FBFFF710FC18
:1022D0005A210B4800F016F8FFF7F6FD4FF47A7418
:1022E00000210F20FFF7D4FD2046FFF701FE5A2101
:1022F0000F20FFF7CDFD2046FFF7FAFDF0E70000C5
:102300000000484210B504460021084600F09AF843
:10231000204600F023F8BDE810404FF4FA70FEF7B5
:1023200081BC10B50446FFF73DFF8020FFF708FF92
:10233000FFF788FF2046FFF703FFFFF783FFFFF754
:1023400031FF8120FFF7FCFEFFF77CFF0020FFF745
:10235000C1FE0446FFF74EFF204610BD70B5FEF7E4
:1023600036F9214A214BFEF714F8FEF743F90646E9
:102370006FF00B0200201E49FEF7ECF804460D46F4
:102380003046FEF724F902460B4620462946FEF762
:1023900072F80022174BFDF7F6FF0022164BFDF7EF
:1023A00051FFFFF7D9FDFEF7F9F8C5B20020FFF79E
:1023B000B8FF044600F07F0040F01001002000F05C
:1023C00041F82946FE2000F03DF82146002000F0AB
:1023D00039F80220FEF726FC44F0A101BDE8704068
:1023E000002000F02FB80000713D0AD7A370ED3F28
:1023F00084D777410000F03F0000E03F70B504460D
:1024000006200E4600EB84001546C9B2C0B200F0AB
:1024100019F8072000EB8400C0B2C6F3072100F0D2
:1024200011F8082000EB8400E9B2C0B200F00AF80D
:10243000092000EB8400C5F30721BDE87040C0B25D
:10244000AFF3008070B50D460446FFF7ABFE802069
:10245000FFF776FEFFF7F6FE2046FFF771FEFFF767
:10246000F1FE2846FFF76CFEFFF7ECFEBDE870407A
:10247000FFF7C0BE06484168096829B14168C968CC
:10248000C9684968016370474FF0FF31FAE70000FF
:1024900018000020D0E9013201699A60D0E90123D7
:1024A0005A604A68824201D182684A600022026111
:1024B0000868401E08600868704742684A60936870
:1024C0008B6093685960916008610168491C0160E4
:1024D000704700001448816B11B1012141627047BF
:1024E000002141628169B1FA81F1C1F11F0101EB63
:1024F00081020E4951F822306BB101EB820101F1EA
:1025000008034A6852684A609A4201D152684A6098
:10251000D16801607047502080F31188BFF34F8F5E
:10252000BFF36F8FFEE7000018000020E8020020D4
:1025300010B5502080F31188BFF34F8FBFF36F8F1A
:1025400000F01AF818B104494FF0805008600020DC
:1025500080F3118810BD000004ED00E00548C1695A
:1025600019B1806B18B1002070470120704702201C
:1025700070470000180000202DE9F0412E4C002784
:10258000A06B40B1206A401C2062606A00B1012744
:102590003846BDE8F0816669761C666113D16068D3
:1025A000006838B1502080F31188BFF34F8FBFF31C
:1025B0006F8FFEE76068A1686160A060A06A401C40
:1025C000A062FFF757FF206BDFF87080864209D3C7
:1025D0006068006880B16068C068C56868688642E5
:1025E0000DD220632068C06A00EB800158F82100FA
:1025F0000128CAD90127C8E74FF0FF30F1E7281DAD
:10260000FFF748FFA86A18B105F11800FFF742FF6D
:10261000E86A0121A26981401143A16100EB8001B8
:1026200008EB8100291DFFF748FFE86A2168C96AA5
:102630008842CDD30127CBE718000020E802002014
:102640000000000000000000010203040607080962
:1026500000000000010203047826000800000020AA
:1026600054000000721E0008CC2600085400002010
:1026700084070000821E0008010000001000000016
:10268000000000000024F400000000000000000032
:10269000000000000000000000000000000000003A
:1026A000000000000000000000000000000000002A
:1026B000000000000000000000000000000000001A
:0C26C0000000000000000000000000000E
:0400000508000131BD
:00000001FF
