:020000040800F2
:10000000E008002045010008D3270008212100084E
:10001000D127000811090008213000080000000065
:100020000000000000000000000000005701000870
:1000300043090008000000005B010008D527000804
:100040005F0100085F0100085F0100085F01000810
:100050005F0100085F0100085F0100085F01000800
:100060005F0100085F0100085F0100085F010008F0
:100070005F010008130900085F0100085F01000824
:1000800015090008170900085F0100085F01000852
:100090005F0100085F0100085F0100085F010008C0
:1000A0005F0100085F0100085F0100085F010008B0
:1000B0005F0100085F0100085F0100085F010008A0
:1000C0005F0100085F0100085F0100085F01000890
:1000D0005F0100085F0100085F010008BD2E0008F5
:1000E0005F0100085F0100085F0100085F01000870
:1000F0005F0100085F0100085F0100085F01000860
:100100005F0100085F0100085F0100085F0100084F
:10011000152B00085F010008712800085F01000826
:100120005F0100085F0100085F0100085F0100082F
:10013000DFF80CD000F0DAFB004800479D340008DF
:10014000E00800200648804706480047FEE7FEE733
:10015000FEE7FEE7FEE7FEE7FEE7FEE7FEE7FEE777
:100160002928000831010008202A04DB203A21FA5E
:1001700002F00021704721FA02F3D040C2F12002C0
:100180009140084319467047D2B201E000F8012BB4
:10019000491EFBD270470022F6E710B513460A4607
:1001A00004461946FFF7F0FF204610BDF0B480EA80
:1001B0000102D40F4200B2EB410F02D202460846C0
:1001C00011464A0042D0C30DDDB2C1F3C752AD1A89
:1001D000202D35DAC1F3160141F4000204B1524278
:1001E000C5F1200602FA06F12A411044B3EBD05FB4
:1001F00023D0C4B1012DA0EBC35009DCF0BC4FF0FB
:10020000004202EAC352DBB200F5000000F0CABAB5
:10021000400000F1807000EBC350A0F1807040EA14
:10022000D170490009E0490841EAC071A0EBC35010
:1002300000F50000400800EBC350F0BC00F0A9BA84
:100240006142012202EB4101001BF6E7F0BC70475E
:1002500081F00041AAE780F00040A7E780EA0102B0
:1002600010B502F00043400022D04A001FD0010E1A
:1002700001EB1261C0F35600C2F3560240F40000D5
:1002800042F40002A0FB022000047F39140400D0D5
:10029000401C50EA124001D44000491EC2B20C0674
:1002A00004EBD010401C4008802A02D003E000205C
:1002B00010BD20F00100002900DA0020184310BD15
:1002C00030B480EA010202F0004530F0004221F033
:1002D000004013D090B1C30DD40DC2F31601C0F38A
:1002E0001600E41A41F4000140F400027D3491420A
:1002F00001D3641C00E04900002C02DA30BC00206D
:1003000070474FF400000023914201D3891A034340
:1003100040084FEA4101F7D151B1914202D14FF06B
:10032000004105E002D24FF0010101E06FF0010150
:1003300003EBC450284430BC00F02BBA2DE9FE4F2B
:10034000804681EA0300C00F0C46009021F0004176
:1003500023F00045B8EB0200A94105D240462146F2
:1003600090461C460B46024623F00040104347D0FF
:10037000270DC7F30A00C3F30A510290401A0190F7
:1003800040286BDAC3F3130040F4801B00989246B8
:1003900020B10023D2EB030A63EB0B0B0198594603
:1003A000C0F14002504600F0D3F906460D465046D3
:1003B0005946019A00F0DBF910EB08006141002476
:1003C00087EA115284EAE7731A4340D0009A62B375
:1003D000019A012A4FEA075215DC001B61EB02016A
:1003E0004FF0004202EA0752CDE90042001C41F5FD
:1003F000801132462B4600F012FA03B0BDE8F08FB0
:1004000040462146F9E7001B61EB0201001C41F563
:10041000801300185B412018A2F5001747EB030179
:1004200040EAD570B6196D4111E06D084FEA360605
:1004300045EAC0754FEA0752001B61EB0201001C40
:1004400041F5801149084FEA300000195141324608
:100450002B4603B0BDE8F04F00F0D2B9009801225E
:1004600040000023D0EB020263EBE07300982146CA
:100470004FEAE074B8EB000061EB0401E9E783F0B8
:1004800000435BE781F0004158E72DE9FE4F81EA28
:10049000030404F0004421F0004100944FF0000BED
:1004A00023F0004350EA01045ED052EA03045BD01B
:1004B000C3F30A54C1F30A552C44A4F2F334019453
:1004C000A0FB0254C1F3130141F48011C3F31303E1
:1004D00043F4801301FB024400FB034E840A970A95
:1004E00044EA815447EA8357A4FB076802958D0AC2
:1004F00005FB07854FEA932C04FB0C542705029D4E
:100500004FEA065847EA1637B5EB08056EEB070CBD
:10051000870E920E47EA811742EA8312A7FB020177
:10052000B6EB0B0164EB00042B0D43EA0C335E18B1
:1005300044EB1C50DA465146E7FB0201C5F31304B5
:100540004FEA0B3343EA14534FEA0432019C43EA67
:100550000603A4F10C040294009CCDE900B400F061
:100560005EF903B0BDE8F08F00200146F9E72DE900
:10057000F04D81EA030404F0004B21F000451446DD
:100580004FF0000A23F0004150EA050220D054EA5F
:1005900001021DD0C5F30A570246C5F31303C1F388
:1005A0001300C1F30A5640F4801543F48013A7EBFF
:1005B0000608101BD64608F2FD3873EB050002D37F
:1005C00008F1010801E092185B41B8F1000F03DA6D
:1005D00000200146BDE8F08D00204FF48011064652
:1005E00084460EE0171B73EB050705D3121B63EB64
:1005F000050306434CEA010C49084FEA3000921803
:100600005B4150EA0107EDD152EA030012D082EAC1
:10061000040083EA0501084305D0101BAB4106D254
:100620000122002306E000224FF0004302E06FF0B9
:10063000010253101AEB06004CEB085110EB0A00B4
:1006400041EB0B01BDE8F04D00F0DAB870B521F0D8
:10065000004303430CD0C1F30A550024D5EB040535
:1006600064EB0403D617AD1AB34102DB0020014648
:1006700070BD201841EB025170BD96230022114637
:1006800000F090B80EB5C10F80EAE0700844CA07C8
:10069000002140F233438DE80E000A460B4600F07D
:1006A000BEF803B000BD0EB540F233410291002107
:1006B000CDE900110A460B4600F0B1F803B000BDC9
:1006C000C1F30A5210B5C1F3130140F2FF3341F4F4
:1006D00080119A4201DA002010BD40F233439A4261
:1006E000A2F2334203DC5242FFF73EFD10BD9040C0
:1006F00010BD00F0004230F000400AD0C10D01F5FD
:100700006071C0F3160042EA0151C208400711436C
:10071000704700200146704701F0004330B421F0DB
:10072000004150EA010206D00A0DA2F56072C1F341
:100730001301002A02DC30BC00207047440F44EA59
:10074000C104C100E01830BC00EBC25000F021B879
:10075000202A04DB203A00FA02F100207047914081
:10076000C2F1200320FA03F3194390407047202A76
:1007700006DBCB17203A41FA02F043EAE07306E0C9
:1007800041FA02F3D040C2F12002914008431946D9
:1007900070470029A8BF7047401C490008BF20F0DF
:1007A0000100704710B4B0FA80FC00FA0CF050EA77
:1007B000010404BF10BC704749B1CCF1200421FAF8
:1007C00004F411FA0CF118BF012121430843A3EBF3
:1007D0000C01CB1D4FEA00614FEA102042BF002000
:1007E00010BC704700EBC35010440029A4BF10BCDC
:1007F0007047401C490008BF20F0010010BC704742
:1008000010B5141E73F1000408DA401C41F1000118
:1008100092185B411A4301D120F0010010BD2DE96F
:10082000F04D92469B4611B1B1FA81F202E0B0FA66
:1008300080F220329046FFF78BFF04460F4640EAD5
:100840000A0041EA0B0153465A46084313D01146A9
:1008500053EA010019D0C8F140025046FFF784FC6A
:1008600005460E46504659464246FFF771FF08437B
:1008700005D0012004E020463946BDE8F08D002077
:10088000054346EAE0762C4337430A986305E40AB9
:10089000A0EB08000022FD0A44EA47540A3002D5C2
:1008A00000200146E9E7010510196941DDE9084525
:1008B00000196941BDE8F04DA2E7000030B5041E03
:1008C00071F1000404DB4FF00044404264EB01018D
:1008D000141E73F1000405DB1C464FF00043524226
:1008E00063EB0403994208BF904230BD064C074DAC
:1008F00006E0E06840F0010394E8070098471034F0
:10090000AC42F6D3FFF718FC103800083038000866
:10091000FEE770477047704730B590F840500124AB
:10092000AC40C56B6C60046863604368102B03685F
:1009300003D099600068C26030BD9A600068C160F1
:1009400030BD7047704710B590F821100022022981
:1009500005D00421816380F82020012010BD0168AA
:100960000B6823F00E030B6001680B6823F0010392
:100970000B6090F84030C46B012101FA03F363600F
:1009800080F8211080F82020104610BD2DE9F05F7E
:1009900090F821100024022903D00421816301244E
:1009A00085E001680A6822F00E020A6001680A68A0
:1009B00022F001020A603F4E3E4FB215DFF8F4C04C
:1009C000DFF8F090DFF8ECA0DFF8E8B0DFF8E4E063
:1009D0000168783F13011502ACF1640CA9F15009CC
:1009E000AAF13C0AABF1280BAEF1140E4FF48018BB
:1009F000B14227D9B9420ED0614512D049451DD028
:100A0000514518D0594518D0714501D1424615E0DD
:100A1000294EB14201D1012210E0274E1436B142D5
:100A200001D110220AE0244E2836B14206D0224AD3
:100A30003C32914201D11A4600E02A461E49091F64
:100A40000A602BE0B94213D0614517D0494522D046
:100A500051451DD059451DD0714501D142461AE07E
:100A6000B14202D14FF0807215E0134EB14201D174
:100A7000012210E0104E1436B14201D110220AE0DA
:100A80000D4E2836B14206D00B4A3C32914201D17C
:100A90001A4600E02A46074980394A60012180F859
:100AA0002110002180F82010416B01B188472046B9
:100AB000BDE8F09F800002400804024030B560B1FC
:100AC0001A4B026814219A4209D2194B1344B3FB02
:100AD000F1F18900016417490AE0012030BD134B90
:100AE0005B421344B3FBF1F1890001640F490839FB
:100AF000C163022180F82110136843F6F0718B4323
:100B0000F0E901142143D0E902452C432143046953
:100B10002143446921438469214319431160002121
:100B20004163012242770177084630BD0804024044
:100B3000F8FFFDBF0000024070B5044690F82000A9
:100B4000002501280CD0012084F8200094F82160B1
:100B50000020012E06D084F820000225284670BD12
:100B6000022070BD022684F82160A0632068066818
:100B700026F0010606602046FFF7CEFEE06A002858
:100B80002068016802D041F00E0106E021F0040166
:100B900001602068016841F00A0101602068016875
:100BA00041F001010160D9E770B5044600F014F985
:100BB0000546601C02D004480078044400F00CF99B
:100BC000401BA042FAD370BD3C0000202DE9F84F35
:100BD000DFF8C891002409F1040A0AF1040B234646
:100BE0000F270BF1040ED1E00125A54006EA05020E
:100BF000AA4276D1DFF8A8C14E68A6EB0C0866457C
:100C00002BD00DDC032E34D005DC36B3012E19D0E9
:100C1000022E2FD11BE0112E16D0122E2AD119E050
:100C2000B8F5881F19D006DCB8F5803F15D0B8F5A7
:100C3000801F1FD111E0B8F5001F0ED0B8F5041FBA
:100C400018D10AE0CB6815E0CB681B1D12E0CB6819
:100C500008330FE0CB680C330CE08B682BB1012B11
:100C60004FF0080303D0456104E0042302E005616E
:100C700000E00023FF2A01D8064601E000F1040647
:100C80004FEA840501D9A5F12005D6F8008007FABE
:100C900005FC28EA0C0803FA05F548EA0508C6F839
:100CA00000804D68ED0070D53E4DAE6946F00106FE
:100CB000AE61AD6924F0030605F0010500953A4DDB
:100CC00006EB050CDCF80850A607360F07FA06F805
:100CD00025EA0805DFF8D480404503D14FF000082D
:100CE00025E052E0DFF8C880404502D14FF001080E
:100CF0001DE0DFF8C080404502D14FF0020816E049
:100D0000DFF8B480404502D14FF003080FE0DFF870
:100D1000AC80404502D14FF0040808E0DFF8A08025
:100D2000404502D14FF0050801E04FF0060808FAEF
:100D300006F848EA0508CCF808804D68D9F8006044
:100D4000ED034D4601D5164300E096432E604D68F5
:100D5000DAF80060AD03554601D5164300E096432E
:100D60002E604D68DBF80060ED025D4601D516434C
:100D700000E096432E604D68DEF80060AD027546D7
:100D800001D5164300E096432E60641C0A6816469F
:100D9000E2407FF429AFBDE8F88F00000004014075
:100DA0000000111000100240000001400008014046
:100DB000000C0140001001400014014000180140E7
:100DC000001C01408068084000D0012070470AB133
:100DD000016170470904FBE7014880687047000023
:100DE0003C0000200248816802781144816070470D
:100DF0003C000020074810B5016841F01001016077
:100E0000032000F07BF80F2000F006F800F024F833
:100E1000002010BD0020024070B50D4D04464FF477
:100E20007A712878B1FBF0F00A490968B1FBF0F05B
:100E300000F0F2FA48B9102C07D200222146501EC9
:100E400000F03CF800206C6070BD012070BD000017
:100E50003C000020000000200F4808B5816941F0E7
:100E600001018161816901F001010091C16941F0D5
:100E70008051C161C069002200F0805000900F21B4
:100E8000901E00F01BF80548416821F0E06141F038
:100E90000071416008BD00000010024000000140E8
:100EA000002809DB00F01F02012191404009800069
:100EB00000F1E020C0F8001170470000F0B40E4BC4
:100EC0001B680C46C3F30223C3F10705042D00D9A8
:100ED0000425191D072901D2002300E0DB1E01268D
:100EE00006FA05F1491E214099409E40761E1640A3
:100EF0003143F0BC02F095B80CED00E0064900F07B
:100F0000070208684FF6FF03184040EA0220034A30
:100F100010430860704700000CED00E00000FA0587
:100F20002DE9F0470F46050061D0434E306800F0D0
:100F30000700B84209D2306820F00700384330601B
:100F4000306800F00700B84251D128683B4C810757
:100F500012D5400703D5606840F4E06060602878EF
:100F6000000703D5606840F4605060606068A9685D
:100F700020F0F000084360602878C00728D0686837
:100F8000012810D02168022810D0890700292EDA04
:100F9000616821F0030101436160FFF71DFF804696
:100FA00041F288390DE021688903EFE78901EDE717
:100FB000FFF712FFA0EB0801494502D90320BDE865
:100FC000F0876068696800F00C00B0EB810FEFD12A
:100FD000306800F00700B8420BD9306820F00700F5
:100FE00038433060306800F00700B84201D001207B
:100FF000E5E72878400705D56068E96820F4E060F7
:10100000084360602878000706D56068296920F4E5
:10101000605040EAC100606000F038F86168084A3A
:10102000C1F30311515CC8400649086006480068D6
:10103000FFF7F2FE0020C2E700200240001002404D
:10104000F83700080000002040000020044805494F
:1010500000684968044AC1F30221515CC8407047E6
:10106000000000200010024008380008044805492C
:1010700000684968044AC1F3C221515CC840704706
:1010800000000020001002400838000812A185B0BE
:101090000FC98DE80F0014A0144A0068049051682D
:1010A000134801F00C03042B10D0082B0ED1C1F310
:1010B0008343C9031DF803000AD5516804AAC1F38C
:1010C0004041515C0A4A5043B0FBF1F005B0704713
:1010D00008494843FAE70000020304050607080927
:1010E0000A0B0C0D0E0F1010010200000010024040
:1010F00000127A0000093D002DE9F84F040070D07D
:101100002078C04DC00749D06868C0F3810001282D
:1011100007D06868C0F38100022809D16868C0035D
:1011200006D52868800339D560680028E7D035E007
:101130006068B0F5803F0BD010B1B0F5A02F11D092
:10114000286820F480302860286820F4802002E09D
:10115000286840F480302860606890B1FFF73CFE5A
:1011600006460AE0286840F480202860F0E700BFC7
:10117000FFF732FE801B642873D828688003F7D5F8
:101180000CE0FFF729FE064605E000BFFFF724FE4E
:10119000801B6428F0D828688003F7D420789A4E02
:1011A00080074FF001094FF0000839D5686810F04A
:1011B0000C0F07D06868C0F38100022809D1686865
:1011C000C00306D42868800714D52069012808D1F7
:1011D00010E02069B0B1C6F80090FFF7FDFD0746AA
:1011E00005E00AE1FFF7F8FDC01B0228C4D8286813
:1011F0008007F7D52868616920F0F80040EAC1004F
:1012000028600DE0C6F80080FFF7E6FD074604E021
:10121000FFF7E2FDC01B022823D828688007F7D417
:10122000207800072CD57948A169D9B1C0F8009081
:10123000FFF7D2FD074604E0FFF7CEFDC01B0228F2
:101240000FD8686A8007F7D571484FF4FA510068E3
:10125000B0FBF1F0009000BF0098411E0091FAD25F
:101260000EE080E0C0F80080FFF7B6FD074604E01E
:10127000FFF7B2FDC01B022875D8686A8007F7D453
:101280002078400760D5E8690027C00008D4E869E5
:1012900040F08050E861E869012700F0805000903C
:1012A0005C480168C90513D40168834641F4807124
:1012B0000160FFF791FD824606E000BFFFF78CFD5D
:1012C000A0EB0A0064284ED8DBF80000C005F5D575
:1012D000E06801280AD008B1052813D0286A20F058
:1012E00001002862286A20F0040002E0286A40F029
:1012F00001002862E06841F2883B98B1FFF76CFD7D
:1013000082460BE0286A40F004002862EEE700BF46
:10131000FFF762FDA0EB0A0159455AD8286A8007F9
:10132000F6D50CE0FFF758FD824605E0FFF754FDC7
:10133000A0EB0A0159454CD8286A8007F6D41FB1A2
:10134000E86920F08050E861E06988B36968C1F31A
:101350008101022944D00228C6F8608004D0FFF73A
:101360003BFD044638E034E0FFF736FD074604E075
:10137000FFF732FDC01B02282BD828688001F7D464
:10138000206AB0F5803F05D16868A16820F400307C
:1013900008436860D4E908010843696821F47411BE
:1013A00008436860C6F86090FFF716FD044606E043
:1013B00025E000BFFFF710FD001B022809D82868B0
:1013C0008001F7D51BE000BFFFF706FD001B0228D8
:1013D00002D90320BDE8F88F28688001F4D40EE01C
:1013E0000128F7D06868226A00F48031914204D164
:1013F000616A00F47010884201D00120EAE7002001
:10140000E8E700000010024000004242800442422F
:10141000000000200070004010B5401EB0F1807F39
:1014200001D3012010BD4FF0E02460610F2160174F
:1014300001F0F7FD0020A06107202061002010BD11
:101440007047704710B590F83C20012A22D0012245
:1014500080F83C20CA688C6822F4407222434C68B1
:1014600022F4806222430C6822F4006222430C6959
:1014700022F4805222434C6922F400522243C9696B
:10148000002322F480420A4301684A6480F83C3019
:10149000002010BD022010BD70B590F83C20012A3C
:1014A00019D0012400F83C4F0222427050F83C3C15
:1014B0005A689D6822F070060A684968324325F030
:1014C000800529435A6050F83C2C916044700021FB
:1014D0000170084670BD022070BD10B5040003D035
:1014E00094F83D0010B107E0012010BD002084F801
:1014F0003C00204600F00CF8022084F83D00211D3D
:10150000206801F0BBF9012084F83D00002010BDE7
:1015100008B5174A01681748914207D1816941F41B
:1015200000618161806900F400601EE0124A91420E
:1015300011D1C16941F01001C161C069002200F000
:101540001000009011463620FFF7B8FCBDE80840B7
:101550003620FFF7A5BC094A914207D1816941F4C1
:1015600000518161806900F40050009008BD0000C6
:10157000002C0140001002400010004000340140E7
:101580000168CA6842F00102CA600068816801F01F
:101590000701062903D0016841F001010160002024
:1015A000704770B5044690F83C00012817D001251B
:1015B00084F83C50022084F83D002068826822F0C4
:1015C000770222F47F4282600868502830D00DDC18
:1015D00020284DD005DC98B310283BD148E00220EC
:1015E00070BD302844D0402834D139E0602828D05C
:1015F000702806D0B0F5805F2CD0B0F5005F29D1FF
:101600000AE0CB68D1E90121206801F08AF920685D
:10161000816841F0770109E0CB68D1E901212068B8
:1016200001F07FF92068816841F48041816011E018
:10163000CA684968206801F049FA5021206807E02B
:1016400016E0CA684968206801F051FA60212068F4
:1016500001F071F984F83D50002084F83C0070BD21
:10166000CA684968206801F031FA40212068EFE734
:10167000226801461046EBE72DE9F0410D460400D3
:1016800003D094F83D0018B108E00120BDE8F081D6
:10169000002084F83C00204600F03AF8022084F84C
:1016A0003D002068816844F2070291438160211D5A
:1016B000206801F0E3F8226890689169166A2B6847
:1016C000AF69034340F20330814341EA0721A86830
:1016D000EF6908434FF6FC418843E96840EA072078
:1016E000014328692F6A000140EA0730084369680E
:1016F0006D6926F0220646EA0515294393602268A3
:10170000906120680162012084F83D000020BDE75F
:1017100070B586B000250095019502950395006887
:1017200041490124414A424EB0F1804F15D0414D0C
:10173000C023A84244D1C86940F00200C861C8690A
:1017400000F002000490886940F004008861886914
:10175000009300F00400049062E0C86940F00100CA
:10176000C861C86900F001000490886940F0040075
:101770008861886900F004000490886940F00800DE
:1017800088618869694600F0080004904FF40040C1
:10179000009002941046FFF719FA0820CDE90005E1
:1017A000694602943046FFF711FA2348416821F454
:1017B000407141F0E06141F48071416006B070BD5C
:1017C0001E4DA84217D1C86940F00400C861C8691D
:1017D00000F004000490886940F00800886188697E
:1017E000694600F008000490029400934FEA060056
:1017F000FFF7ECF9E2E7124B9842DFD1C86940F0FD
:101800000800C861C86900F008000490886940F0C9
:1018100004008861886900F00400049003200090AF
:10182000694610460294E3E70010024000080140B8
:10183000000C01400004004000000140000800408E
:10184000000C004010B50446006891B1042904D092
:101850000122002101F058F8206801225FF0040104
:1018600001F052F82068016841F001010160002098
:1018700010BD01220021F3E7704770B504460068EF
:1018800001694FF00005C943890715D4C168C943F0
:10189000890711D4E91E0161012020772068806941
:1018A0008007204602D0FFF7E7FF04E000F0D6F8FB
:1018B000204600F058F9257720680169C943490797
:1018C00017D4C168C943490713D46FF004010161FB
:1018D000022020772068806910F4407F204602D0E3
:1018E000FFF7CAFF04E000F0B9F8204600F03BF92A
:1018F000257720680169C943090716D4C168C9431F
:10190000090712D46FF008010161042020772068D4
:10191000C0698007204602D0FFF7AEFF04E000F068
:101920009DF8204600F01FF9257720680169C9431A
:10193000C90617D4C168C943C90613D46FF0100192
:101940000161082020772068C06910F4407F20469C
:1019500002D0FFF791FF04E000F080F8204600F08D
:1019600002F9257720680169C943C90708D1C16810
:10197000C943C90704D1891E0161204600F016F948
:1019800020680169C943090609D4C168C943090629
:1019900005D46FF0800101612046FFF751FD2068FA
:1019A0000169C943490609D4C168C943490605D438
:1019B0006FF040010161204600F000F920680169E4
:1019C000C94389060BD4C168C943890607D46FF09F
:1019D000200101612046BDE87040FFF732BD70BDB7
:1019E00000B585B000210091019102910391164B41
:1019F0000268164802219A420FD1826942F004021D
:101A000082618069039100F0040004904FF47060DB
:101A1000CDE9000169460E4811E00E4B9A4210D103
:101A2000826942F0100282618069039100F0100027
:101A300004904FF47070CDE9000169460648FFF745
:101A4000C5F805B000BD0000002C014000100240A8
:101A5000000801400034014000100140704770B59B
:101A6000044690F83C000D4601280DD0012684F86C
:101A70003C60022084F83D0042B1042A18D0082AB4
:101A80002AD00C2A4DD139E0022070BD206800F028
:101A90005BFF2068816941F00801816120688169EC
:101AA00021F004018161206881692A69114311E0F4
:101AB000206800F079FF2068816941F4006181614C
:101AC0002068816921F480618161206881692A69C7
:101AD00041EA0221816124E0206800F09BFF206838
:101AE000C16941F00801C1612068C16921F00401A8
:101AF000C1612068C1692A69114311E0206800F0C2
:101B0000BDFF2068C16941F40061C1612068C169FD
:101B100021F48061C1612068C1692A6941EA02211A
:101B2000C16184F83D60002084F83C0070BD10B5B0
:101B3000040003D094F83D0010B107E0012010BD6F
:101B4000002084F83C00204600F00CF8022084F8C5
:101B50003D00211D206800F091FE012084F83D0029
:101B6000002010BD7047704710B504460068012280
:101B700000F0CAFE0B492068884202D00A49884218
:101B800003D1416C41F4004141642068816801F057
:101B90000701062903D0016841F00101016000201E
:101BA00010BD0000002C0140003401400249884271
:101BB00001D100F0E9BA704788010020704710B5E4
:101BC00004460068416994F83920C1F3C011212A04
:101BD0000BD151B1416921F080014161206B08B105
:101BE000FEF7B1FE204601F055F82068416994F8EF
:101BF0003A20C1F38011222A0BD151B1416921F061
:101C000040014161606B08B1FEF79DFE204601F086
:101C100033F8002010BD704770B5026804461068A4
:101C2000D168536910F00F0F50D003F0010501F493
:101C3000907635435DD0C20705D0CA0503D5E26B67
:101C400042F00102E263420705D5DA0703D0E26BF6
:101C500042F00202E263820705D5DA0703D0E26BA5
:101C600042F00402E263020705D5DA0703D0E26B13
:101C700042F00802E263E26B002A33D0800604D50A
:101C8000880602D5204601F00EF820684069E16B15
:101C9000C0F38010090700D428B3204600F0ECFF01
:101CA0002068416949061AD5416921F04001416126
:101CB000606BA0B11B494163606BFEF767FE0028B3
:101CC00010D0606B416BBDE870400847830610D5AB
:101CD0008B060ED52046BDE8704000F0E4BF2046DC
:101CE000FFF799FF70BD2046FFF795FF0020E063E6
:101CF00070BD030606D50B0604D52046BDE870402E
:101D000001F078B84006F3D54806F1D5D1682046F1
:101D100021F04001D160202184F8391000F0FFF952
:101D200070BD0000D92B000870B5040004D094F8F1
:101D30003900002510B106E0012070BD84F838504C
:101D4000204600F023F8242084F839002068C16878
:101D500021F40051C160204600F0F0FF20680169C5
:101D600021F4904101612068416921F02A0141611B
:101D70002068C16841F40051C160E563202084F807
:101D8000390084F83A00002070BD00002DE9F04FC2
:101D900085B00024009401940294039405467F4E7C
:101DA00003687F4802210322DFF8F89101274FF4EE
:101DB000806C4FF4006BB34226D1C36943F4002317
:101DC000C361C36903F400230493836943F01003E0
:101DD00083618069CDE900C100F01000CDE90320E6
:101DE00069464D464846FEF7F1FECDF800B0CDE914
:101DF000014769462846FEF7E9FE002211463420D5
:101E0000FFF75CF8342086E0DFF89C814FF0040A8D
:101E10004FF48056434529D1C36943F48013C3610D
:101E2000C36903F480130493836943F0100383614F
:101E3000836903F010030493836943F020038361F3
:101E40008069CDE9006100F02000CDE903206946FA
:101E50004846FEF7BBFECDF800A0CDE90147694634
:101E60005248FEF7B3FE05B0BDE8F08FDFF84081C1
:101E70004FF08009434551D1C36943F40033C36136
:101E8000C36903F400330493836943F0040383615B
:101E90008069CDE900A100F00400CDE90320DFF85E
:101EA000148169464046FEF791FE08208DE89100B6
:101EB00069464046FEF78AFE404F3F48C846C7E99C
:101EC0000004C7E902493C617C61C7E9064638461F
:101ED000FEF7F4FD08B1FEF735FD6F637D62374F05
:101EE00035484437143001C71020A7E811013348A2
:101EF00047F8104944307C61C7E90646FEF7DEFD2D
:101F000008B1FEF71FFD2F630022114626207D62D7
:101F1000FEF7D4FF2620FEF7C3FFA4E7DFF8A0807A
:101F20004345A0D1C36943F48023C361C36903F46B
:101F300080230493836943F0080383618069CDE9BA
:101F400000C100F00800CDE90320DFF87880694681
:101F50004046FEF73BFECDF800B0CDE901476946AB
:101F60004046FEF733FE154F134888373C38C7E923
:101F70000004C7E902493C617C61C7E9064638466E
:101F8000FEF79CFD08B1FEF7DDFC6F6300221146F1
:101F900027207D62FEF792FF2720BCE7004C00401F
:101FA00000100240001001400050004000140140A9
:101FB00000440040000801406C000240080300207B
:101FC00000480040000C0140F8B5044690F83A0083
:101FD00020283CD1C1B3BAB394F83800012836D0D8
:101FE000012084F83800A162A2850025E563222043
:101FF00084F83A00636B17489862636B1648D8629E
:10200000636B16481863606B134645630846666B3E
:10201000216802463046091DFEF78EFD20680168E2
:102020004168009184F83850C16841F48071C16002
:102030002068416941F0010141612068416941F036
:10204000400141610020F8BDFFE70120FBE70220CD
:10205000F9E70000332C00086F2C0008E92B00087A
:10206000704770472DE9F843044690F839001F4641
:1020700016460D46202850D1A5B19EB194F83800DF
:1020800001284AD0012084F838004FF00008C4F835
:102090003C80212084F83900FEF79EFEA68481460C
:1020A000E68426E00120BDE8F883E08C401EE08451
:1020B000A0684B46B0F5805F4FF000024FF0800102
:1020C0002046009703D000F0C6FEE8B90DE000F00E
:1020D000C2FEC8B928882168C0F30800486020699A
:1020E00008B16D1C05E0AD1C03E0216815F8010B7B
:1020F0004860E08C0028D8D14B4600224021204681
:10210000009700F0A8FE08B10320CCE7202084F857
:10211000390084F838800020C5E70220C3E7704703
:10212000FEE72DE9F047044690460879CA78000199
:10213000002640EA02274879B146074327802672E5
:10214000354627FA05F0217A00F00100014421729A
:10215000FEF793FA58F82510FEF780F83146FEF79F
:1021600025F86D1CEDB206460A2DEAD3207A40B15F
:10217000FEF783FA01463046FEF7A2F86060BDE83C
:10218000F087C4F80490FAE71CB506A1FF23D1E953
:102190000001CDE90001062269460448FFF762FF0D
:1021A0001CBD0000FFFF0102080B00000802002018
:1021B0001CB506A1FF23D1E90001CDE900010622EB
:1021C00069460448FFF74EFF1CBD0000FFFF0202F6
:1021D000080C00000802002003480068C16841F0B4
:1021E0002001C1607047000008020020114808B5B6
:1021F000416941F0010141614069002200F00100A4
:10220000009005210D20FEF759FE0D20FEF748FE37
:10221000002205211020FEF751FE1020FEF740FE9F
:10222000002205211120FEF749FEBDE808401120DB
:10223000FEF736BE001002402DE9F04186B00025C1
:102240002E480095019502950395816941F0100192
:102250008161816901F010010491816941F02001DF
:102260008161816901F020010491816941F00401DB
:102270008161816901F004010491816941F00801E3
:10228000816180691E4F00F0080042F20204049050
:10229000002221463846FEF79AFDDFF868800122C9
:1022A00039144046FEF793FD002248F204014046EF
:1022B000FEF78DFD009401AA0124022682E8700039
:1022C00069463846FEF782FC0327CDE902470094B1
:1022D000694640460194FEF779FC04208DE8B10080
:1022E00069464046FEF772FCB8038DE87100694606
:1022F0004046FEF76BFC06B0BDE8F08100100240DE
:1023000000100140000C014010B596B000240F945D
:1023100010941194129413941C2168461494FDF7A0
:102320003AFF202107A8FDF736FF34483249016003
:102330000121C0E9011441F61F41C0E903144461C1
:102340008461FFF7CAF808B1FEF7FCFA4FF4805039
:102350000F900FA92948FFF724F908B1FEF7F2FA08
:102360002648FFF7E4FB08B1FEF7ECFA139413A933
:1023700022481494FFF790F808B1FEF7E3FA6020C2
:10238000CDE9000402940394049405940022694664
:102390001A480694FFF763FB08B1FEF7D3FA04224C
:1023A00069461648FFF75BFB08B1FEF7CBFA082237
:1023B00069461248FFF753FB08B1FEF7C3FA0C2237
:1023C00069460E48FFF74BFB08B1FEF7BBFA0794CE
:1023D000089409944FF400500A94CDE90B4007A9E2
:1023E00006480E94FFF72EF808B1FEF7ABFA034843
:1023F000FFF7F6FA16B010BD002C0140480000208F
:1024000010B58CB024216846FDF7C5FE002416489F
:1024100009944FF080410A94C0E900144FF6FF710F
:10242000C0E90241046184610320CDE90004012078
:10243000CDE9020408210491CDE90540CDE9074129
:1024400069460948FFF718F908B1FEF77BFA0994C5
:1024500009A905480A94FFF71FF8002801D0FEF7E4
:1024600071FA0CB010BD00008800002010B58CB0CF
:1024700024216846FDF78FFE00241648099414496C
:102480000A94C0E900144FF6FF71C0E902410461EB
:1024900084610320CDE900040120CDE90204082174
:1024A0000491CDE90540CDE9074169460948FFF7A8
:1024B000E3F808B1FEF746FA099409A905480A9419
:1024C000FEF7EAFF002801D0FEF73CFA0CB010BD81
:1024D00000040040C800002010B58CB024216846DC
:1024E000FDF759FE00241648099414490A94C0E9DE
:1024F00000144FF6FF71C0E90241046184610320BA
:10250000CDE900040120CDE9020408210491CDE9C0
:102510000540CDE9074169460948FFF7ADF808B124
:10252000FEF710FA099409A905480A94FEF7B4FFCA
:10253000002801D0FEF706FA0CB010BD00080040DC
:102540000801002010B58CB024216846FDF723FE59
:1025500000241648099414490A94C0E900144FF65F
:10256000FF71C0E90241046184610320CDE90004E8
:102570000120CDE9020408210491CDE90540CDE90F
:10258000074169460948FFF777F808B1FEF7DAF91D
:10259000099409A905480A94FEF77EFF002801D096
:1025A000FEF7D0F90CB010BD000C0040480100202F
:1025B0001CB500240F4800940D490194016040F2BD
:1025C000CF21C0E9011440F2CF71C1608021816147
:1025D000FEF783FF08B1FEF7B5F900946946054898
:1025E0000194FEF759FF002801D0FEF7ABF91CBD9E
:1025F000001000408801002010B596B000240F9410
:1026000010941194129413941C2168461494FDF7AD
:10261000C2FD202107A8FDF7BEFD34483249016004
:102620000121C0E9011441F61F41C0E903144461CE
:102630008461FEF752FF08B1FEF784F94FF4805031
:102640000F900FA92948FEF7ACFF08B1FEF77AF901
:102650002648FFF76CFA08B1FEF774F9139413A932
:1026600022481494FEF718FF08B1FEF76BF96020BA
:10267000CDE9000402940394049405940022694671
:102680001A480694FFF7EBF908B1FEF75BF904224C
:1026900069461648FFF7E3F908B1FEF753F9082237
:1026A00069461248FFF7DBF908B1FEF74BF90C2237
:1026B00069460E48FFF7D3F908B1FEF743F90794CE
:1026C000089409944FF400500A94CDE90B4007A9EF
:1026D00006480E94FEF7B6FE08B1FEF733F903483C
:1026E000FFF77EF916B010BD00340140C80100208C
:1026F0000C4810B50A4901604FF4E13141600021F6
:1027000081600C22C160C0E904128161C161FFF7E0
:102710000BFB002803D0BDE81040FEF713B910BD35
:10272000004C0040080200200C4810B50A49016026
:102730004FF4E1314160002181600C22C160C0E9A9
:1027400004128161C161FFF7EFFA002803D0BDE8F0
:102750001040FEF7F7B810BD0050004048020020BE
:102760000C4810B50A4901604FF4E1314160002185
:1027700081600C22C160C0E904128161C161FFF770
:10278000D3FA002803D0BDE81040FEF7DBB810BD37
:1027900000440040880200200C4810B50A4901603E
:1027A0004FF4E1314160002181600C22C160C0E939
:1027B00004128161C161FFF7B7FA002803D0BDE8B8
:1027C0001040FEF7BFB810BD00480040C80200200E
:1027D000FEE77047FEF706BB30B58FB0282168468C
:1027E000FDF7D9FC14210AA8FDF7D5FC0121080446
:1027F000CDE900100024029402250491CDE9075090
:102800004FF4E01009906846FEF776FC0F20CDE902
:102810000A056802CDE90C4002210AA80E94FEF7D1
:102820007FFB0FB030BD00000D48016841F0010191
:10283000016041680B4A1140416001680A4A114039
:102840000160016821F480210160416821F4FE01EA
:1028500041604FF41F0181600449C0030860704764
:10286000001002400000FFF8FFFFF6FE08ED00E058
:102870000148FFF702B8000088010020F0B50268A7
:102880001C4B1D4D1D4E1E4F1E4C4FF0804C984250
:1028900009D0A04207D0604505D0A84203D0B0427D
:1028A00001D0B84204D122F0700E4A6842EA0E020A
:1028B000984209D0A04207D0604505D0A84203D075
:1028C000B04201D0B84203D122F44075CA682A430D
:1028D0004D6922F080022A4302608A68C2620A6857
:1028E0008262984201D0A04201D1096901630121AD
:1028F0004161F0BD002C0140000400400008004090
:10290000000C00400034014010B501F01F0301210C
:10291000046A99408C430462016A9A40114301623F
:1029200010BD10B5846842EA032224F47F440A43B0
:102930002243826010BD826822F070020A4342F096
:102940000701816070470000F0B5026A22F00102C1
:102950000262036A42688469124E24F073050C68AF
:102960002C4323F002058B682B430D4DA84201D068
:10297000B04205D123F00807CB683B4323F00403A2
:10298000A84201D0B04205D14D6922F440721543EE
:102990008A692A4342608461496841630362F0BDE9
:1029A000002C014000340140F0B5026A22F0100210
:1029B0000262026A436884690D6824F4E64444EACA
:1029C00005248D6822F0200242EA05120F4D104EB8
:1029D000A84201D0B04206D1CF6822F0800242EA7C
:1029E000071222F04002A84201D0B04207D14D693F
:1029F00023F4406343EA85038D6943EA850343601A
:102A00008461496881630262F0BD0000002C0140CE
:102A100000340140F0B5026A22F480720262026A58
:102A20004368C46922F4007224F073050C68124EE6
:102A30002C438D6842EA05220E4DA84201D0B042D7
:102A400006D1CF6822F4006242EA072222F48062B3
:102A5000A84201D0B04207D14D6923F4405343EA64
:102A600005138D6943EA05134360C4614968C16376
:102A70000262F0BD002C01400034014030B5026A12
:102A800022F480520262046A4268C3690D6823F42A
:102A9000E64343EA05238D6824F4005444EA0534F0
:102AA000084DA84202D0084DA84204D14D6922F435
:102AB000804242EA85124260C3614968016404624F
:102AC00030BD0000002C01400034014010B5036A05
:102AD000046A24F001040462846924F0F00444EAE6
:102AE000021423F00A020A438461026210BD10B589
:102AF000036A23F0100303628369046A23F47043BA
:102B000043EA023224F0A00343EA01118261016228
:102B100010BD00002DE9F0412C480025006880061A
:102B200049D52A48001D0068294C0026C0B26178AA
:102B3000022902D0FF2838D038E026492278062A18
:102B4000885426D3062300200F46024617F800C0FB
:102B5000401C6244C0B292B29842F7D3D0B28A7994
:102B6000904215D10878012802D0022809D00FE040
:102B7000174A1849121D01F10C00FFF7D2FA01257E
:102B800006E0134A1349121D01F11800FFF7C9FAB4
:102B900066702078401C2070607800280BD1002DD2
:102BA00009D0BDE8F041FFF703BB11B1012904D002
:102BB00005E001206070BDE8F081FF2801D066705B
:102BC000F9E7022060702670F5E70000004C004035
:102BD00010000020B804002010B5406A0021C18513
:102BE000C184FFF718F810BD70B5446A20684069C9
:102BF00094F83910C0F3C0100025212904D118B170
:102C0000E584204600F046F82068406994F83A10C0
:102C1000C0F38010222904D118B1E585204600F0C8
:102C20002BF8E06B40F01000E0632046FEF7F3FF66
:102C300070BD10B50146406A09680968890613D459
:102C40000021C1850168CA6822F48072CA600168E7
:102C50004A6922F001024A6101684A6922F0400291
:102C60004A61202180F83A10FFF7FAF910BD10B53B
:102C7000406AFFF7F6F910BD0168CA6822F4907245
:102C8000CA6001684A6922F001024A61202180F885
:102C90003A1070470168CA6822F0C002CA60202159
:102CA00080F83910704710B590F83A10222901D0F9
:102CB000022010BD8168B1F5805F11D00169002943
:102CC00001681FD0496801F07F03816A4A1C826253
:102CD0000B70C18D491E0904090CC18518D02BE069
:102CE0000269816A002A0268526805D0D2B20A805D
:102CF000816A491C8162ECE7C2F308020A80816A9A
:102D0000891CF7E74A68816A4B1C83620A70E0E716
:102D10000168CA6822F02002CA600168CA6822F409
:102D20008072CA6001684A6922F001024A6120216A
:102D300080F83A10FFF794F9002010BD2DE9F0411A
:102D4000044600680169E26821F4405111430161C1
:102D50002169A0680843616908432168CA6841F293
:102D60000C639A430243CA6020684169A26921F456
:102D70004071114341611E49206864253226884212
:102D800002D1FEF773F901E0FEF760F900EBC00134
:102D900001EB001160686FF018078000B1FBF0F2E2
:102DA000B2FBF5F2B1FBF0F37A4303EB8202B1FB25
:102DB000F0F306EB0212B2FBF5F2B3FBF5F302F00F
:102DC000F00202EB0312B1FBF0F3B1FBF0F0B0FB49
:102DD000F5F0784303EB800006EB0010B0FBF5F054
:102DE000216800F00F0010448860BDE8F081000009
:102DF0000038014090F83910212901D00220704795
:102E00008168B1F5805F016A0BD04A1C02620268DA
:102E100009785160C18C491E0904090CC1840ED087
:102E200017E009880268C1F30801516001690029AF
:102E3000016A02D0491C0162ECE7891CFBE70168CA
:102E4000CA6822F08002CA600068C16841F040018F
:102E5000C160002070472DE9F041984617460E46A4
:102E60000446069D1DE0681C1BD02DB1FDF7B4FF84
:102E7000A0EB0800A84214D92068C16821F4D071E1
:102E8000C1602068416921F001014161202084F87E
:102E9000390084F83A00002084F838000320BDE8A7
:102EA000F0812068006836EA000004D00020B842B3
:102EB000D9D00020F3E70120F9E700002DE9F8431D
:102EC000514800680168C1F3001100297ED00168F3
:102ED0004FF00009406800904B48FEF770FE4B48E9
:102EE000006840684A4E4B4CC0F1C80030702078F2
:102EF00055287CD100210846225C401C1144C9B2EF
:102F00000A28F9DB434DA07AC8356FF00E078842D6
:102F100023D16078512820D1B4F902000001FDF7D7
:102F2000B1FB3A46FDF792FBFDF7F6FBE860B4F91A
:102F300004000001FDF7A6FB3A46FDF787FBFDF70D
:102F4000EBFB2861B4F906000001FDF79BFB3A4654
:102F5000FDF77CFBFDF7E0FB686100211620225C99
:102F6000401C1144C9B22028F9DB94F820008842A3
:102F70003DD1E07D53283AD1B4F91800FDF782FB2A
:102F8000DFF8948000224346FDF77FFA3A46FDF7CA
:102F90005DFBFDF7C1FB6860B4F91A00FDF772FB39
:102FA00000224346FDF771FA3A46FDF74FFBFDF765
:102FB000B3FBA860B4F91C00FDF764FB0022434694
:102FC000FDF763FA3A46FDF741FB01E011E00EE040
:102FD000FDF7A2FB11492860884202DDFDF738F9B0
:102FE00004E010F1FF4F02D3FDF7E0F8286086F807
:102FF0000090C82207490448FEF7E6FFBDE8F84301
:103000000148FEF709BE0000C8020020900300201E
:103010000C000020D4030020008066400000B44370
:10302000FEE70907090E002804DB00F1E02080F824
:103030000014704700F00F0000F1E02080F8141D2C
:10304000704702E008C8121F08C1002AFAD1704771
:103050007047002001E001C1121F002AFBD1704718
:1030600010B504460846FDF71EFB084A084BFDF75D
:103070000CFA0022074BFDF761F9FDF721FB024630
:103080002046BDE81040012100F07ABB9A99999939
:103090009999014000C06340064801680648B1FBA9
:1030A000F0F2064802704FF47A72B1FBF2F141601F
:1030B000704700000000002080841E0004000020F3
:1030C00070B54FF0E024002265690949A369496899
:1030D0004843A1699942FCD002D2A3EB010302E06C
:1030E000A5EB010633441A440B468242F1D370BD6E
:1030F0000400002070B54FF0E02400226569094902
:10310000A36909784843A1699942FCD002D2A3EB94
:10311000010302E0A5EB010633441A440B46824248
:10312000F1D370BD040000202DE9F041C1F30A5233
:10313000A2F2FF362F4A304B0D460446142E2FDAEA
:10314000002E12DAFDF7FAF800221346FDF7B6FB5F
:103150004CD2002DA4BF0024254647DA25F00040BC
:10316000204318BF254D41D018E0DFF894C02CFA59
:1031700006F705EA070C5CEA040C08BFBDE8F0811D
:10318000FDF7DCF800221346FDF798FB2ED2002D48
:1031900003DA4FF48010F0400544BD43002425E0DD
:1031A000332EC8BFBDE8F081A6F1140C4FF0FF37F5
:1031B00027FA0CF73C4208BFBDE8F081FDF762F941
:1031C00000221346FDF77AFB10D2002D0DDA142EE3
:1031D00008BF6D1C09D0C6F13400012101FA00F0CE
:1031E0002044A04238BF6D1C0446BC4329462046FB
:1031F000BDE8F0819C7500883CE4377E0000F0BF9C
:10320000FFFF0F0010B5124C002204212046FDF7ED
:10321000DEFD206820F00F002060206840F00300F1
:103220002060002201212046FDF7D1FD0220FFF79A
:1032300061FF012204212046FDF7C9FD0220FFF7AE
:1032400059FF20460022BDE810400421FDF7BFBD14
:10325000000C014010B5124C002204212046FDF75D
:10326000B6FD206820F00F002060206840F00300C9
:103270002060012211462046FDF7A9FD0220FFF73C
:1032800039FF012204212046FDF7A1FD0220FFF7AE
:1032900031FF20460022BDE810400421FDF797BD14
:1032A000000C01402DE9F041184C0746002520682C
:1032B00020F00F002060206840F0080020602E46BB
:1032C000002204212046FDF782FD0220FFF712FFB5
:1032D000012204212046FDF77AFD6806050E012132
:1032E0002046FDF76FFD08B16D1CEDB20120FFF720
:1032F00001FF761CF6B2082EE2D327B1FFF782FF5A
:103300002846BDE8F081FFF7A5FFF9E7000C014072
:1033100070B5174E05463046316821F00F01316017
:10332000316841F00301316000220421FDF74FFDB7
:103330000024EA0901213046FDF749FD6806050E23
:103340000220FFF7D7FE012204213046FDF73FFDA2
:103350000220FFF7CFFE002204213046FDF737FDA3
:103360000220FFF7C7FE641CE4B2082CE1D370BD55
:10337000000C014010B5124C206820F00F002060B6
:10338000206840F003002060012211462046FDF72E
:103390001EFD012204212046FDF719FD0420FFF740
:1033A000A9FE002201212046FDF711FD0420FFF7B0
:1033B000A1FE20460022BDE810400421FDF707BD14
:1033C000000C014010B5124C206820F00F00206066
:1033D000206840F003002060002204212046FDF711
:1033E000F6FC002201212046FDF7F1FC0420FFF746
:1033F00081FE012204212046FDF7E9FC012211464D
:103400002046FDF7E4FCBDE810400420FFF772BE43
:10341000000C014070B5184C0025206820F00F000A
:103420002060206840F008002060012211462046FC
:10343000FDF7CDFC0120FFF75DFE012204212046AF
:10344000FDF7C5FC0120FFF755FE07E06D1CEDB24E
:10345000FA2D03D9FFF7B6FF012070BD01212046E8
:10346000FDF7B0FC0028F1D1002204212046FDF731
:10347000AEFC002070BD0000000C01400548006853
:10348000C16841F01001C160C82203490148FEF73C
:103490009BBD0000C8020020D4030020FDF7AAFC59
:1034A000FFF79AF9FEF7C8FEFEF7A0FEFFF758F9FE
:1034B000FFF772F9FFF71CF9FFF736F9FEF724FF63
:1034C000FFF79AF8FEF79CFFFEF7D0FFFFF704F82E
:1034D000FFF738F8FFF76CF8FFF7DEFD5A211F48B9
:1034E00000F0D2F800F03EF8FFF7C8FFFEF774FED8
:1034F0001B48FEF745F841F27071042000F072F8A5
:103500003220FFF7DDFD40F6B831042000F06AF804
:103510004FF4FA642146032000F064F821460220AB
:1035200000F060F82146012000F05CF865100024EE
:10353000E0B25A21FFF794FD641C0B2CF8DD2846FD
:10354000FFF7BEFD0024E0B20021FFF789FD641CF7
:103550000B2CF8DD2846FFF7B3FDE8E700004842F2
:103560008801002010B500211848FEF7FDFA04215B
:103570001648FEF7F9FA08211448FEF7F5FA0C216F
:103580001248FEF7F1FA00211148FEF7EDFA042186
:103590000F48FEF7E9FA08210D48FEF7E5FA0C217D
:1035A0000B48FEF7E1FA3C210A48FEF74BF93C21B3
:1035B0000948FEF747F93C210848FEF743F9BDE802
:1035C00010403C210648FEF73DB9000048000020AD
:1035D000C80100204801002008010020C800002088
:1035E000880000202DE9F04F254CDFF898C0244ECC
:1035F000ACF104090023251F0836271DA9F1040A90
:10360000AAF1040B41F6583200291ADB914200DD81
:10361000114601280BD002280CD003280DD0042815
:1036200003D1CAF8003058460160BDE8F08F23602E
:103630002960FAE733603960F7E7CCF80030484694
:10364000F2E741F6583811EB080F00DB4A42012837
:103650000AD002280BD003280CD00428E5D1CBF8DF
:103660000030CAF80020E0E72B602260DDE73B6015
:103670003260DAE7C9F80030CCF80020D5E7000066
:10368000382C01404034014010B504460021084662
:1036900000F09AF8204600F023F8BDE810404FF4FF
:1036A000FA70FFF70DBD10B50446FFF763FEAA20C0
:1036B000FFF72EFEFFF7AEFE2046FFF729FEFFF7CD
:1036C000A9FEFFF757FEAB20FFF722FEFFF7A2FE91
:1036D0000020FFF7E7FD0446FFF774FE204610BD0B
:1036E00070B5FDF706F8214A214BFCF7CEFEFDF739
:1036F00013F806466FF00B0200201E49FCF7A6FFE8
:1037000004460D463046FCF7F4FF02460B462046C1
:103710002946FCF72CFF0022174BFCF7B0FE0022D5
:10372000164BFCF70BFEFFF7FFFCFCF7C9FFC5B219
:103730000020FFF7B8FF044600F07F0040F01001C2
:10374000002000F041F82946FE2000F03DF8214617
:10375000002000F039F80220FDF726FA44F0A1011C
:10376000BDE87040002000F02FB80000713D0AD77E
:10377000A370ED3F84D777410000F03F0000E03FA9
:1037800070B5044606200E4600EB84001546C9B20B
:10379000C0B200F019F8072000EB8400C0B2C6F3F5
:1037A000072100F011F8082000EB8400E9B2C0B254
:1037B00000F00AF8092000EB8400C5F30721BDE8FA
:1037C0007040C0B2AFF3008070B50D460446FFF7FD
:1037D000D1FDAA20FFF79CFDFFF71CFE2046FFF756
:1037E00097FDFFF717FE2846FFF792FDFFF712FE41
:1037F000BDE87040FFF7E6BD0000000000000000DB
:103800000102030406070809000000000102030486
:103810003038000800000020480000004230000856
:10382000783800084800002098080000523000084E
:103830000024F40000000000000000000000000070
:10384000000000000000A0C0000080C0000040C0D8
:10385000000000C0000000BF0000003F000000406A
:1038600000004040000080400000A0400100000037
:08387000100000000000000040
:0400000508000131BD
:00000001FF
